:020000040800F2
:1000000000000220155900089D5800089F5800085C
:10001000A1580008A3580008A558000800000000D7
:10002000000000000000000000000000A7580008C9
:10003000A958000800000000AB580008AD5800089F
:100040006559000865590008655900086559000898
:100050006559000865590008655900086559000888
:100060006559000865590008655900086559000878
:100070006559000865590008655900086559000868
:100080006559000865590008655900086559000858
:100090006559000865590008655900086559000848
:1000A0006559000865590008655900086559000838
:1000B000BD580008655900086559000865590008D1
:1000C0006559000865590008655900086559000818
:1000D0006559000865590008655900086559000808
:1000E00065590008655900086559000865590008F8
:1000F00065590008655900086559000865590008E8
:1001000065590008655900086559000865590008D7
:1001100065590008655900086559000865590008C7
:1001200065590008655900086559000865590008B7
:1001300065590008655900086559000865590008A7
:100140006559000865590008655900086559000897
:100150006559000865590008655900086559000887
:100160006559000865590008655900086559000877
:10017000655900086559000865590008000000002D
:080180006559000865590008EB
:1001900010B5054C237833B9044B13B10448AFF3C1
:1001A00000800123237010BD7000002000000000BB
:1001B0005C62000808B5034B1BB103490348AFF369
:1001C000008008BD00000000740000205C62000890
:1001D000034613F8012B002AFBD1181A0138704787
:1001E00001F0FF01102A2BDB10F0070F08D010F8E8
:1001F000013B013A8B422DD010F0070F42B3F6D1EC
:10020000F0B441EA012141EA014122F007047FF004
:1002100000070023F0E80256083C85EA010586EA5B
:10022000010685FA47F5A3FA87F586FA47F6A5FA97
:1002300087F68EB9EED1F0BC01F0FF0102F00702A3
:1002400032B110F8013B013A83EA010313B1F8D14E
:100250000020704701387047002D06BF354603382F
:10026000073815F0010F07D1013015F4807F02BF68
:10027000013015F4C03F0130F0BC0138704700BFB9
:1002800053B94AB9002908BF00281CBF4FF0FF31FD
:100290004FF0FF3000F07AB9ADF1080C6DE904CEF3
:1002A00000F006F8DDF804E0DDE9022304B0704751
:1002B0002DE9F0478C460D460446089E002B51D18F
:1002C0008A4217466DD9B2FA82FEBEF1000F0BD0FA
:1002D000CEF1200C01FA0EF520FA0CFC02FA0EF712
:1002E0004CEA050C00FA0EF44FEA174A250CBCFB49
:1002F000FAF81FFA87F90AFB18CC45EA0C4508FB07
:1003000009F3AB420AD9ED1908F1FF3280F02381DD
:10031000AB4240F22081A8F102083D44ED1AA4B29C
:10032000B5FBFAF00AFB105544EA054400FB09F955
:10033000A14509D9E41900F1FF3380F00A81A145F4
:1003400040F2078102383C44A4EB090440EA08402B
:100350000021002E61D024FA0EF400233460736073
:10036000BDE8F0878B4207D9002E54D0002186E8E3
:1003700021000846BDE8F087B3FA83F1002940F078
:100380008E80AB4202D3824200F2FA80841A65EB7F
:1003900003050120AC46002E3FD086E81010BDE8D2
:1003A000F08712B90127B7FBF2F7B7FA87FEBEF163
:1003B000000F34D1EB1B3A0C1FFA87FC0121B3FB71
:1003C000F2F8250C02FB183345EA03450CFB08F351
:1003D000AB4207D9ED1908F1FF3002D2AB4200F26F
:1003E000D1808046ED1AA3B2B5FBF2F002FB1055A6
:1003F00043EA05440CFB00FCA44507D9E41900F1CD
:10040000FF3302D2A44500F2B8801846A4EB0C04D6
:1004100040EA08409DE731463046BDE8F087CEF11E
:10042000200405FA0EF307FA0EF720FA04F83A0C46
:1004300025FA04F448EA0308B4FBF2F14FEA184540
:1004400002FB11441FFA87FC45EA044501FB0CF34B
:10045000AB4200FA0EF409D9ED1901F1FF3080F03A
:100460008A80AB4240F2878002393D44EB1A1FFA82
:1004700088F5B3FBF2F002FB103345EA034500FBBD
:100480000CF3AB4207D9ED1900F1FF386FD2AB4244
:100490006DD902383D44EB1A40EA01418FE7C1F1C2
:1004A000200722FA07F88B4005FA01F448EA030313
:1004B00020FA07FE4FEA134CFD404EEA040EB5FB4E
:1004C000FCF94FEA1E440CFB19551FFA83F844EA65
:1004D000054509FB08F4AC4202FA01F200FA01FA00
:1004E00008D9ED1809F1FF3043D2AC4241D9A9F146
:1004F00002091D442D1B1FFA8EFEB5FBFCF00CFB00
:1005000010554EEA054400FB08F8A04507D9E41849
:1005100000F1FF3529D2A04527D902381C4440EA12
:100520000940A4EB0804A0FB02894C45C6464D4691
:1005300015D312D056B1BAEB0E0364EB050404FADE
:1005400007F7CB401F43CC40376074600021BDE803
:10055000F0871846F8E69046E0E6C245EAD2B8EBE6
:10056000020E69EB03050138E4E72846D7E7404669
:1005700091E78146BEE7014678E702383C4445E70B
:10058000084608E7A8F102083D442BE7704700BF82
:1005900010B5084B044618684FF47A73B0FBF3F0BB
:1005A00000F094F8002221464FF0FF3000F04EF8A2
:1005B000002010BD0800002008B50B4B1A6842F45B
:1005C00000721A601A6842F480621A601A6842F473
:1005D00080721A60032000F027F80020FFF7D8FF90
:1005E00005F010F9002008BD003C0240024A1368E3
:1005F00001331360704700BF00020020014B1868F0
:10060000704700BF0002002037B50190FFF7F6FFEA
:10061000019C631C054618BF0134FFF7EFFF401B28
:10062000A042FAD303B030BD074AD36823F4E06395
:100630001B041B0C43F0BF63000243F4003300F4BF
:10064000E0600343D360704700ED00E0174B30B526
:10065000DC68C4F30224C4F10703251D042B28BF62
:100660000423062D4FF0010505FA03F303F1FF33D0
:100670008CBF033C00241940A14005FA04F4013C5E
:100680002240002842EA01024FEA0212AFBF00F105
:10069000604000F00F00064BD2B2A5BF00F56140EC
:1006A000D2B21A5480F8002330BD00BF00ED00E044
:1006B00014ED00E04209012300F01F0003FA00F0EE
:1006C000014B43F82200704700E100E00138B0F12F
:1006D000807F0AD2064B074A5860F02182F8231027
:1006E0000020072298601A6070470120704700BF01
:1006F00010E000E000ED00E0044B1A6804280CBF95
:1007000042F0040222F004021A60704710E000E098
:10071000704708B5FFF7FCFF08BD000082B0074B2B
:100720004FF4FA521B68B3FBF2F3019300BF019B35
:100730005A1E0192002BF9D102B070470800002028
:1007400007B50023019341F2180103685A5842F497
:1007500080125A505B580193FFF7E0FF019A03683B
:100760005A5003B05DF804FB70B5044629B14FF44C
:100770000063C3604FF480438360E3692268E068EC
:100780001568002BA36843EA0003304843F4007364
:1007900000EA05000CBF4FF48061002103430B43C6
:1007A000136001201568FFF72FFF236840221D60AA
:1007B00001205A605D68FFF727FF23685D60002510
:1007C0009D60DD609A6922F0BE021204120C42F0B4
:1007D00080029A6101209E69FFF716FF23680120BD
:1007E0009E61DD61DD69FFF70FFF2268184BD5615F
:1007F00041F21805012051590B4043F0087343F0B2
:10080000040353515659FFF7FFFE2368114A5E5106
:1008100003F5805301201A601D68FFF7F5FE22687A
:1008200002F580531D60A369012B07D141F21C0121
:10083000535843F4803343F0400353506369064AEE
:10084000998811601A68054B1A6070BD0F8120FFEE
:10085000233FDEF88020C1024080024044800240F5
:10086000F0B590F84540012C4FF0020433D001253B
:1008700080F8455080F84440C16201F12004002511
:100880004FF4801740F2F45E03F1FF3C9D420BD120
:10089000026841F21003D150012380F84430002354
:1008A00080F845301846F0BD0EFB052644F8186C5C
:1008B000C66944F8207C2EB954F8206C46F44006F2
:1008C00044F8206C65452CBF0E46264644F8146C4F
:1008D00001352034DAE72046F0BD2DE9F04190F8EB
:1008E0004540012C4FF0020430D0012580F84550DE
:1008F00080F84440816201F1200400254FF0004659
:1009000044F2F45740F2F45E03F1FF3C9D420CD1F7
:10091000026841F20C03D150012380F844300023D7
:1009200080F845301846BDE8F0810EFB052844F8F4
:10093000188C65452CBF8846A04644F8206C44F8C6
:100940001C7C44F8148C01352034DFE72046BDE8D8
:10095000F081000090F84530012BF0B54FF0020314
:1009600068D0012280F8452080F8443029B980F809
:10097000442080F845101046F0BDC36A1C68002C66
:1009800006DA122380F84430002380F84530F2E77D
:1009900040F2F454A1422ED9B1FBF4F204FB12143C
:1009A0003CB30132244C01F2F45104FB0211C1F3B7
:1009B0000C01002440F2F456571E1D6825F04055E6
:1009C0001D601CB91D6845F080551D60A74208BF19
:1009D0001D685E6004BF45F000551D601D6808BFBE
:1009E0005960013445F0004594421D60DB68E4D154
:1009F0000DE0012AD6D11A6842F040521A601A68F6
:100A0000C1F30C0142F0004259601A60DB68C36216
:100A100041F2140203689958490705D504219950F9
:100A200041F2040200219950012380F84430002350
:100A300080F845301846F0BD0CFAFFFF90F84530BD
:100A4000012B30B54FF0020323D080F84430836A85
:100A50001A680124002A80F8454027DB1A68D96803
:100A600012F4807217D0826B43632244A24208BF03
:100A700003631B688263C3F30D43043BC363036BCF
:100A80009B680364012380F844300023816280F86E
:100A90004530184630BD1D688162AD0555BF836B7A
:100AA0000363013342634CBF8463836301230022E9
:100AB00080F8443080F84520EBE7F8B590F84430F2
:100AC000822B0546164630D00268822380F84430D7
:100AD0001369890101F4F86403F01C012143048ABD
:100AE000E402A4B20C4344F001041461FFF786FD54
:100AF000074614F0010007D12B685B699BB2336095
:100B0000012385F84430F8BDFFF778FDC01BB0F530
:100B1000803F07D3012385F84430002385F8453012
:100B20000320F8BD2B681C69E3E70220F8BD90F8AC
:100B30004430422B70B505462ED0422380F8443015
:100B400003688C01186904F4F86444F0030400F0AD
:100B50001C0020432C8AE402A4B2044392B25A61DE
:100B60001C61FFF74BFD064614F0010003D1012381
:100B700085F8443070BDFFF741FD801BB0F5803F24
:100B800007D3012385F84430002385F8453003203E
:100B900070BD2B681C69E7E7022070BDF7B5002324
:100BA00000930446002800F0DE8090F8443003F003
:100BB000FF021BB980F8452004F036FB00230193A7
:100BC0006A4B5A6C42F480425A645B6C03F4804373
:100BD0000193019B664B5A6822F400025A605A68DE
:100BE000216A0A435A60236803F580531A6842F069
:100BF00001021A60FFF702FD0546236803F58052E3
:100C00001268D0071DD41D6900F028FC594B5A4AC0
:100C10000344934225F01C0522D845F008052368BB
:100C20004FF400421D6100212046FFF780FF05467A
:100C300068B3012120460125FFF796FD84F8445052
:100C40000BE0FFF7DBFC401BB0F5FA7FD5D903259D
:100C5000002384F8445084F84530284603B0F0BDA2
:100C6000464B474A0344934202D845F00C05D6E769
:100C7000444B454A03449342D1D9444B444A03442C
:100C8000934294BF45F0040545F01005C7E7FF20E7
:100C9000FFF7BAFC6368002B53D0FFF7AFFC41F2BB
:100CA000883706466A4601212046FFF706FFFFF710
:100CB000A5FC801BB8420BD901212046FFF754FD4B
:100CC000012384F84430002384F845300325C4E729
:100CD000009B5907E6D54FF4805200212046FFF7CC
:100CE00026FF0028A5D1FFF789FC41F28837064688
:100CF0006A4601212046FFF7E0FEFFF77FFC801BDC
:100D0000B842D9D8009B9A06F2D56A4610212046EF
:100D1000FFF7D3FE00288CD1009B13F0040218BF0C
:100D20004FF400629B074CBF00234FF48043E26006
:100D3000A36000212046FFF717FD012384F844300B
:100D40008BE7A368E2685B0843EAD20292B22946C5
:100D50002046FFF7ECFE00287FF46BAF40F6FF70F3
:100D6000FFF752FCE5E7012577E700BF00380240B6
:100D70000038014000D3CEFEBFE1E40040F1E9FDC0
:100D80003F787D0100796CFCFF596202001F0AFA6E
:100D90007FF0FA0290F84530012B73B505464FF00D
:100DA000020031D000242B6885F8440001941A68B1
:100DB000012642F0080285F845601A601B6801931D
:100DC000FFF7ACFC2B68019A1A6000941A6842F095
:100DD00004021A601B680093FFF7A0FC2B68009ABE
:100DE0001A602846FFF7ACFC2A6841F21803204637
:100DF000D15841F40051D150D15841F00201D150A5
:100E000085F8446085F8454002B070BD2DE9F04F8B
:100E100085B00B68DFF8AC81684ADFF8AC910193CC
:100E200000234FF0010E019C0EFA03FE0EEA0406A9
:100E3000B64540F0AE804C6824F01007022F16D162
:100E40004FEAD30A00EB8A0A03F0070BDAF82050C6
:100E50004FEA8B0B4FF00F0C0CFA0BFC25EA0C0C35
:100E60000D6905FA0BF545EA0C05CAF820504FEA62
:100E7000430A0325D0F800B005FA0AF5ED4304F063
:100E8000030C0BEA050B0CFA0AFC013F4CEA0B0CB5
:100E9000012FC0F800C011D8876807EA050BCF689A
:100EA00007FA0AFC4CEA0B078760476827EA0E0E30
:100EB000C4F300179F4047EA0E074760C7683D40EC
:100EC0008F6807FA0AF73D43C560E50061D54FF02A
:100ED000000BCDF80CB0D8F84470394D47F480477A
:100EE000C8F84470D8F8447007F480470397039F0C
:100EF00023F0030707F1804707F59C3703F0030C45
:100F0000D7F808A04FEA8C0C4FF00F0E0EFA0CFE2B
:100F1000A8422AEA0E0E43D005F58065A84241D0CA
:100F200005F58065A8423FD005F58065A8423DD013
:100F300005F58065A8423BD048453BD005F50065E6
:100F4000A84239D005F58065A84214BF08250725B9
:100F500005FA0CF545EA0E05BD601568F74314F473
:100F6000803F0CBF3D4035431560556814F4003F89
:100F70000CBF3D4035435560956814F4801F0CBF8D
:100F80003D4035439560D568A40254BF3D4035438C
:100F9000D5600133102B7FF444AF05B0BDE8F08F6E
:100FA0005D46D5E70125D3E70225D1E70325CFE745
:100FB0000425CDE70525CBE70625C9E7003C014020
:100FC0000000024000380240001402400AB1816172
:100FD00070470904FBE743695940416170470000CD
:100FE000F7B5044610B9012003B0F0BD0368D80777
:100FF0003BD42368990700F1848023681E0700F121
:10100000C68023685D072AD500230193AA4BAB4D08
:101010001A6C42F080521A641B6C03F080530193E7
:10102000019B2B6843F480732B60FFF7E7FA0646B9
:101030002B68DA0540F1CD80A3689F4D012B40F06D
:10104000CF802B6F43F001032B67FFF7D7FA9A4D40
:10105000064641F288372B6F9B0740F1E280A26978
:10106000002A40F0E5800020BEE7934B9A6802F02A
:101070000C02042A07D09A6802F00C02082A0AD14E
:101080005B685A0207D58C4B1B689B03B1D563681C
:10109000002BAED1A7E76368874DB3F5803F11D130
:1010A0002B6843F480332B60FFF7A8FA824D064685
:1010B0002B689F039DD4FFF7A1FA801B6428F7D902
:1010C000032091E7B3F5A02F04D12B6843F48023CC
:1010D0002B60E5E72A6822F480322A602A6822F42D
:1010E00080222A60002BDFD1FFF788FA06462B68A2
:1010F00098037FF57EAFFFF781FA801B6428F6D94D
:10110000DEE76D4B9A6812F00C0F07D09A6802F078
:101110000C02082A12D15B6859020FD4664B1A6878
:10112000920703D5E268012A7FF45DAF1A6821694E
:1011300022F0F80242EAC1021A605EE7E268604B00
:10114000B2B101221A60FFF759FA5B4D06462B68CF
:101150009B0707D52B68226923F0F80343EAC203F3
:101160002B604AE7FFF74AFA801B0228EFD9A7E76E
:101170001A60FFF743FA504D06462B689F077FF52C
:101180003CAFFFF73BFA801B0228F6D998E762696B
:101190004C4B7AB101221A60FFF730FA464D0646F1
:1011A0006B6F98073FF52DAFFFF728FA801B0228D9
:1011B000F6D985E71A60FFF721FA3F4D06466B6FB7
:1011C00099077FF51EAFFFF719FA801B0228F6D9A1
:1011D00076E7FFF713FA801B02287FF629AF6FE747
:1011E000052B04D12B6F43F004032B6729E72A6FEB
:1011F00022F001022A672A6F22F004022A67002BDC
:101200007FF423AFFFF7FAF941F2883706462B6FD8
:1012100098077FF524AFFFF7F1F9801BB842F6D9A4
:101220004EE7FFF7EBF9801BB8427FF614AF47E7B4
:10123000214DAB6803F00C03082B3FF4D4AE224ED3
:101240000023022A33602AD1FFF7D8F907462B681A
:1012500099011ED4226AE3691343626A43EA821346
:10126000E26A43EA0263A26A134C5208013A43EA73
:1012700002436B6001233360FFF7C0F90546236822
:101280009A013FF5F0AEFFF7B9F9401B0228F6D9F5
:1012900016E7FFF7B3F9C01B0228D8D910E7FFF70C
:1012A000ADF904462B689B017FF5DDAEFFF7A6F98B
:1012B000001B0228F6D903E7003802400070004006
:1012C00000004742800E474260004742134908B57C
:1012D0008B6803F00C03042B03D0082B03D01048B9
:1012E00008BD104808BD4A684B68496813F480037C
:1012F00014BF0C480A48C1F3881118BF002302F03C
:101300003F02A1FB0001FEF7BBFF044B5B68C3F388
:10131000014301335B00B0FBF3F008BD003802402D
:101320000024F40000127A002DE9F0410D46044635
:1013300010B90120BDE8F081444B1A6802F00F0299
:101340008A4228D321688F072DD4C80740D43F4B49
:101350001A6802F00F02954266D3226851076CD4D6
:10136000130707D53A4A2169936823F4604343EA97
:10137000C1039360FFF7AAFF354B364A9B68C3F35E
:101380000313D35CD840344B18600020FFF700F9FA
:101390000020BDE8F081CAB21A701B6803F00F0389
:1013A0009942C6D1CEE72A4B11F0040F1EBF9A68AE
:1013B00042F4E0529A600E0742BF9A6842F46042DB
:1013C0009A609A68A06822F0F00202439A60BCE733
:1013D00062681F4B012A1DD11B6813F4003FA8D07F
:1013E0001B4EB36823F003031343B360FFF706F902
:1013F00041F288380746B368626803F00C03B3EB28
:10140000820FA4D0FFF7FAF8C01B4045F3D90320A0
:10141000BDE8F081911E01291B6802D813F0007FFE
:10142000DDE713F0020FDAE7EAB21A701B6803F087
:101430000F039D427FF47DAF8FE70549E0688B681D
:1014400023F4E05303438B608AE700BF003C024073
:10145000003802401A63000808000020014B186899
:10146000704700BF080000200368DA6842F00102FC
:10147000DA601A6842F001021A600020704790F8A2
:101480003830012B70B54FF002031CD080F8393092
:101490000368012280F838209A6822F47F4222F003
:1014A00077029A600A68402A79D019D8102A00F089
:1014B00093800AD8002A00F08980012380F839300F
:1014C000002380F83830184670BD202A00F08A804A
:1014D000302AF2D19A6822F0700242F0370236E0E8
:1014E000702A36D01BD8502A42D0602AE5D11C6A17
:1014F0004D68CE6824F010041C6299691A6A21F4C0
:10150000704122F0A00242EA051241EA06319961D7
:101510001A629A6822F0700242F0670217E0B2F590
:10152000805F11D0B2F5005FC7D18A684D689C68B2
:10153000C9682A4324F47F4442EA012222439A6084
:101540009A6842F4804202E09A6822F007029A60A8
:10155000B3E78A684D689C68C9682A4324F47F44CD
:1015600042EA012222439A609A6842F07702EEE74B
:101570004C68CE68196A1D6A25F001051D629A69DA
:1015800021F00A0122F0F00242EA061221439A6198
:1015900019629A6822F0700242F05702D7E74C684D
:1015A000CE68196A1D6A25F001051D629A6921F04D
:1015B0000A0122F0F00242EA061221439A611962FE
:1015C0009A6822F0700242F04702C0E79A6822F05F
:1015D000700242F00702BAE79A6822F0700242F005
:1015E0001702B4E79A6822F0700242F02702AEE7D1
:1015F000704770477047704703681A69910710B5C4
:1016000004460ED5DA6892070BD56FF002021A6114
:101610009B6901229B07027677D0FFF7EAFF002340
:10162000237623681A69500710D5DA6851070DD55B
:101630006FF004021A619B69022213F4407F227644
:10164000204668D0FFF7D5FF0023237623681A6968
:1016500012070FD5DA6810070CD56FF008021A616F
:10166000DB6904229907227620465AD0FFF7C1FF92
:101670000023237623681A69D20610D5DA68D006CB
:101680000DD56FF010021A61DB69082213F4407F58
:10169000227620464BD0FFF7ACFF00232376236849
:1016A0001A69D10708D5DA68D20705D56FF00102AB
:1016B0001A61204603F05CFF23681A69100608D5FA
:1016C000DA68110605D56FF080021A61204600F035
:1016D000D6F823681A69520608D5DA68500605D587
:1016E0006FF040021A612046FFF785FF23681A69F0
:1016F000910622D5DA6892061FD56FF020022046A7
:101700001A61BDE8104000F0B9B8FFF771FF20463C
:10171000FFF770FF83E7FFF76BFF2046FFF76AFFD5
:1017200092E7FFF765FF2046FFF764FFA0E7FFF7AA
:101730005FFF2046FFF75EFFAFE710BD2E4A03684C
:10174000904212D0B0F1804F0FD0A2F57C4290426F
:101750000BD002F58062904207D002F58062904281
:1017600003D002F5784290421DD14A6823F07003FD
:101770001343214A904204D1CA6823F440731343AF
:1017800028E0B0F1804FF7D01C4A9042F4D002F527
:1017900080629042F0D002F580629042ECD002F577
:1017A00078429042E8D0164A9042E5D002F5806235
:1017B0009042E1D002F580629042DDD0A2F59832ED
:1017C0009042D9D002F580629042D5D002F5806275
:1017D0009042D1D003608B68C3620B688362064B72
:1017E000984206D003F58063984202D001234361FA
:1017F00070470B690363F9E70000014000040040F3
:101800000040014010B50446A0B190F8393003F013
:10181000FF021BB980F8382004F024F8022384F872
:1018200039302068211DFFF789FF012384F8393002
:10183000002010BD012010BD90F83830012B10B5EC
:101840004FF0020318D080F8393003680C685A68EA
:10185000496822F070025A605A6822435A609A68B6
:1018600022F080029A609A680A439A60012380F805
:101870003930002380F83830184610BD7047704763
:1018800040BA80B2704700BA704708B500F092FFC6
:1018900001F0BAF801F0EDF803F043FABDE80840B2
:1018A00001F04DBB70B51826074C46430546A059BC
:1018B00018B101F0CFF90023A351182303FB05440D
:1018C0000023237570BD00BF8C0000202DE9F74F69
:1018D000314B01910A220546002016469646814664
:1018E00084468346144698460A2C1F7D10D18FB932
:1018F00044B201300A2803F11803F5D1019B99077E
:1019000003D40A2C1BD1DB0728D44FF0FF3008E0AA
:10191000002FEED09DB329688A4659688A452ED19A
:1019200040B203B0BDE8F08FE245E2D346B2D44600
:10193000DFE7CA4524BF4FFA80FED146D9E7E4B2BB
:1019400025B1182303FB04832A685A60182303FB7C
:1019500004880023A8F8123060B2E2E7BEF10A0F53
:1019600005D05FFA8EF42046FFF79CFFE8E70A2EC9
:1019700001D0F4B2F7E70A2AC7D0D4B2F3E7012FB7
:10198000B3F812A0D5D11F68002FCDD0DA45B0D35F
:1019900042B2D346ADE700BF8C0000202DE9F743EB
:1019A0000746884691461C21002202201D4601F070
:1019B00079F9064680B344680120FFF761FFE080B3
:1019C0002B68A360AB88A381154B1A689B88E382C0
:1019D0000A9BC4F812201B68C4F80E300B9B1B68CE
:1019E000A361012363700823A370062323710423DA
:1019F0000025637140F606032570E57042460093AA
:101A000031464B46384603F099FB304601F022F947
:101A1000284603B0BDE8F0834FF0FF30F9E700BF80
:101A20000E63000870B5084D064600242B7D2BB1CF
:101A3000AB68B34202D12046FFF734FF01340A2CD1
:101A400005F11805F2D170BD8C0000202DE9FF478B
:101A500080460D4681B144682388B3F5807F08D164
:101A60002379062B05D16379042B02D16388082BD7
:101A700005D0404601F0EEF804B0BDE8F0874F68AD
:101A8000D4F80E000390A36917B1DB1B5F425F41DE
:101A9000002F04F1080614BF4FF001094FF00209AE
:101AA00000283CD0294600F0BEFB8246B8BB039B11
:101AB00003F0F003E02B32D0494603A8FFF706FFFE
:101AC00000282CDB294B182202FB00F103EB010E4E
:101AD0004FF0020C8EF814C04FF00C0CCEF80850EA
:101AE00012FB00C23068985003EB020CB288ACF8CD
:101AF000042053F80190AEF812A0B9F1000F0ED0F7
:101B000043F801A04FF40063009305F1250233462A
:101B10004946284603F012FB484601F09BF8E3884B
:101B2000B3F5807FA5D1002FA3D00220FFF7A8FE38
:101B3000D4F80E30E080A3616B68C4F80E303268D0
:101B4000C4F8122004F11203B2889A802A4628466B
:101B500052F8251FA1609288B28040F606020092DA
:101B60004146324603F0EAFA83E700BF8C000020CA
:101B700007B5024600F1250304320191009219468F
:101B8000024AFFF70BFF03B05DF804FB086300088F
:101B90002DE9F7431C4D8946182101FB02560746E3
:101BA000337D022B144600F125080AD1738AB3F560
:101BB0008E7F15D931460431FFF7DAFF08B90323C8
:101BC0003375182303FB04534FF4006200920C3367
:101BD00042464946384603F0B1FA03B0BDE8F08307
:101BE000B3F5877FEDD302EB4201C90001F10C028E
:101BF00004312944031D019100932A444346414680
:101C0000FFF7CCFEDAE700BF8C0000202DE9F3419E
:101C1000884607460146D8F80000144600F003FB4A
:101C200000284ED1D8F8003003F0F002E02A48D066
:101C3000002B46D001214046FFF748FE051E43DB3E
:101C40002E4E182303FB05631A7D002A3ED1012284
:101C50001A759F6041463846FFF78AFFA4B11823E2
:101C600003FB0562127D012A11D9254A15700C2249
:101C700013FB05234FF400620092334407F1250261
:101C80002146384603F05AFA02B0BDE8F081FBD194
:101C900023468BB9204601F0C2F85CB327461823CF
:101CA00003FB05F21C46B05808B100F0D3FF04FB5B
:101CB00005F30020F750E7E71A7B012A0BD11B68D8
:101CC000E7E76FF00F00DFE72846DDE7002CC1D023
:101CD0004FF0FF30C3E700221989022000F0E2FF35
:101CE000074638B1214601F0B5F80028D7D038466C
:101CF00000F0B0FF4FF0FF30C6E700BF8C000020BF
:101D00007C010020F0B5044685B00E4601461068FF
:101D1000154600F088FA00285BD12B6803F0F0022A
:101D2000E02A1DD101238DF808305E238DF80A309A
:101D30006B788DF8090003F07F038DF80B30AB78DA
:101D40008DF80C30EB788DF80D3002AB4FF400625B
:101D50000092314604F12502204603F0EFF91FE01E
:101D60006268A1685A400A4208D09BB24FF6A96245
:101D7000934203D0E36873B304F10C05174B184981
:101D80001A78182000FB0210017D0129194609D993
:101D90002F6843689F4205D131462046FFF7F8FE81
:101DA00005B0F0BD0E4B0022187D012806D92F6822
:101DB0005868874202D1D2B20A70EDE701320A2A8E
:101DC00003F11803F0D1324629462046FFF71EFFE3
:101DD000E6E7044BBAE76FF00300E1E77C0100207F
:101DE0008C00002008630008F0B5044687B00F4659
:101DF000164624210022012000F054FF054650B36E
:101E000022684468002323716371A371E371277012
:101E10006670134604F1080102F11C0053F8046BCC
:101E200041F8046B8342F9D106AED36846F8043D0D
:101E3000304600F0A1F858B100210123A170E170F3
:101E4000324602908DE80A002846FF2300F0DAF9B6
:101E5000284600F0FFFE07B0F0BD00002DE9FF4767
:101E60003E4BD3F808A09AF8005005F00F05AD00DE
:101E7000132D044688461F462CD94289032A29D9A6
:101E800042681278082A25D1586900F0F002E02A49
:101E900020D0196800F0C7F90646D8B92389072B66
:101EA00018D905F10E0120460FFA85F900F0C4FE9D
:101EB000002849D021892944324689B2022000F005
:101EC000F1FE064630B1428905F108039A4207D275
:101ED00000F0C0FE204604B0BDE8F04700F0BABEF6
:101EE00051462A46406803F072FD6942304600F0D0
:101EF000A3FE08B13046EBE72146304600F0AAFFCA
:101F00000028F7D1204600F0A5FE34464946204679
:101F1000656800F091FE02460028DBD161687B69AC
:101F2000CB603B690B61FF232870A870E8700B72CF
:101F30008872C872012101910090CDF8088008498B
:101F4000204600F05FF9C5E7C5F57F41F23109B2DF
:101F5000204600F071FE0028BCD1D7E70402002023
:101F6000180200200A4604300321FFF73DBF0A464D
:101F700004300B21FFF738BF30B5134B1B686BB92A
:101F8000124A1268EAB192F82B1001F005010529F6
:101F900017D15168002918BF134612E093F82B405F
:101FA00004F00502052AE9D15A68002AE6D0016842
:101FB0009D684A402A4204D0A207DFD4DA689142E1
:101FC000DCD1184630BD00BFE8360020EC360020DA
:101FD0002DE9F84F476897F800904FEA1913042B42
:101FE0000546884605D0284600F034FE0020BDE8AE
:101FF000F88F7888FFF744FC2B8909F00F0983429A
:102000004FEA8909044603D90146284600F0D6FE66
:102010006B894B45E7D32B89A342E4D3B9F1130F66
:10202000E1D93B69474C636103F0F003FA68226130
:10203000E02B39D198F82B30DA0703D5D8F80430E3
:10204000002B55D100264146206900F0ECF800280D
:10205000C9D1236903F0F003E02BC4D0002EC2D015
:10206000FB8823F0C00333B1284600F085F905460C
:102070000028BBD04768A76084E840013B7803F0A4
:102080000F039B00C9F100012846A38100F0D4FD95
:102090007B7A062B3AD0112B2CD0012B3BD1414619
:1020A0002846FFF7DBFE29E0DFF89CB046464FF0FC
:1020B000010A96F82B30DB0704D4BAF1000F0DD1DA
:1020C00036680DE07368002BF7D060698342BAD0A0
:1020D000314600F0A8F80028EFD0B4E7DBF8006044
:1020E000464508BF36684FF0000A002EE1D1A9E747
:1020F0004646A8E74146284602F014FE0023236026
:102100006360A360A381236163616FE74146284652
:1021100001F09CFEF2E73146606900F084F868B98E
:10212000636903F0F003E02B08D04946284600F02D
:102130008AFD6F6002212846FFF714FF284600F051
:1021400089FDDBE704020020E83600202DE9F34793
:102150000C9F064689469A461546002A3FD0142110
:1021600000F06AFD8046002845D174689DF82C3047
:1021700084F808A063722B682361452323709DF8BF
:10218000283063703089FFF77BFB84F8068084F881
:102190000780DFF86C806080B8F80000FFF770FB04
:1021A000B8F80030A0800133A8F80030B9F1000F72
:1021B00012D1124B1B68E3600023A372E3727B8C85
:1021C0009BB132899A4210D92A463946304600F0EE
:1021D00037FA02B0BDE8F087D9F80030EBE7436882
:1021E00002AD1B6945F8043DE9E77B692A463146A3
:1021F00038469847EDE76FF00100EAE7746200089F
:102200007E010020F0B4069C9DF810509DF81460EB
:102210001AB109B10F6807B9211D069405960495F6
:10222000F0BCFFF793BF431E033311D891F82B3056
:1022300013F002030ED04A6890420BD08B684240E4
:102240001A4207D1DB4383430CBF012000207047B3
:10225000012070470020704710B50446406908B15E
:1022600000F0F8FC21460520BDE8104000F0EABB74
:102270002DE9F041466873689A8804460F4662BBB0
:102280001A68426000F11C0100F1080252F8040BC8
:1022900043F8040B8A42F9D101213046FFF767FE6B
:1022A000304600F0B4FD0546304600F0D3FC6668C9
:1022B000AEB9114A13689C42236818BF3B6021469F
:1022C0004FF0040008BF136000F0BCFB0B4A1388FA
:1022D0005B1B13802846BDE8F0810025E7E77368A3
:1022E0003046D3F8008000F092FD05443046ADB290
:1022F00000F0B0FC4646DBE78401002080010020AE
:102300002DE9F041DFF86C8006460F4600250024D9
:10231000D8F800302146A646204653B910B1FFF741
:10232000A7FF0544BD4201DA012CF0DC2846BDE8D8
:10233000F081D6F80CC05A69624509D1D6F810C0B0
:102340009A69624504D1B3F80CC0B288944508D0AC
:10235000013460B1C27F93F81FC094459CBF7146A1
:1023600018461A68002A18BF9E461346D5E77146DC
:102370001846F6E7840100202DE9F74F44682378DA
:1023800003F00F03052B054640F08B80E088AA4E32
:10239000FFF776FA01906088FFF772FA83462846C5
:1023A00094F8008000F033FD338803440A2B814603
:1023B0006EDCA24FD7F800A0BAF1000F76D104204E
:1023C00000F030FB824658B949462046FFF798FF97
:1023D000814566DC042000F025FB8246002860D0A1
:1023E00020220021504603F0FDFA03228AF81F2024
:1023F0003A68CAF80020C7F800A022460AF108018E
:1024000004F1140052F804EB41F804EB8242F9D1D4
:1024100032889144A6F80090E28893060ED49AF888
:102420001E20019B08F00F08ABEB880B42F0010265
:102430000BEBC3038AF81E20AAF81C30D5F80480E1
:10244000B8F80200FFF71CFA98F8004004F00F04F7
:10245000A0EB8404B8F80600FFF712FAC0F30C00F2
:10246000C000A4B26968DAF804C08880044400227D
:10247000A4B20A704A708A70CA70CC800123BCF181
:10248000000F26D1002A40F08880CAF8045031E0BD
:1024900001462046FFF734FF18B133884B440A2B1E
:1024A00087DD284600F0D6FB002464E0E268DAF815
:1024B000141091420AD12269DAF81810914205D11C
:1024C000BAF80C10A288914200F09580DAF800A0CA
:1024D00072E7DCF80480B8F8049048454FD2C1F8A0
:1024E00000C0002AD1D0B2F806C0844564D84C455B
:1024F00062D815609AF81E2012F001043BD0002B20
:10250000D2D0DAF80440002C35D06468A288002AC2
:10251000CAD10A68002A46D1BAF81C2025681432AC
:10252000AAF81C2021460AF108020AF11C0052F800
:1025300004EB41F804EB8242F9D1BAF81C00FFF732
:102540009FF900226080A271E271A272E272DAF851
:102550000440002D37D13A68924546D1DAF8002080
:102560003A605146042000F06DFA204600F04FFC1E
:102570003388181A3080204603B0BDE8F08F1BD096
:10258000B8F806C0844517D81AB1D2884A4518BF92
:102590000023D8F800C0424671E7D4881560A042F5
:1025A00018BF0023A6E75068C988828891427FF44B
:1025B0007BAF02680146ADE7284600F028FC33886F
:1025C000181A30806DE7D5F804806FF013012846A3
:1025D00000F032FB2946204600F026FCD8F80050D7
:1025E000B7E711688A4523D00A46002AF9D1DAF8FC
:1025F00000301360FFDEE088FFF742F9C0F30C0003
:1026000000287FF405AFBAF80E00FFF739F9C0F3E0
:102610000C0000283FF4FCAE22460AF1080104F148
:10262000140052F804EB41F804EB8242F9D1EFE6D2
:10263000DAF80010116094E7800100208401002086
:102640002DE9F04FB1F822808BB00823A8F11408CF
:1026500098FBF3F81FFA88F30693436808921E78F4
:10266000029306F00F06B600142E07468B4604D0E0
:102670006FF005000BB0BDE8F08F029BD888FFF724
:10268000FFF8C0F30C0310F400540493F0D13D891B
:102690001FFA88F8143D4FEAC803ADB207930DB98D
:1026A0002846E7E7079BAB42A8BF2B469BB2002218
:1026B00014210220059300F0F5FA804618B3029B1E
:1026C00042681946143153F8040B42F8040B8B424C
:1026D000F9D1D8F80430DDF814900393B9F1000F64
:1026E00038D07C89A41BA4B24C4528BF4C4614B9F1
:1026F0003F680026F2E7052000F094F9824628B9E9
:10270000404600F0A7FA4FF0FF30B3E701947B6832
:1027100033440093022203462146042000F061FA6C
:1027200020B95146052000F08DF9E9E709903846B7
:1027300000F075FBA9EB04091D4BCAF81470CAF828
:102740001030099940461FFA89F900F06DFBB9F184
:10275000000FCDD1049BC3F30C00BBF82230133B18
:102760009D42A8BF40F40050FFF78AF8039BD88031
:10277000059B03F1140080B2FFF782F8039B4FF032
:10278000000258809A72DA724146DBF81430089AD7
:1027900058469847404600F05DFA059B069AED1AA8
:1027A000049B134426449BB2B6B2ADB2049376E7C1
:1027B000592200080B4B0C4A23F00303002113603D
:1027C00059804FF4C862197108491A809818A3F803
:1027D0004026A3F84226064A0860012183F84416E1
:1027E000136070471F0200208C0100209001002020
:1027F00088010020F0B5002838D01D4B1B68984296
:1028000034D31C4A1568A84230D2002200F8042CA8
:10281000194A30F8084C1168A0F108068E4203EB03
:10282000040138BF16608E420ED00F7967B98D4211
:102830000AD01568A942195B20F8081C195B08BF6B
:1028400016601944F41A4C8030F8061C5C18A64235
:102850000CD0257955B91568AE4208BF146030F820
:10286000082C5A5230F8082C13445980F0BD00BF90
:102870008C010020900100208801002003314FF6D8
:10288000FC730B400B2BF0B504D9B3F5C86F02D91C
:102890000020F0BD0C23214A12688242F9D8204959
:1028A00009688842F5D2A0F1080130F8085C891A5D
:1028B00089B2A5F10804641AA4B29C42E8D3E8D016
:1028C00056193779C7B9575B164D01F108042344EF
:1028D0002C689BB2A64202EB030408BF2C600025C3
:1028E0002571D752618020F8083CD15AB1F5C86FE4
:1028F000CFD00A445380F0BD03F11406A642C8D8D5
:10290000084E01F10804234437689BB2D418BC4236
:1029100038BF346000262671D552E3E78C010020D1
:1029200090010020880100202DE9F04348B10330D8
:102930004FF6FC7303400B2B05D9B3F5C86F03D9D1
:102940000020BDE8F0830C23224C234D2768296822
:102950007A1A92B2C3F5C8686FF007094245EFD200
:10296000881831F802E090F804C0BCF1000F2ED1B5
:10297000A9EB02067644B34229D803F11408464570
:102980001FD3083313449BB2CE1886F804C021F835
:1029900003E07280012203800271CA5AB2F5C86F47
:1029A00001D011444B80874208D10C4B29681A682A
:1029B00003461D790DB1934206D123600830BDE86E
:1029C000F08301230371EEE71B880B44F1E77246A5
:1029D000C4E700BF880100208C0100209001002086
:1029E0004368816830B50022033344880A6023F0CD
:1029F0000303A24200DB30BD0D681D6005880B603B
:102A000001322B44F5E7000038B5054D002455F898
:102A100024000134FFF7E4FF082CF8D138BD00BFD3
:102A2000D8620008072808D8054B53F820309B6867
:102A3000186818B102681A6070470020704700BF1C
:102A4000D8620008072807D831B1044B53F820306A
:102A50009B681A680A601960704700BFD862000856
:102A600090F82B301B07014602D50431FFF780B8E0
:102A70007047704773B505460C46B9B10B680193B2
:102A8000019A6B689A420FD02E1D01A9304600F0C2
:102A900049FD01A9304602F0EFFA04B124686C60E8
:102AA00014B12846FFF7DCFF02B070BD014B1B6874
:102AB000E5E700BF7462000870B5064615461C467F
:102AC00009B10B684BB93046FFF7D4FF05B12D684B
:102AD000B56004B12468F46070BD02B11568B560DA
:102AE00004B12468F4603046BDE87040FFF7C2BF0F
:102AF000F8B50326114F80F82060069EC6613E7827
:102B000080F82E60002506F1010E089E45600446FF
:102B10008560C56080F82B50066187F800E0FFF7FC
:102B2000CBFF2046079B984728B9054B1A682260BF
:102B30001C602046F8BD2C46FBE700BFB401002016
:102B4000E8360020014B1860704700BFEC360020CB
:102B500090F82B20D10709D442F00101520780F8E8
:102B60002B1003D543680BB1FFF77ABF704790F87D
:102B70002B30D90707D523F001011B0780F82B1054
:102B800001D5FEF74FBF7047002930B506DA4C4239
:102B90004389A4B2A34202D2012030BD8CB2057B8E
:102BA00043680DB1032D0ED15B1A00F11002934260
:102BB000F2D34360438989B20B44438103891944AA
:102BC0000181002030BD013D012DE5D8002904DA46
:102BD0004289A242E0D35B1AEBE7DDD0002AFAD1AA
:102BE000DAE770B5049D042824D8DFE800F01F035D
:102BF0001B1D1D0022240334BDF8140024F003041F
:102C00000E1986424FF0000015D8186085B12C448B
:102C10005C6002201A730122587319815981DA818C
:102C2000184670BD0E24E6E70024E4E73624E2E708
:102C30005D60EEE7002070BD19B110B10022FFF712
:102C4000A3BF0020704719B110B10122FFF79CBF4C
:102C50000020704738B5014610B30024E0B201B936
:102C600038BDCB89013B9BB2CB81CBB94B7B0D6887
:102C70009B0705D50B690846984701342946EDE7BF
:102C80000B7B032B03D10720FFF7DCFEF5E7013BAD
:102C9000012B01D80620F7E70846FFF7ABFDECE76C
:102CA00038BD00002DE9F8430E461746042845D8E4
:102CB000DFE800F00E030A0C0C002225032F3DD89C
:102CC000DFE807F0546D6D080E25F7E70025F5E7FE
:102CD0003625F3E70720FFF7A5FE044628B9364B53
:102CE00001221A702046BDE8F883032243191544D7
:102CF00025F00305C5F51475133323F00303B5421E
:102D000028BF3546002743600123458102730760D1
:102D10000681C381751B81469046002D04DC01238A
:102D2000E38100236373DDE70720FFF77BFE38B9FB
:102D3000214B012220461A70FFF78CFF0024D1E7B7
:102D4000ABB200F11002B3F5147F80F80C8047732A
:102D50000760C9F800000381426028BF4FF4147374
:102D600001224381C281ED1A8146D6E705F11300A5
:102D7000F31C23F0030320F00300184480B2FFF794
:102D8000D3FD04460028D9D005441335002325F08F
:102D9000030545600681468103600373BFE7062093
:102DA000FFF740FE04460028C8D000234360068198
:102DB000468103600773B2E7F036002038B5038917
:102DC0008B4204461BD90D46CB1A61898D4217D818
:102DD000237B63B98D420AD0637B9B0707D461686C
:102DE000091B2944204689B2FFF748FD04462068A4
:102DF0006581258108B1FFF72DFF0023236038BDD1
:102E000022896D1A1A442281ADB22468DDE7034697
:102E1000002290B2013203B970471B68F9E710B184
:102E2000C3890133C381704710B550B109B910BDD2
:102E3000204603890A89046813440381002CF7D1D2
:102E4000016010BD10B5FFF7EFFFBDE81040084668
:102E5000FFF7E5BF2DE9F0410C46054618B96FF0C4
:102E60000F00BDE8F0810029F9D002890B899A4250
:102E7000F5D34FF00008474663896E89616868683A
:102E8000F61BA3EB08039E42ACBF9EB2B6B232461D
:102E90004144384402F09BFD374462896B894644C3
:102EA0001FFA86F84245BFB29CBF24684FF0000865
:102EB0009F420BD12D6845B9002CD0D12046BDE8EA
:102EC000F0816FF00500BDE8F081002734B1628920
:102ED00023899A4202D12368002BF2D16A892B8977
:102EE0009A4202D12B68002BEBD1002CC4D1E5E72C
:102EF0002DE9F041884614460546C0B1B9B10389B1
:102F0000934218D3002614B92046BDE8F0816F899A
:102F10006868A74228BF274608EB06013A46E41B2B
:102F20003E4402F054FDA4B2B6B22D68EBE76FF058
:102F30000F00BDE8F0814FF0FF30BDE8F081704731
:102F400030B5C16A058D446A02466B1A1819538E52
:102F5000B3F5866F94BFC31AA0F58663002B01DB1F
:102F6000558530BD631A002B4FF00000D6BF091BFA
:102F70005085518530BD038D194489B2B1F5066F76
:102F800010B5044611D94FF4066323852046FFF798
:102F9000D7FFB0F5067F11DBA37E43F00203A376D3
:102FA0002046BDE8104001F0C7BC037D09B1218572
:102FB000ECE7072BE7D0092BF9D1E4E710BD10B5FA
:102FC000044648B1406808B1FFF744FE214603209B
:102FD000BDE81040FFF736BD10BD10B500B910BDFB
:102FE0000468FFF7ECFF2046F8E738B504460320F5
:102FF000FFF718FD054660B120462B4604F110028C
:1030000050F8041B43F8041B9042F9D16868FFF79D
:1030100006FF284638BD38B5037D012B044619D973
:103020000A2B17D0406F18B1FFF714FE0023636717
:10303000206FFFF7D2FF00254FF6FF732386A06EA7
:103040002567FFF7CAFFE06EFFF7C7FFA566E566D5
:10305000A4F8645038BD03688B4210B50C4619D1F2
:10306000CB6803600023E3602046FFF7D4FF237D95
:103070000A2B0AD0012B08D0A37EDA0705D543F02E
:103080000203A376204601F057FC00232375E38258
:1030900010BD1346002BE5D0DA689442F9D1E268FE
:1030A000DA60DFE737B5037D044600293FD0042B03
:1030B00001D0072B3BD1626F1AB9228DB2F5066F92
:1030C00035D0238B0193E38A00932246231D616A46
:1030D000E06C01F073FD2046FFF79DFF434A136843
:1030E0009C4215D1E3681360414B01221A70237D85
:1030F0000025042BE56013D10A2323753D4B1A6884
:10310000E2601C6001F00CFE002003B030BD1346ED
:10311000002BE9D0DA689442F9D1E268DA60E3E79B
:10312000354B1B689C4221D101F0D6FAECE7072B06
:10313000EAD801A252F823F0593100088931000879
:10314000B7310008C9310008C93100080931000849
:1031500009310008DF310008E38A3BB1274A1368D0
:103160009C4209D1E36813600023E36021460120FB
:10317000FFF768FCC8E71346002BF5D0DA689442E5
:10318000F9D1E268DA60EFE71D4A0123002152F825
:10319000230005684DB90133042BF8D121461948A5
:1031A000FFF759FF21460220E2E7A86F844208BFDB
:1031B000A967ED68EEE721460C48FFF74CFF0C4B82
:1031C000012018702146D3E7204601F05DFB00285E
:1031D0009BD105232375204601F0AEFB94E72046E2
:1031E00001F052FB002890D10923F3E7F8360020C4
:1031F000F4360020083700200C3700200437002068
:10320000F862000800370020037D012B1EBF837E7B
:1032100043F0100383760121FFF744BF10B5084641
:1032200014463AB11189FFF7A6FE2046FFF712FDBA
:10323000002010BD002BFBD1BDE81040FFF7E4BF1C
:10324000F8B5466FD0F88050777B0023044643677B
:10325000DDB1014632460069A8470546E0B9BB0624
:1032600011D5238DD4F88060B3F5066F1CBF0133F0
:10327000238546B100231A4621462069B0470D3008
:1032800001D16FF00C052846F8BD01462B463246A9
:103290002846FFF7C3FFE0E710F10D05F1D06667A0
:1032A0006FF00405EFE70000037D0A2B2DE9F347DB
:1032B00004460E460AD101462A48FFF7CCFE2146B5
:1032C000012002B0BDE8F047FFF7BCBBD0F84C903E
:1032D000D0F824A0D0F88C70D0F81080C58A9BB9A3
:1032E0003DB1214A1368984206D1C3681360002596
:1032F000E5602E460FE01346002BF8D0DA689442C2
:10330000F9D1E268DA60F2E701461848FFF7A3FE58
:10331000174B01221A70E06E08B1FFF75EFEA06E37
:1033200008B1FFF75AFE206F08B1FFF756FE46B10D
:10333000238B01930095231D22465146484601F0F8
:103340003DFC21460120FFF77DFB3FB16FF00C01F2
:1033500040463B4602B0BDE8F047184702B0BDE822
:10336000F08700BF0837002004370020F83600201F
:10337000F43600200121FFF797BF38B5054601B9A3
:1033800038BD0A682B68CC689A4202D10846FFF71C
:10339000F1FF2146F3E700000C4B19680C4B30B4E9
:1033A00000241D68224621B972B1104630BCFFF7D7
:1033B0007BBF0B7D834205D10B6AEB1A9C429CBFFD
:1033C0001C460A46C968EEE730BC7047F836002054
:1033D000FC360020034B044A186812681044186039
:1033E000704700BF00000020FC360020F8B50646FC
:1033F0000120FFF717FB3D4D044690BB3C4B28686E
:103400001B682146002B5CD114B12046FFF7B2FFA8
:103410000120FFF707FB044618BB0920FFF7BCFF9C
:103420000120FFF7FFFA0446D8B90820FFF7B4FFE0
:103430000120FFF7F7FA044698B92E4BD5F800E0C3
:103440001B6816F0800F0CBF31467F21002B40D146
:1034500014B12046FFF78EFF0120FFF7E3FA044680
:1034600068B398220021204602F0BCFA4FF486632C
:10347000A4F860304FF4066363852385FF23A372AD
:103480004FF4067363860623A4F84030E3874FF6B3
:10349000FF7323860123A4F848306675FFF79AFF6F
:1034A0002B682362144B60651B786377134BC4F859
:1034B0008030134BE0646064A065C4F8903020460F
:1034C000F8BD1A6A821A8A4224BF1C461146DB687C
:1034D00098E75F7D8F4207D81A6AAEEB02028242FC
:1034E00022BF394610461C46DB68AFE7FC36002099
:1034F00008370020F8360020B50100201D320008F2
:1035000000DD6D0010B504460846FEF735FD30B10C
:10351000438C23B1283B9BB29C4228BF1C462046CB
:1035200010BD000038B50D46044680B1036873B184
:103530000C4B1968FFF721FF0B4B20461968FFF76A
:103540001CFF25B12B6813B1084B1B6803B938BDAC
:1035500018682168DA68884204BF29681960134630
:10356000F4E700BFF83600200437002000370020C1
:103570002DE9F041C368054698890C46FEF780F9AD
:10358000C20715D4184EBCB1E76830682B8979683A
:10359000228903440A449A1A002A10DA5B1A002B83
:1035A0000ADD091A89B229816868FFF707FC03E080
:1035B0002046FFF712FD00242C60BDE8F081B88999
:1035C000FEF75EF9C30709D5D5F80C800120B8F8DD
:1035D0000C70FEF755F93843A8F80C002768204610
:1035E000FFF7EDFC3C46CEE7DC0100202DE9F0477B
:1035F000A94BAA4E1B7813F0100F044674D0236D0C
:103600003568007DB4F85C20616D5F1B002FA44F0E
:103610000DDBAB4203D13B68CB1A002B07DB3B68C9
:1036200099421FD19F4B1B68DB8993421AD99D4B4E
:10363000B4F85EC01B68B3F80EE02565F4453D683C
:1036400065657346A4F85CE038BFA4F85EE094F8C2
:103650009550002B40F0158125B984F894E00123A2
:1036600084F895303B68D4F844E0A3EB0E05002DB8
:103670008D4D00F31F818D480088002840F086831F
:103680000A44606DB4F85C1001448A4240F07E83C5
:10369000B4F93020002AC0F27983734540F0768374
:1036A00094F84320531CDBB29A4238BF84F843306D
:1036B00094F84330032B40F2E980B4F84820638E3D
:1036C00013449BB29A4201D2A4F84830A36E002B57
:1036D00040F06181B4F860302A881344626BA4F82A
:1036E0006030002A40F09781704F626A3888002865
:1036F00000F04083237D062B00F23C833368A2EB6D
:10370000030EBEF1010F00F1B381C3F10101091AEB
:103710001144002900F3AC81654D686843899E45DA
:10372000714640F3A28103895B1A9BB24FF0000EF1
:103730004289914200F39381494209B2FFF77CFA32
:1037400029893368626A32600B449B1A2B81EB68CB
:103750005A603168626A8B1A002BC0F206834B1CD8
:10376000208D9B1A1B1A002B00F3FF82914240F020
:1037700033824F4DEB68B5F808809889FEF780F8E2
:1037800010F0030018BF01204044238D80B2834213
:10379000388034D2EB689889FEF772F8C20710D5EA
:1037A000D5F80C90B9F80C804046FEF769F800F0A7
:1037B0003E00FEF765F828F47C5840EA0808A9F8AE
:1037C0000C80238D2B81EB689889FEF759F88307CD
:1037D00048BF2B89686844BF03F1FF332B812989D7
:1037E000FFF7ECFAEB68B5F808809889FEF748F81F
:1037F00010F0030018BF01208044A7F80080236F59
:10380000002B00F04481EB689889FEF739F8C00777
:1038100000F13A81D4F87080B8F1000F2ED0D8F8BA
:103820000CE030683B88DEF80420B8F80810034448
:103830001144591A002980F25A819B1A002B1DDD70
:10384000EB68121A2A819889FEF71AF8830748BF95
:103850002B89686844BF03F1FF332B812989FFF767
:10386000ADFAEB68B5F808909889FEF709F810F002
:10387000030018BF01208144A7F80090C4F87080AD
:1038800005E1002D3FF4EEAE0023E9E67FF41EAF24
:10389000204601F01BFA19E7BC010020DC010020E2
:1038A000B8010020E4010020D0010020F201002036
:1038B000C0010020E26C9A1A002A68DCA27EB4F9EA
:1038C0003CE06364510741BF22F00402A276B4F8E1
:1038D0004A20A4F84820E28F002102EBEE020328E0
:1038E00084F84210A4F8402084F843100FD9B4F8AB
:1038F0004820B4F84A309342638E9CBF5B4393FBED
:10390000F2F313449BB29A4201D2A4F84830E36E1A
:1039100043B9E26E0023002A37D14FF6FF722286A8
:10392000E376D3E6DB685868FDF7ADFFE36EB3F8E6
:103930000880DB6881469889FDF7A2FF3B6810F09C
:103940000300A8EB030818BF0120C8448044B8F165
:10395000000FDEDCD4F86C80D8F80030E366D8F8CD
:103960000400FFF754FAD8F80400FFF750FAB4F84F
:1039700062302A88181AB8F80830A4F86200134494
:1039800040462B80FFF71BFBC1E72386C8E7204694
:1039900000F09CFF9AE6DB68D7F800805868FDF7D6
:1039A00072FFA36EB3F808A0DB6881469889FDF723
:1039B00067FFA8EB0A0810F0030018BF0120A8EB6E
:1039C0000908A8EB0008B8F1000FFFF683AE3B68CA
:1039D000E26C9B1A002B3FF77DAED4F86880D8F8D4
:1039E0000030A3660BB9A4F86430D8F80400FFF7E0
:1039F0000EFAD8F80400FFF70AFAB4F862302A8801
:103A0000181AB8F80830A4F86200134440462B8016
:103A1000FFF7D5FA5AE6A36B39685B1A002BBFF69D
:103A200063AEA04BB4F93C001968891AA1EBE00120
:103A300089B20BB2002BB4F93E200844BCBF494206
:103A40000BB2A2EBA202134400B29BB2E38703EBDA
:103A5000E003A4F840300023A087636344E60381B9
:103A6000A0F80AE0891A006862E6CEF1000164E677
:103A70009B1A002BBEBFA37E43F00203A37668E629
:103A800003682367FFF79BFA206F0028F8D1398875
:103A9000238D32685B1A0A44626223852046FFF751
:103AA0004FFA6B681A891AB17F4A136000236B6062
:103AB000EB687D4F9889DFF8F481FDF7E1FEC507DB
:103AC00041BF7A4A137843F0200313704FF0000986
:103AD000256F25B1E968626A4B68934232D0A37EB4
:103AE000D90774D523F0010343F0020371E0BEF857
:103AF0000C00FDF7C5FEC1071DD5EB689889FDF7E1
:103B0000BFFE820717D4D5F80CA00120BAF80C909C
:103B1000FDF7B6FEEB6849EA0000AAF80C009889A8
:103B2000B5F80890FDF7ACFE10F0030018BF0120B7
:103B30008144A7F80090D8F800904046FFF73FFA7C
:103B4000C84669E633608889B5F808A0FDF798FE95
:103B5000636A10F0030018BF012053441844EB6857
:103B600060629889FDF78CFEEB68B5F808A098892B
:103B7000FDF786FE10F00300238D18BF012050448E
:103B8000181A20852046FFF7DBF969680B892BB1ED
:103B90003868D0B1FFF748F9C5F80490EB68988908
:103BA000FDF76EFEC0070AD598F8003043F02003F9
:103BB00088F80030237D042B04BF072323752B686E
:103BC00023672846FFF7FBF982E73960E4E743F013
:103BD0000103A376BDE8F087204600F077FE256F4D
:103BE0002DB93348FFF701FA2067BDE8F087336845
:103BF0004FF0000803F1FF3E03F1010CE868426852
:103C00009A4218D12A482B8902899A4240F2C280EE
:103C1000FFF7EBF9002800F0BD80B8F1000F08D0E5
:103C2000C8F800002946BDE8F047FFF7A1BC0D46E3
:103C3000E4E72067F6E7B8F1000F0AD1991A0029E6
:103C400038DA1B48FFF7D1F9002800F0A38020677D
:103C5000E8E7D8F80C104968AEEB0101002929DB30
:103C6000ACEB0201002925DC1148FFF7BEF9044640
:103C7000002800F08F80D8F80C3031685A68B8F806
:103C8000083013445B1A002B07DD891A89B2A8F8A3
:103C90000810D8F80400FFF791F8C8F8004029464A
:103CA0002046C0E7FC360020D4010020D8010020C7
:103CB000C00100202968A8460029B8D19B1A002B12
:103CC00068DD8089FDF7DCFDC20763D43248FFF769
:103CD0008CF9286000285DD0EB6831685A682B8920
:103CE00013445B1A002B05DD891A89B229816868A3
:103CF000FFF764F832683B881344626A9B1A228D8E
:103D00009B1A002B46DD2B68DB689889FDF7B8FD10
:103D1000C30711D52B68D3F80C90B9F80C80404636
:103D2000FDF7AEFD00F03E00FDF7AAFD28F47C583B
:103D300040EA0808A9F80C80218D32682B68891A9E
:103D4000626A5868114489B21981FFF737F82B6805
:103D50001C89DB689889FDF793FD10F0030018BFFC
:103D6000012004443C80BDE8F0872046BDE8F047D0
:103D700000F0ACBD3368991A002905DB01339B1AAA
:103D8000228D9B1A002B05DDA37EADE6002384F86F
:103D900043309BE4BDE8F087C00100200B4B0C4A88
:103DA000196810B521B10B4813880088834207D2E7
:103DB000094B11881B680B44481C1080187D10BDEE
:103DC0005C1C1B1ADBB21480C85C10BDEC01002027
:103DD000E0010020E8010020E4010020F8B5194DC1
:103DE000194E002307462B8034882B88A34200D32A
:103DF000F8BDFFF7D3FF0128F6D0F9D3022817D179
:103E0000FFF7CCFF0428F3D12B880133A342EFDA6C
:103E1000FFF7C4FF000284B2FFF7C0FF204380B267
:103E2000431EB3F5067F28BF4FF406703880DBE7EA
:103E3000FFF7B4FF0128DBD92B88023B1844288008
:103E4000D2E700BFE0010020F00100202DE9F04F93
:103E5000A94D43682B604389132B89B0814640F2FA
:103E60004481A64E31687069FEF7DDF904460028EA
:103E700040F03B81736903F0F003E02B00F03581E3
:103E80002B689889FDF7FCFC810A01F0FC011329DD
:103E900040F22B81B9F8083089B28B42C0F02581FD
:103EA000B9F80A20DFF88482954FA1F114039BB280
:103EB0008A423C60A8F80030924C4BD349424846B5
:103EC0002380FEF7B9FE2C68DFF868B22088DFF89F
:103ED0006882FDF7D5FC20802C686088FDF7D0FC57
:103EE00060802C686068FDF7CEFC60602C68CBF8C1
:103EF0000000A068FDF7C7FCA0602C68C8F80000AF
:103F0000E089FDF7BDFC2B68E08198897E4CFDF7C8
:103F1000B7FC7E4A24680694C3B203F03F011170D7
:103F2000B9F808207A483469079413F0030118BFE0
:103F30000121114489B22F68D6F814A0069C05927D
:103F400001804FF0000ECDF80C8004902CBB71481E
:103F50000068F6E06FF013014846FEF76DFEB9F811
:103F60000A102180B8F80040641A494209B2484654
:103F7000FEF762FED9F800004389A4B2A342C0F064
:103F8000B480614243683B6009B2FEF755FEB9F860
:103F900008301C1BA9F8084095E7B4F818C0388809
:103FA000844569D1B4F816C07888844564D16268C4
:103FB0000798824260D1206850455DD1E168BEF12A
:103FC000000F05D0CEF80C100699E1604E490C6048
:103FD0005148524EC760DFF86481514FBDF814203C
:103FE0000281002113F0080F3960BA460160C0F861
:103FF00004903170A8F80010074605D099F80D30EC
:1040000043F0010389F80D30636F002B40F01681F7
:10401000444B3E491C600B7813F0040F894640F076
:10402000288113F0020104D0207D0238012800F21B
:104030003C81A07EC0065EBF3B4800682062002035
:1040400084F896003948008838B104F132000691AE
:104050000593FFF7C3FE0699059B207D02380728CC
:1040600000F29281DFE810F02601A4011502190286
:10407000630215027C029C02A646E46866E7048B94
:10408000B7F800C0A4455BD1C48AB7F802E0A645E2
:1040900056D14468079AA24252D10468A2454FD132
:1040A0005E0722D49D0714D5DBF80040436AE31A6B
:1040B00014D4028D9B1A002B10DC1D4BCDF804C0CC
:1040C000CDF800E01A1D21440398006800F076FD49
:1040D0000BE0DC0742BF144B1B68036229B1837EEF
:1040E00043F00203837600F027FC484609B0BDE8A0
:1040F000F04FFEF7AFBD00BFE40100200402002036
:10410000EC010020E8010020F8360020BC0100206E
:10411000F201002008370020C0010020D801002053
:10412000D40100200C370020FC360020F0010020D4
:1041300014020020DC010020B8010020D001002082
:10414000C06800289BD1A44CD4F800C0644674B960
:10415000B889FDF795FB4307C7D42B68049ADBF8B1
:10416000001010881A8801925B880093A0E2B4F8CE
:1041700016E0B7F80280F04508D1D4F80080C245B7
:1041800000F08382B8F1000F00F07F822046E468DF
:10419000DDE79F07A9D5607DFFF728F9074640B9FD
:1041A000A369002BA1D001464FF0FF322069984748
:1041B0009BE773690360296833694360E38AC382BC
:1041C0000B78497843EA0123038303230375DBF863
:1041D00000305A1C013B036523694262C2620361DD
:1041E0008467237A03F00C0303727C4B1A68C26065
:1041F000186000F095FD7A4B01221A70794B1B88EC
:104200001BB107F13200FFF7E9FD2B68788EDB89DF
:10421000A7F85C30391DA7F85E30A7F84A30FFF7E1
:1042200071F912217886384600F0E2FA20B10021B7
:104230003846FFF739F858E7384654E72046FEF786
:10424000FFFF0D3008D0636F002B3FF4E1AE664BEB
:104250001B88002B3FF4DCAE644B786800241C60A4
:10426000CAF8004010B1FEF7F5FC7C6009B0BDE86B
:10427000F08F237D022B0DD15D4BE26C1B689A42BF
:1042800040F08280337843F008033370A37E23F03C
:1042900001030DE0574B626A1B689A42F2D09B1AE9
:1042A00072D4228D9B1A002B6EDCA37E43F0020396
:1042B000A37669E003F0120112294ED14C48616CDB
:1042C00000680131814248D1DBF8003061645A1C3A
:1042D0006262E2622A68608ED289A4F85C20013BA7
:1042E00023650423A4F85E202375E118FFF70AF97B
:1042F000B4F85C30A4F84A3041F21C1243009342F7
:1043000038BF134660868000834228BF0346A4F866
:104310004830B4F86230E06E013BA4F86230A0B9D6
:10432000A06E0368A366FEF74AFEE36E83B94FF6FC
:10433000FF732386D4F88430002BB6D000222146A8
:10434000206998470D30B0D186E70368E366EAE755
:104350000023238684F84230ECE7DA0614D52B6874
:10436000049ADBF8001010881A8801925B88009389
:104370000144214B03981A1D006800F01FFC002324
:104380002386204600F062FC33781D0740F11F8130
:10439000D4F88C301BB16FF00D012069984721468D
:1043A0000E48FEF758FE21460120FEF74BFB53E76F
:1043B000DB0661D50E4B1868636CDB43C3424CD4FB
:1043C000E36CC31A002B48DC04232375A36FABB93D
:1043D0002046FEF7CFFF3FE700370020F8360020E9
:1043E000F4360020F0010020F20100200C370020FC
:1043F000B8010020DC010020140200209B69002B82
:10440000E6D0002221462069984710B10D30DFD157
:1044100022E72046FFF7EAF8B4F85C30A4F84A3007
:10442000B8F8003013B1013BA8F80030628E41F2B9
:104430001C1153008B4238BF0B469200934228BF99
:104440001346A4F8483033789D069DD5A37E43F0EB
:104450000203A3760723237596E72B68049ADBF8FB
:10446000001015881A8801925B880093924B2944AA
:104470001A1D00F0A3FB87E7002985D08F4A636AE5
:104480001268013B93427FF47FAF204600F0F7FBB8
:104490007AE72046FFF7AAF8D5E72046FFF7A6F807
:1044A000337813F0200F99F8003031D013F0100F4B
:1044B000A37E28D0824AE16C1268914223D1A26E79
:1044C0000ABB43F00203A3762046FEF7A4FD7D4A13
:1044D00013689C4209D1E368136008E0DA689442EB
:1044E00002D1E268DA6002E01346002BF6D1764B87
:1044F00001221A700A232375744B1A68E2601C604B
:1045000000F00EFC40E743F00203A3760823A2E785
:10451000D8067FF539AF6A4BE26C1B689A427FF48C
:1045200033AFA36E002B7FF42FAF062393E7204613
:10453000FFF75CF8337899067FF526AFA37E43F04A
:104540000203A3762046FEF766FD5E4A13689C428E
:10455000C1D0002BCBD0DA689442C2D01346F8E722
:104560002046FFF743F899F80030DA067FF50CAFE4
:10457000534BE26C1B689A427FF406AFA36E002B8C
:104580007FF402AF2046FEF746FD4E4A13689C4278
:10459000A1D0002BABD0DA689442A2D01346F8E742
:1045A0002046FFF723F899F80030DB067FF5ECAEE4
:1045B000434BE26C1B689A427FF4E6AEA36E002B7D
:1045C0007FF4E2AE337843F010033370DCE6B8F8E2
:1045D000002022B1E36F8BB90023A8F800303378B4
:1045E000D80611D5A37ED9063FF5D9AED4F88C30C4
:1045F000002B3FF4D4AE6FF00E01CEE621462069C9
:1046000098470D30E8D127E6DAF80020AAB1A37E5A
:1046100013F0100303D01046FEF71CFBD8E6D4F8C5
:104620008050D5B121462069A84710F10D0F3FF405
:1046300013AE10B1DAF80030636733789A0605D507
:10464000636F83B15A7B42F020025A73204A0023E1
:104650002046136000F070F9FEE52B4621462846FF
:10466000FEF7DCFDE1E7238DD4F88050B3F5066F4B
:104670001CBF01332385002DE8D000231A462146B4
:104680002069A8470D30E1D1E6E528B1E268C260B3
:104690001048C4F80CC0046058073FF526ADDA0690
:1046A0007FF577AD3B88DBF800000193CDF800E0A3
:1046B000014B01441A1D07E514020020DC01002013
:1046C000B8010020F8360020F4360020083700201A
:1046D0000C37002000370020024A137843F0100303
:1046E00013707047D80100202DE9F0479DF8209005
:1046F000804619F0010F4FF003000F4616469A4608
:1047000014BF04250025FEF78DF9044628B9384664
:10471000FEF7A0FA2046BDE8F08780F80A903B89B2
:1047200047605B1B4FF00009C0F800900381142123
:104730003846FEF781FA074620B12046FEF73FFCD7
:104740004C46E7E76368B8F81600D3F80490C4F85D
:104750000C90FDF795F8A9F80000B8F81800D4F807
:104760000C90FDF78DF8A9F802005046D4F80C80A3
:10477000AD08FDF788F8053546EA0535C8F80400A8
:10478000A8B2D4F80C80FDF77BF8E368A8F80C0019
:104790009F74DF74BEE71431F8B589B20546174639
:1047A00001200022FEF77EFA0646F8B14468E88A46
:1047B000FDF766F82080288BFDF762F8676060805F
:1047C000686AFDF760F8A06045F21000FDF758F840
:1047D000A081688DFDF754F8002323746374A374DB
:1047E000E3746A8D6B6AE0811344EB623046F8BD76
:1047F000B0F86230082BF7B504460D4601F0030609
:1048000009D9CA0707D4A37E63F07F03A3764FF0CC
:10481000FF3003B0F0BD05F00203002B4FF00002A3
:1048200014BF04211146104614BF01270027FEF7CC
:1048300039FA01460028E6D00097A36D2A462046A3
:10484000FFF752FF0028DED0A36EC3B9A066002395
:10485000A4F8643016B1A36D0133A365EB0742BF22
:10486000A37E43F02003A3764068FEF7D0FAB4F8A5
:1048700062301844A4F862000020CAE713461A68A0
:10488000002AFBD11860E2E7F8B5846E054634B91A
:1048900028460121BDE8F840FFF7AABF1C4623685F
:1048A000002BFBD1E3689889FCF7EAFF10F00707BB
:1048B000EED1E6680120B489FCF7E2FF2043B08125
:1048C000AB7E43F02003AB763846F8BD7FB5044697
:1048D000C06CFCF7D8FF002102462046FFF75BFFC3
:1048E000064640B9A37E43F00303A3766FF00105AB
:1048F000284604B070BD251D2846FDF73DFBA0B13C
:1049000006220192627A02900092A37A2A462146F8
:104910003046FDF777FC05463046FEF79BF9A37E4F
:1049200035B143F00303A376E2E76FF00305F3E745
:1049300023F00303F7E700002DE9F04F9D4B1B68C0
:10494000984287B0044638D0B0F84830B0F85C7070
:10495000856E9F4228BF1F46837E9A0710D52DB9CA
:10496000204607B0BDE8F04FFFF7B0BFEB685868CE
:10497000FCF789FF2B89626C9B1A18448742EFD39E
:10498000E66EEEB904F104094846FDF7F5FA8246F1
:10499000002800F0088123680BB943682360DFF822
:1049A00018B24FF00008002D70D1A36E0BB9A4F817
:1049B0006430A37E03F07F03A3760020F0E01E4660
:1049C0003368002BFBD1DDE72B68A366237D022B28
:1049D0001EBFA37E23F00303A376EB685868FCF7A1
:1049E00052FF2A89E968049205908889FCF748FFFC
:1049F000049A059B10F00300134418BF01201844CB
:104A0000E36CEA681B1A002B2B89B8BFE06404939F
:104A10009089FCF735FF049B10F0030018BF0120BC
:104A2000D8422FD0E36EC5F8008013B9E5662E4654
:104A300013E0EB685868FCF726FFF26804905068B2
:104A4000FCF721FF049B181A002819DA04F16C0303
:104A50001A6822B91A682A601D60A56EA3E7D26899
:104A600005935068FCF70FFFE96804904868FCF76D
:104A70000AFF049A059B101A0028EBDA1B68E7E787
:104A80003560D4E72846FEF79AFAE6E7EB685868FF
:104A9000FCF7F9FE2B89626C9B1A1844874284D379
:104AA000EB689889FCF7ECFEE36E93B1A27E12F0FE
:104AB000440F0ED1A36E2BB1196851B91989638EB9
:104AC000994206D2B4F860301BB1B4F86230082BBA
:104AD0006CD9237D022B0AD0EA68102093890493B5
:104AE0000592FCF7CDFE049B059A184390816B68F4
:104AF000DB89012B7FF468AFEB68606A0493FCF7F5
:104B0000C2FE049B9860EB68608D0493FCF7B8FECE
:104B1000049B628DD881636A1344E362AB7ADB073E
:104B20000CD5EB68049349464FF40670FEF7EAFC97
:104B300040F00170FCF7A7FE049B5861B4F93030D7
:104B4000002B636BB8BFA4F830803BB9DBF80030B2
:104B50006363EB685868FCF796FEA0636868EA68D0
:104B6000436841894260D31A9BB2C91A41810189C5
:104B7000CB1A038182F8108082F8118006220192FC
:104B8000627A0092A37ACDF808A04A462146FDF742
:104B900039FB00283FF418AFA37E63F07F03A376B0
:104BA00007B0BDE8F08F6FF00300F9E712F0A00F37
:104BB0008FD1FAE60C370020FC3600202DE9F04FAB
:104BC00085B081460D4690461421002201201F46E3
:104BD000BDF838B0BDF83CA0FEF764F8064690B3C7
:104BE00044685846FCF74CFE20805046FCF748FECF
:104BF00060804846FCF747FE60602846FCF743FEAD
:104C0000A06045F21400FCF73BFE08230025A373C7
:104C10006023A081E37325746574A574E574384638
:104C2000FDF7AAF948B10623029001930095FF23EE
:104C30003A4641463046FDF7E5FA304605B0BDE854
:104C4000F04FFEF707B805B0BDE8F08FC26E10B4A4
:104C500092B111460B686BB9846E0C60826690F855
:104C60004220C366013280F8422043635DF8044B62
:104C7000FFF762BE1946EDE75DF8044B7047F8B5E3
:104C8000C56E04469DB12B68C36600F168063368A3
:104C900073B933682B6035602B680BB9A4F86430A6
:104CA00094F84230013384F8423000236363F8BD46
:104CB000DB685868FCF7E7FDEB6807465868FCF7C7
:104CC000E2FD381A0028E4DA3668E0E7C36E10B572
:104CD000044623B3837E5B0721D4FFF7D0FFB4F8EB
:104CE0004830B4F85C2093428BBF52085B08A4F8AC
:104CF0004A20A4F84A30638EB4F84A105A00914210
:104D000038BFA4F84A201344B4F84A201344A4F846
:104D10004830A37E43F00403A3760023238610BD0E
:104D2000704770472DE9F04F4389072B85B0064641
:104D3000894605D8304605B0BDE8F04FFDF78ABF7B
:104D40003B4D446829686869FDF76DFA074620887D
:104D5000FCF796FD80466088FCF792FD354A2B698A
:104D6000D5F814E003938246106800240346A44655
:104D700093462BB914BBD9F804307345DAD11DE042
:104D80005A8A524533D119686FB341B1BEF1FF3F22
:104D900005D0D9F8082081EA0E01114227D11A7CEA
:104DA000520702D4002C08BF1C469A8A42451ED1E5
:104DB0005A68FAB9BCF1000F20D11C466FF0070108
:104DC0003046FDF739FF0028B4D1F4B1A569002DB4
:104DD000B0D0CDF80080184BE06932462146A84794
:104DE00005B0BDE8F08F0029D9D07145D7D09C46D9
:104DF000DB68BEE703998A42F9D1DBE7DA68CCF8D1
:104E00000C20CBF80030D860D7E7002F92D16B6927
:104E100003F0F003E02B8DD0A989083109B23046A8
:104E2000FDF711FF03213046FDF79CF882E700BF34
:104E3000040200201037002014020020264B2DE928
:104E4000F041002908BF1946002840D0234ED6F86B
:104E500000E075466DB992B17346FBB1834206D04E
:104E60005C8A944203D11F680C68A74229D0DB6892
:104E7000F3E7854201D0ED68ECE70125EBE7184B3D
:104E80001A884FF480444FF6FF7C62451ABF013206
:104E900092B24FF44042774657B91A800B680360CC
:104EA000428215B9C0F80CE030600020BDE8F08106
:104EB000B7F81280904508D1013CA4B2002CE4D18F
:104EC0001A806FF00700BDE8F081FF68E4E76FF03B
:104ED0000500BDE8F08100BF7462000810370020B3
:104EE000040000202DE9F0430E4685B09046994617
:104EF0000746002844D0002A42D0428A42B3082103
:104F00003046FDF799FE68BB3546788A6C68FCF739
:104F1000B7FC20804846FCF7B3FC00236080A371F7
:104F2000E3712889FCF7ACFC0C9AA080BB7A029252
:104F3000112201927A7A00920D9942462846FDF795
:104F400005F9B542044609D02846FDF783FE05E081
:104F50000146FFF773FF04460028D0D0204605B075
:104F6000BDE8F083002208210120FDF79BFE0546E5
:104F700048B13389002BC8D03146FDF763FFC4E741
:104F80006FF00504EAE74FF0FF34E7E773B5069CDE
:104F900090B18AB105681DB105F0F006E02E06D18A
:104FA000251D8DE83000FFF79DFF02B070BD6668DB
:104FB000B54201D10546F4E76FF00500F5E7F7B516
:104FC0000E4614461F46054668B162B11046FCF70E
:104FD000D3FF58B100903B46224631462846FFF7A2
:104FE000D5FF03B0F0BD6FF00500FAE76FF00300E6
:104FF000F7E7024618B1838A0432FFF7E0BF6FF08B
:105000000500704770B50D4616460446D0B1C9B1CB
:10501000428A6AB12B686360237CA68243F0040352
:1050200023740B4B1A68104640B9E2601C6070BDD7
:105030000146FFF703FF0028ECD070BDA04204D06A
:10504000C068F1E76FF0050070BD002070BD00BFC3
:10505000103700208161C261704710B50020FDF754
:10506000E1FC044628B12022002100F0BBFCFF2314
:10507000A372204610BD000010B538B103682BB1F3
:1050800021B10B6813B1064B1B6803B910BD1C6836
:105090000268944204BF0A681A60DB68F5E700BF43
:1050A0001037002043890E2B70B504460D4614D9E5
:1050B000406803788689D9070AD5012B11D1437836
:1050C00033B983785E2B03D1637B43F010036373A2
:1050D000082E10D0B6F5C16F1ED02046FDF7BAFDE0
:1050E00018E00622144900F063FC0028F0D1637B2D
:1050F00043F00803EBE795F82B301A07EDD56FF076
:105100000D012046FDF798FD0028E6D129462046EE
:10511000FCF75EFF002070BD95F82B301B07DCD537
:105120006FF00D012046FDF787FD0028D5D12946F7
:105130002046FCF78BFCEDE7086300082DE9F04101
:105140000546BDF818000C4616461F46FCF798FBAE
:105150000E2180462046FDF76FFD88B96168A1F8F1
:105160000C803B680B60BB888B803368C1F80630CD
:10517000B3884B81AB6921462846BDE8F04118470A
:105180006FF00100BDE8F0812DE9F74F254A00924C
:10519000D56A4FF00008AB680C46474640F2F45B16
:1051A0002CB939461F48FBF7D5FB204604E02A6896
:1051B000002A11DA6FF00700009B41F214021B680D
:1051C0009958890605D52021995041F20402002101
:1051D000995003B0BDE8F08FB4F80A9046464FF0FE
:1051E000000A06EB0908D84503EB0600616808D8F9
:1051F0004A46514401934F4400F0E9FB2468019B67
:10520000CEE7ABEB06063246514400F0E0FBED681A
:105210002B68002BCEDBB2443744AB68A8F2F459BC
:105220000026DEE7E44F0020F0B50268244B9A42E6
:1052300089B042D1A3F59043002400941A6B214811
:1052400042F000721A631A6B02F000720092009A28
:1052500001941A6B42F080621A631A6B02F080624A
:105260000192019A02941A6B42F000621A631B6B5E
:10527000059403F000630293022703260B25029B8B
:105280000497322303A9039306960795FBF7BEFD07
:10529000862303A90C480393049705940696079563
:1052A000FBF7B4FD4FF4605303A908480393049738
:1052B000059406960795FBF7A9FD09B0F0BD00BF60
:1052C000008002400008024000000240000402404A
:1052D0002DE9F74F354C01902046FBF7AFFB054613
:1052E000002860D1A18F236C009319BB0027236B8A
:1052F000A06B002282424FD141F21401236858581A
:10530000000642BF8020585041F208014FF00002D1
:10531000A26348BF5A50002F45D0019B01991B69D9
:105320003846984700283ED0384603B0BDE8F04FD5
:10533000FDF790BC03220420FDF7B4FC07460028CB
:10534000D4D0D4F830A0804640F2F45BB8F80A20FC
:105350002E464FF00009B518009BD8F804005D45B3
:1053600003EB060108D8484400F031FBD8F8008070
:10537000B8F1000FEAD1BAE7ABEB06063246484473
:1053800000F025FBDAF80CA0DAF808300093B144FD
:10539000A5F2F4520026DEE7196841F000411960D9
:1053A000DB680132A6E703B0BDE8F08FE44F0020D0
:1053B00030B53C4D3C4A2A6085B0012273236A60B7
:1053C0002A82132280F82C308DF80920742345227C
:1053D00080F82D308DF80A20344B43611222344B73
:1053E0008DF80B20342283618DF80C200023562287
:1053F000044601938DF808308DF80D20AB6102AAA8
:10540000EB6128464FF400036A612B62FBF7C6FB91
:1054100028B994F82B3043F0040384F82B3004238C
:10542000244A25491F48FBF71BFA2449244A1D48F2
:105430000423FBF752FA062384F824306B691948D9
:105440001A7884F825205A7884F826209A7884F8E7
:105450002720DA7884F828201A7984F829205B79C3
:1054600084F82A3040F2DC53638494F82B3043F004
:105470000A0384F82B30FBF78DFC01AA0B210948A5
:10548000FBF71BFB019A074842F00B020B2101922C
:10549000FBF74DFB01AA0B210248FBF70EFB002096
:1054A00005B030BDE44F002000800240051D00081B
:1054B000895100082C50002014370020644F002030
:1054C00094370020F0B51E4F1E4D1F4EA9233B7090
:1054D000FE237B70B723BB700F23002485B0FB70C5
:1054E000FF23337073702C706C70AC70EC70B47000
:1054F000F470FCF7CAF915493B68154A0B6033682C
:105500001360144B28681860134D14480290144817
:10551000019000942846FDF7EBFA2846FDF712FBB0
:1055200095F82B305B07284604D505B0BDE8F04060
:10553000FDF70EBB05B0BDE8F040FDF718BB00BF9E
:1055400038680020FC6700203468002030680020A4
:105550003C6800204068002000680020A55000083A
:10556000B15300080148FFF7B3BE00BF0068002038
:10557000024B834201D100F039B9704744680020E2
:1055800070B594B00024254B01941A6C42F08052FF
:105590001A641B6C03F080530193019B204B02940F
:1055A0001A6842F480421A601B6803F48043029335
:1055B000029B012308934FF4803309934FF4800337
:1055C000022604250F9308A8A82311930E96109580
:1055D00012961395FBF704FD0F2303934FF4A0538A
:1055E0000521069303A84FF480530793049605946E
:1055F000FBF79AFEFBF732FF4FF47A73B0FBF3F040
:10560000FBF764F82846FBF777F8224621464FF06F
:10561000FF30FBF71BF814B070BD00BF003802402C
:105620000070004000B58DB00024FAF7C5FFFFF709
:10563000A7FF384B00941A6B3748384D42F0800270
:105640001A631A6B02F080020092009A01941A6B9E
:1056500042F004021A631A6B02F004020192019AEA
:1056600002941A6B42F001021A631A6B02F00102F3
:105670000292029A03941A6B42F002021A631A6BA6
:1056800002F002020392039A04941A6B42F0080299
:105690001A631B6B03F00803049322464FF48051F6
:1056A000049BFBF793FC01224FF400411A48FBF7DF
:1056B0008DFC4FF4104307A9174807930123089363
:1056C00009930A94FBF7A2FBFFF7FCFE4FF0804220
:1056D0004AF20F4385E80C00284640F2CF73EB6096
:1056E000AC602C61FCF78EF84FF4805307A9284674
:1056F0000793FBF7C4FE202305A9284605930694CB
:10570000FCF79AF82846FBF7AFFE00F023F8FFF706
:1057100029FFFCE700380240000C024044680020EA
:1057200038B51446094D61685289284600F086F95B
:10573000638900222046EA54FDF78CFA4FF4805129
:105740000348BDE83840FBF746BC00BF8468002032
:10575000000C024013B5FFF780FC0B4C206080B1B9
:1057600002A90A4A41F8042D40F21362428240F233
:105770001462FFF747FC024618B905492068FFF795
:1057800069FC02B010BD00BF80680020A9FEB769A7
:105790002157000810B5FAF731FF114902461148A8
:1057A00000F028F90F48FAF713FD032281B2002018
:1057B000FDF778FA044688B10A48FAF709FD094965
:1057C00082B22046FDF794FB074B21461868FFF78D
:1057D00010FC2046BDE81040FDF73CBA10BD00BFEC
:1057E00014630008846800208068002008B5FFF773
:1057F000D1FF4FF400410248BDE80840FBF7EBBB86
:10580000000C024008B50320FAF70EFF00221146F3
:105810006FF00B00FAF71AFF002211466FF00A0032
:10582000FAF714FF002211466FF00900FAF70EFF95
:10583000002211466FF00400FAF708FF002211461B
:105840006FF00300FAF702FF002211466FF001002B
:10585000FAF7FCFE002211464FF0FF30BDE8084089
:10586000FAF7F4BE0368B3F1804F07B513D10022F5
:1058700003F50E330192196C41F0010119641B6CA0
:1058800003F0010301931C201146019BFAF7DEFE91
:105890001C20FAF70FFF03B05DF804FB7047FEE72A
:1058A000FEE7FEE7FEE770477047704708B5FAF776
:1058B0009DFEBDE80840FAF72CBF00000148FBF749
:1058C0009BBE00BF446800200F49D1F8883043F4E4
:1058D0007003C1F888300D4B1A68002042F00102B5
:1058E0001A6098601A6822F0847222F480321A607A
:1058F000074A5A601A6822F480221A60D8604FF072
:1059000000638B60704700BF00ED00E0003802408C
:1059100010300024DFF834D0002103E00C4B5B583A
:10592000435004310B480C4B42189A42F6D30B4AB1
:1059300002E0002342F8043B094B9A42F9D3FFF7F7
:10594000C3FF00F011F8FFF76DFE70470000022062
:10595000706300080000002070000020700000202C
:10596000A8680020FEE7000070B50D4E0D4CA41B8A
:10597000A4100025A54209D10B4E0C4C00F06EFC82
:10598000A41BA4100025A54205D170BD56F82530F2
:1059900098470135EEE756F8253098470135F2E78C
:1059A0006863000868630008686300086C630008A7
:1059B00010B501390244904201D1002010BD10F809
:1059C000013B11F8014FA342F5D0181B10BD10B5D3
:1059D000431E0A44914200D110BD11F8014B03F857
:1059E000014FF7E702440346934200D1704703F8A2
:1059F000011BF9E70EB400B59CB04FF402711DAB6A
:105A0000ADF81410029006906FF000410A4804911E
:105A100007914FF6FF7153F8042BADF8161000688C
:105A2000019302A900F07AF8029B00221A701CB0C0
:105A30005DF804EB03B070470C00002070B504461D
:105A400002B970BD234611F8015B03F8015B561ED5
:105A50001DB91444A34203D170BD1C463246EFE782
:105A600003F8015BF6E72DE9F0478E689E42824617
:105A70000C469146984635D88A8912F4906F31D0F9
:105A8000256809696F1A6569022305EB450595FBD1
:105A9000F3F508F101033B449D4238BF1D46530511
:105AA00031D5294600F02CFB064650B90C23CAF824
:105AB0000030A38943F04003A3814FF0FF30BDE8DD
:105AC000F0873A462169FFF782FFA38923F49063A8
:105AD00043F08003A381266165613E44ED1B26608F
