:020000040800F2
:1000000000000220791E00080D1E00080F1E0008C7
:10001000111E0008131E0008151E00080000000035
:10002000000000000000000000000000171E000893
:10003000191E0008000000001B1E00081D1E0008FD
:10004000C91E0008C91E0008C91E0008C91E0008F4
:10005000C91E0008C91E0008C91E0008C91E0008E4
:10006000C91E0008C91E0008C91E0008C91E0008D4
:10007000C91E0008C91E0008C91E0008C91E0008C4
:10008000C91E0008C91E0008C91E0008C91E0008B4
:10009000C91E0008C91E0008C91E0008C91E0008A4
:1000A000C91E0008C91E0008C91E0008C91E000894
:1000B000C91E0008C91E0008C91E0008C91E000884
:1000C000C91E0008C91E0008C91E0008C91E000874
:1000D000C91E0008C91E0008C91E0008C91E000864
:1000E000C91E0008C91E0008C91E0008C91E000854
:1000F000C91E0008C91E0008C91E0008C91E000844
:10010000C91E0008C91E0008C91E0008C91E000833
:10011000C91E0008C91E0008C91E0008C91E000823
:10012000C91E0008C91E0008C91E0008C91E000813
:10013000C91E0008C91E0008C91E0008C91E000803
:10014000C91E0008C91E0008C91E0008C91E0008F3
:10015000C91E0008C91E0008C91E0008C91E0008E3
:10016000C91E0008C91E0008C91E0008C91E0008D3
:10017000C91E0008C91E0008C91E000800000000B2
:08018000C91E0008C91E000899
:1001900010B5054C237833B9044B13B10448AFF3C1
:1001A00000800123237010BD6C00002000000000BF
:1001B0006C27000808B5034B1BB103490348AFF394
:1001C000008008BD00000000700000206C270008BF
:1001D00001F0FF01102A2BDB10F0070F08D010F8F8
:1001E000013B013A8B422DD010F0070F42B3F6D1FC
:1001F000F0B441EA012141EA014122F007047FF015
:1002000000070023F0E80256083C85EA010586EA6B
:10021000010685FA47F5A3FA87F586FA47F6A5FAA7
:1002200087F68EB9EED1F0BC01F0FF0102F00702B3
:1002300032B110F8013B013A83EA010313B1F8D15E
:100240000020704701387047002D06BF354603383F
:10025000073815F0010F07D1013015F4807F02BF78
:10026000013015F4C03F0130F0BC0138704700BFC9
:1002700081F0004102E000BF83F0004330B54FEA57
:1002800041044FEA430594EA050F08BF90EA020FC4
:100290001FBF54EA000C55EA020C7FEA645C7FEA57
:1002A000655C00F0E2804FEA5454D4EB5555B8BF7A
:1002B0006D420CDD2C4480EA020281EA030382EAEB
:1002C000000083EA010180EA020281EA0303362D7D
:1002D00088BF30BD11F0004F4FEA01314FF4801C50
:1002E0004CEA113102D0404261EB410113F0004F62
:1002F0004FEA03334CEA133302D0524263EB430319
:1003000094EA050F00F0A780A4F10104D5F1200EB6
:100310000DDB02FA0EFC22FA05F2801841F1000111
:1003200003FA0EF2801843FA05F359410EE0A5F1E5
:1003300020050EF1200E012A03FA0EFC28BF4CF016
:10034000020C43FA05F3C01851EBE37101F00045CC
:1003500007D54FF0000EDCF1000C7EEB00006EEBD9
:100360000101B1F5801F1BD3B1F5001F0CD3490863
:100370005FEA30004FEA3C0C04F101044FEA4452BA
:1003800012F5800F80F09A80BCF1004F08BF5FEA41
:10039000500C50F1000041EB045141EA050130BD21
:1003A0005FEA4C0C404141EB010111F4801FA4F1C4
:1003B0000104E9D191F0000F04BF01460020B1FA19
:1003C00081F308BF2033A3F10B03B3F120020CDA51
:1003D0000C3208DD02F1140CC2F10C0201FA0CF02F
:1003E00021FA02F10CE002F11402D8BFC2F1200C94
:1003F00001FA02F120FA0CFCDCBF41EA0C0190404A
:10040000E41AA2BF01EB0451294330BD6FEA040492
:100410001F3C1CDA0C340EDC04F11404C4F120027D
:1004200020FA04F001FA02F340EA030021FA04F38F
:1004300045EA030130BDC4F10C04C4F1200220FAE6
:1004400002F001FA04F340EA0300294630BD21FA24
:1004500004F0294630BD94F0000F83F4801306BFEA
:1004600081F480110134013D4EE77FEA645C18BFDE
:100470007FEA655C29D094EA050F08BF90EA020F75
:1004800005D054EA000C04BF1946104630BD91EA6D
:10049000030F1EBF0021002030BD5FEA545C05D170
:1004A0004000494128BF41F0004130BD14F58004AF
:1004B0003CBF01F5801130BD01F0004545F0FE4123
:1004C00041F470014FF0000030BD7FEA645C1ABF58
:1004D000194610467FEA655C1CBF0B46024650EA8F
:1004E000013406BF52EA033591EA030F41F40021BB
:1004F00030BD00BF90F0000F04BF0021704730B541
:100500004FF4806404F132044FF000054FF0000115
:1005100050E700BF90F0000F04BF0021704730B5D6
:100520004FF4806404F1320410F0004548BF4042AB
:100530004FF000013EE700BF42004FEAE2014FEA00
:1005400031014FEA02701FBF12F07F4393F07F4FDB
:1005500081F06051704792F0000F14BF93F07F4F0D
:10056000704730B54FF4607401F0004521F0004150
:1005700020E700BF50EA010208BF704730B54FF0D6
:1005800000050AE050EA010208BF704730B511F0DB
:10059000004502D5404261EB41014FF4806404F113
:1005A00032045FEA915C3FF4DCAE4FF003025FEA95
:1005B000DC0C18BF03325FEADC0C18BF033202EB1D
:1005C000DC02C2F1200300FA03FC20FA02F001FA77
:1005D00003FE40EA0E0021FA02F11444C1E600BF16
:1005E00070B54FF0FF0C4CF4E06C1CEA11541DBFC9
:1005F0001CEA135594EA0C0F95EA0C0F00F0DEF894
:100600002C4481EA030621EA4C5123EA4C5350EA78
:10061000013518BF52EA033541F4801143F48013C9
:1006200038D0A0FB02CE4FF00005E1FB02E506F05A
:100630000042E0FB03E54FF00006E1FB03569CF0AF
:10064000000F18BF4EF0010EA4F1FF04B6F5007FB5
:1006500064F5407404D25FEA4E0E6D4146EB060627
:1006600042EAC62141EA55514FEAC52040EA5E50B0
:100670004FEACE2EB4F1FD0C88BFBCF5E06F1ED85A
:10068000BEF1004F08BF5FEA500E50F1000041EB91
:10069000045170BD06F0004646EA010140EA02003E
:1006A00081EA0301B4EB5C04C2BFD4EB0C0541EA60
:1006B000045170BD41F480114FF0000E013C00F375
:1006C000AB8014F1360FDEBF002001F0004170BD99
:1006D000C4F10004203C35DA0C341BDC04F11404B2
:1006E000C4F1200500FA05F320FA04F001FA05F23E
:1006F00040EA020001F0004221F0004110EBD3700B
:1007000021FA04F642EB06015EEA430E08BF20EA36
:10071000D37070BDC4F10C04C4F1200500FA04F3D9
:1007200020FA05F001FA04F240EA020001F000416B
:1007300010EBD37041F100015EEA430E08BF20EADE
:10074000D37070BDC4F1200500FA05F24EEA020E26
:1007500020FA04F301FA05F243EA020321FA04F055
:1007600001F0004121FA04F220EA020000EBD3700C
:100770005EEA430E08BF20EAD37070BD94F0000F0C
:100780000FD101F00046400041EB010111F4801F40
:1007900008BF013CF7D041EA060195F0000F18BFF1
:1007A000704703F00046520043EB030313F4801F2D
:1007B00008BF013DF7D043EA0603704794EA0C0FE7
:1007C0000CEA135518BF95EA0C0F0CD050EA4106FD
:1007D00018BF52EA4306D1D181EA030101F000417A
:1007E0004FF0000070BD50EA410606BF10461946A2
:1007F00052EA430619D094EA0C0F02D150EA0136AE
:1008000013D195EA0C0F05D152EA03361CBF1046EE
:1008100019460AD181EA030101F0004141F0FE418D
:1008200041F470014FF0000070BD41F0FE4141F411
:10083000780170BD70B54FF0FF0C4CF4E06C1CEA11
:1008400011541DBF1CEA135594EA0C0F95EA0C0FC6
:1008500000F0A7F8A4EB050481EA030E52EA033581
:100860004FEA013100F088804FEA03334FF08055A2
:1008700045EA131343EA12634FEA022245EA1115CF
:1008800045EA10654FEA00260EF000419D4208BF80
:10089000964244F1FD0404F5407402D25B084FEA2D
:1008A0003202B61A65EB03055B084FEA32024FF4D9
:1008B00080104FF4002CB6EB020E75EB030E22BF36
:1008C000B61A754640EA0C005B084FEA3202B6EBF6
:1008D000020E75EB030E22BFB61A754640EA5C00A5
:1008E0005B084FEA3202B6EB020E75EB030E22BF35
:1008F000B61A754640EA9C005B084FEA3202B6EB36
:10090000020E75EB030E22BFB61A754640EADC00F4
:1009100055EA060E18D04FEA051545EA16754FEA56
:1009200006164FEAC30343EA52734FEAC2025FEA74
:100930001C1CC0D111F4801F0BD141EA00014FF003
:1009400000004FF0004CB6E711F4801F04BF0143D4
:100950000020B4F1FD0C88BFBCF5E06F3FF6AFAEF0
:10096000B5EB030C04BFB6EB020C5FEA500C50F180
:10097000000041EB045170BD0EF0004E4EEA113103
:1009800014EB5C04C2BFD4EB0C0541EA045170BD0A
:1009900041F480114FF0000E013C90E645EA060E4E
:1009A0008DE60CEA135594EA0C0F08BF95EA0C0F7C
:1009B0003FF43BAF94EA0C0F0AD150EA01347FF4C4
:1009C00034AF95EA0C0F7FF425AF104619462CE79B
:1009D00095EA0C0F06D152EA03353FF4FDAE1046FE
:1009E000194622E750EA410618BF52EA43067FF44F
:1009F000C5AE50EA41047FF40DAF52EA43057FF4DF
:100A0000EBAE12E74A0011D212F5001211D20DD549
:100A10006FF47873B3EB62520ED44FEAC12343F004
:100A2000004343EA505323FA02F070474FF00000AE
:100A3000704750EA013002D14FF0FF3070474FF05D
:100A40000000704753B94AB9002908BF00281CBFED
:100A50004FF0FF314FF0FF3000F07AB9ADF1080CE4
:100A60006DE904CE00F006F8DDF804E0DDE90223CC
:100A700004B070472DE9F0478C460D460446089EA9
:100A8000002B51D18A4217466DD9B2FA82FEBEF1CF
:100A9000000F0BD0CEF1200C01FA0EF520FA0CFC61
:100AA00002FA0EF74CEA050C00FA0EF44FEA174A68
:100AB000250CBCFBFAF81FFA87F90AFB18CC45EAAB
:100AC0000C4508FB09F3AB420AD9ED1908F1FF32D6
:100AD00080F02381AB4240F22081A8F102083D441E
:100AE000ED1AA4B2B5FBFAF00AFB105544EA05442E
:100AF00000FB09F9A14509D9E41900F1FF3380F0A1
:100B00000A81A14540F2078102383C44A4EB090464
:100B100040EA08400021002E61D024FA0EF40023A0
:100B200034607360BDE8F0878B4207D9002E54D043
:100B3000002186E821000846BDE8F087B3FA83F17A
:100B4000002940F08E80AB4202D3824200F2FA804C
:100B5000841A65EB03050120AC46002E3FD086E8E1
:100B60001010BDE8F08712B90127B7FBF2F7B7FA0A
:100B700087FEBEF1000F34D1EB1B3A0C1FFA87FC45
:100B80000121B3FBF2F8250C02FB183345EA0345BB
:100B90000CFB08F3AB4207D9ED1908F1FF3002D284
:100BA000AB4200F2D1808046ED1AA3B2B5FBF2F061
:100BB00002FB105543EA05440CFB00FCA44507D991
:100BC000E41900F1FF3302D2A44500F2B8801846C0
:100BD000A4EB0C0440EA08409DE731463046BDE8EE
:100BE000F087CEF1200405FA0EF307FA0EF720FA8B
:100BF00004F83A0C25FA04F448EA0308B4FBF2F1CD
:100C00004FEA184502FB11441FFA87FC45EA0445E8
:100C100001FB0CF3AB4200FA0EF409D9ED1901F116
:100C2000FF3080F08A80AB4240F2878002393D4439
:100C3000EB1A1FFA88F5B3FBF2F002FB103345EA1A
:100C4000034500FB0CF3AB4207D9ED1900F1FF3867
:100C50006FD2AB426DD902383D44EB1A40EA0141F4
:100C60008FE7C1F1200722FA07F88B4005FA01F45B
:100C700048EA030320FA07FE4FEA134CFD404EEA10
:100C8000040EB5FBFCF94FEA1E440CFB19551FFA84
:100C900083F844EA054509FB08F4AC4202FA01F284
:100CA00000FA01FA08D9ED1809F1FF3043D2AC423D
:100CB00041D9A9F102091D442D1B1FFA8EFEB5FB77
:100CC000FCF00CFB10554EEA054400FB08F8A0456B
:100CD00007D9E41800F1FF3529D2A04527D90238F9
:100CE0001C4440EA0940A4EB0804A0FB02894C45DF
:100CF000C6464D4615D312D056B1BAEB0E0364EB7F
:100D0000050404FA07F7CB401F43CC4037607460FA
:100D10000021BDE8F0871846F8E69046E0E6C245B7
:100D2000EAD2B8EB020E69EB03050138E4E7284686
:100D3000D7E7404691E78146BEE7014678E70238AB
:100D40003C4445E7084608E7A8F102083D442BE784
:100D5000704700BF10B5084B044618684FF47A730B
:100D6000B0FBF3F000F088F8002221464FF0FF308E
:100D700000F04EF8002010BD0400002008B50B4B19
:100D80001A6842F400721A601A6842F480621A60AB
:100D90001A6842F480721A60032000F027F80020DD
:100DA000FFF7D8FF00F0DCFF002008BD003C024048
:100DB000024A136801331360704700BFB40000207B
:100DC000014B1868704700BFB400002037B5019090
:100DD000FFF7F6FF019C631C054618BF0134FFF7BF
:100DE000EFFF401BA042FAD303B030BD074AD368DF
:100DF00023F4E0631B041B0C43F0BF63000243F4C5
:100E0000003300F4E0600343D360704700ED00E07E
:100E1000174B30B5DC68C4F30224C4F10703251D69
:100E2000042B28BF0423062D4FF0010505FA03F318
:100E300003F1FF338CBF033C00241940A14005FAA5
:100E400004F4013C2240002842EA01024FEA021267
:100E5000AFBF00F1604000F00F00064BD2B2A5BF5B
:100E600000F56140D2B21A5480F8002330BD00BFB3
:100E700000ED00E014ED00E00138B0F1807F0AD20F
:100E8000064B074A5860F02182F823100020072201
:100E900098601A6070470120704700BF10E000E0C2
:100EA00000ED00E0044B1A6804280CBF42F0040275
:100EB00022F004021A60704710E000E0704708B5A5
:100EC000FFF7FCFF08BD00002DE9F04F85B00B686F
:100ED000DFF8AC81684ADFF8AC91019300234FF052
:100EE000010E019C0EFA03FE0EEA0406B64540F020
:100EF000AE804C6824F01007022F16D14FEAD30AB7
:100F000000EB8A0A03F0070BDAF820504FEA8B0B4C
:100F10004FF00F0C0CFA0BFC25EA0C0C0D6905FACE
:100F20000BF545EA0C05CAF820504FEA430A0325A1
:100F3000D0F800B005FA0AF5ED4304F0030C0BEA13
:100F4000050B0CFA0AFC013F4CEA0B0C012FC0F810
:100F500000C011D8876807EA050BCF6807FA0AFCBA
:100F60004CEA0B078760476827EA0E0EC4F30017A8
:100F70009F4047EA0E074760C7683D408F6807FA01
:100F80000AF73D43C560E50061D54FF0000BCDF891
:100F90000CB0D8F84470394D47F48047C8F8447015
:100FA000D8F8447007F480470397039F23F00307A2
:100FB00007F1804707F59C3703F0030CD7F808A02A
:100FC0004FEA8C0C4FF00F0E0EFA0CFEA8422AEAE4
:100FD0000E0E43D005F58065A84241D005F5806529
:100FE000A8423FD005F58065A8423DD005F5806553
:100FF000A8423BD048453BD005F50065A84239D012
:1010000005F58065A84214BF0825072505FA0CF5EB
:1010100045EA0E05BD601568F74314F4803F0CBF28
:101020003D4035431560556814F4003F0CBF3D400A
:1010300035435560956814F4801F0CBF3D4035431F
:101040009560D568A40254BF3D403543D560013357
:10105000102B7FF444AF05B0BDE8F08F5D46D5E7B7
:101060000125D3E70225D1E70325CFE70425CDE706
:101070000525CBE70625C9E7003C014000000240FA
:1010800000380240001402400AB18161704709042F
:10109000FBE70000F7B5044610B9012003B0F0BD2E
:1010A0000368D8073BD42368990700F1848023683C
:1010B0001E0700F1C68023685D072AD5002301932F
:1010C000AA4BAB4D1A6C42F080521A641B6C03F0B1
:1010D00080530193019B2B6843F480732B60FFF7CF
:1010E0006FFE06462B68DA0540F1CD80A3689F4D60
:1010F000012B40F0CF802B6F43F001032B67FFF7EC
:101100005FFE9A4D064641F288372B6F9B0740F1F0
:10111000E280A269002A40F0E5800020BEE7934B00
:101120009A6802F00C02042A07D09A6802F00C02B6
:10113000082A0AD15B685A0207D58C4B1B689B03AF
:10114000B1D56368002BAED1A7E76368874DB3F5CF
:10115000803F11D12B6843F480332B60FFF730FEC2
:10116000824D06462B689F039DD4FFF729FE801B06
:101170006428F7D9032091E7B3F5A02F04D12B6899
:1011800043F480232B60E5E72A6822F480322A604A
:101190002A6822F480222A60002BDFD1FFF710FE9C
:1011A00006462B6898037FF57EAFFFF709FE801B8C
:1011B0006428F6D9DEE76D4B9A6812F00C0F07D061
:1011C0009A6802F00C02082A12D15B6859020FD407
:1011D000664B1A68920703D5E268012A7FF45DAF77
:1011E0001A68216922F0F80242EAC1021A605EE739
:1011F000E268604BB2B101221A60FFF7E1FD5B4D7E
:1012000006462B689B0707D52B68226923F0F80355
:1012100043EAC2032B604AE7FFF7D2FD801B022896
:10122000EFD9A7E71A60FFF7CBFD504D06462B68B4
:101230009F077FF53CAFFFF7C3FD801B0228F6D95F
:1012400098E762694C4B7AB101221A60FFF7B8FD4A
:10125000464D06466B6F98073FF52DAFFFF7B0FD83
:10126000801B0228F6D985E71A60FFF7A9FD3F4DDC
:1012700006466B6F99077FF51EAFFFF7A1FD801B38
:101280000228F6D976E7FFF79BFD801B02287FF640
:1012900029AF6FE7052B04D12B6F43F004032B67B5
:1012A00029E72A6F22F001022A672A6F22F004023E
:1012B0002A67002B7FF423AFFFF782FD41F28837C6
:1012C00006462B6F98077FF524AFFFF779FD801B4B
:1012D000B842F6D94EE7FFF773FD801BB8427FF6A0
:1012E00014AF47E7214DAB6803F00C03082B3FF424
:1012F000D4AE224E0023022A33602AD1FFF760FDCC
:1013000007462B6899011ED4226AE3691343626A77
:1013100043EA8213E26A43EA0263A26A134C520868
:10132000013A43EA02436B6001233360FFF748FD53
:10133000054623689A013FF5F0AEFFF741FD401BDB
:101340000228F6D916E7FFF73BFDC01B0228D8D9C3
:1013500010E7FFF735FD04462B689B017FF5DDAEF6
:10136000FFF72EFD001B0228F6D903E700380240E4
:101370000070004000004742800E47426000474234
:10138000134908B58B6803F00C03042B03D0082B1A
:1013900003D0104808BD104808BD4A684B6849682A
:1013A00013F4800314BF0C480A48C1F3881118BF16
:1013B000002302F03F02A1FB0001FFF743FB044BB7
:1013C0005B68C3F3014301335B00B0FBF3F008BD7E
:1013D000003802400024F40040787D012DE9F041FE
:1013E0000D46044610B90120BDE8F081444B1A684F
:1013F00002F00F028A4228D321688F072DD4C80734
:1014000040D43F4B1A6802F00F02954266D322681F
:1014100051076CD4130707D53A4A2169936823F41E
:10142000604343EAC1039360FFF7AAFF354B364A96
:101430009B68C3F30313D35CD840344B186000207F
:10144000FFF788FC0020BDE8F081CAB21A701B6863
:1014500003F00F039942C6D1CEE72A4B11F0040FD7
:101460001EBF9A6842F4E0529A600E0742BF9A6823
:1014700042F460429A609A68A06822F0F002024347
:101480009A60BCE762681F4B012A1DD11B6813F4E8
:10149000003FA8D01B4EB36823F003031343B3608F
:1014A000FFF78EFC41F288380746B368626803F0A4
:1014B0000C03B3EB820FA4D0FFF782FCC01B4045A6
:1014C000F3D90320BDE8F081911E01291B6802D8E1
:1014D00013F0007FDDE713F0020FDAE7EAB21A70CB
:1014E0001B6803F00F039D427FF47DAF8FE7054932
:1014F000E0688B6823F4E05303438B608AE700BF06
:10150000003C024000380240872700080400002009
:10151000014B1868704700BF04000020044B054AC7
:101520009B68C3F38223D35C034A1068D84070479A
:101530000038024097270008040000200F230360B2
:101540000B4B9A6802F0030242609A6802F0F002C4
:1015500082609A6802F4E052C2609B68DB0803F480
:10156000E0530361034B1B6803F00F030B607047EC
:1015700000380240003C0240036889B1042907D0CA
:101580001A6A22F001021A621A6A42F001021A6211
:101590001A6A22F010021A621A6A42F0100206E079
:1015A0001A6A22F001021A621A6A42F001021A62F1
:1015B0001A6842F001021A60002070472E4A036840
:1015C000904212D0B0F1804F0FD0A2F57C429042F1
:1015D0000BD002F58062904207D002F58062904203
:1015E00003D002F5784290421DD14A6823F070037F
:1015F0001343214A904204D1CA6823F44073134331
:1016000028E0B0F1804FF7D01C4A9042F4D002F5A8
:1016100080629042F0D002F580629042ECD002F5F8
:1016200078429042E8D0164A9042E5D002F58062B6
:101630009042E1D002F580629042DDD0A2F598326E
:101640009042D9D002F580629042D5D002F58062F6
:101650009042D1D003608B68C3620B688362064BF3
:10166000984206D003F58063984202D0012343617B
:1016700070470B690363F9E7000001400004004074
:1016800000400140F8B50C460546002841D090F8CE
:10169000393003F0FF021BB980F8382000F090FBCE
:1016A0002946022351F8040B85F83930836823F06A
:1016B00007038360FFF782FF2868236886688269D2
:1016C000A168076A1E43A36922F4407222F0030254
:1016D00041EA0323134323F47C422369E1691B019C
:1016E00043EA0123E1680B43216A22F0FC0243EA4A
:1016F00001331343616927F0AA026768866047EAED
:101700000117836117430123076285F839300020F0
:10171000F8BD0120F8BD90F83830012B10B54FF01E
:10172000020318D080F8393003680C685A68496899
:1017300022F070025A605A6822435A609A6822F076
:1017400080029A609A680A439A60012380F83930CF
:10175000002380F83830184610BD0000074B0138D0
:10176000D8621A6922F001021A611A6842F0010275
:101770001A601A69D207FCD5704700BF0004004008
:1017800010B586B0694601A8FFF7D8FE049B002B70
:101790002CD1FFF7C3FEFEF7ADFE19A3D3E900235A
:1017A000FEF71EFF144A154C136C43F0020313643A
:1017B000236823F010032360236823F001032360D0
:1017C000236823F004032360236843F008032360A5
:1017D000FFF718F909230138A062E362012363616E
:1017E000236923F00103236106B010BDFFF796FEC5
:1017F0004000D0E7AFF30080003802400004004012
:101800008DEDB5A0F7C6B03E38B50A4D0A4C298813
:1018100020680122FFF738FC0A20FFF79FFF2068AD
:1018200029880022FFF730FC3C20BDE83840FFF754
:1018300095BF00BF98000020A40000202DE9F047CC
:10184000434B1B78012B04464FEA10163DD1414D06
:10185000414B00F0010219882868FFF715FC3F4B47
:101860002868198804F00202FFF70EFC3C4B286838
:10187000198804F00402FFF707FC3A4B286819881E
:1018800004F00802FFF700FC374C384B2068198839
:1018900006F00102FFF7F8FB354B2068198806F0C7
:1018A0000202FFF7F1FB334B2068198806F00402AF
:1018B000FFF7EAFB304B2068198806F00802FFF7B3
:1018C000E3FBBDE8F047FFF79FBF022B3ED1264D5B
:1018D000DFF898A0DFF89890BAF800102868DFF8D1
:1018E0009480254F06F00102FFF7CEFB06F00202BE
:1018F000B9F800102868FFF7C7FB06F00402B8F833
:1019000000102868FFF7C0FB06F008023988286835
:10191000FFF7BAFBFFF778FF04F00102BAF80010F6
:101920002868FFF7B1FB04F00202B9F8001028683C
:10193000FFF7AAFB04F00402B8F800102868FFF7CC
:10194000A3FB04F0080239882868B8E7BDE8F087EF
:10195000020000209C000020880000208A00002057
:101960008C0000208E000020A000002090000020AD
:1019700092000020940000209600002038B5144BFF
:10198000144C1988144B054600221868FFF77CFB9D
:10199000124B2068198805F00102FFF775FB104B08
:1019A0002068198805F00202FFF76EFB0D4B2068D6
:1019B000198805F00402FFF767FB0B4B20681988B4
:1019C00005F00802FFF760FBBDE83840FFF71CBFD9
:1019D0009A000020A0000020A40000209000002019
:1019E00092000020940000209600002010B5064BC5
:1019F0001988064B044600221868FFF745FB20466D
:101A0000BDE81040FFF71ABF9A000020A400002094
:101A1000F8B5DFF8C0E0BDF81870CEF80000244833
:101A2000BDF81C6001802349BDF820500A80224A7D
:101A3000BDF824401360214B1F80214B1E80214B99
:101A40001D80214B1C80FFF79BFE204B02251D7043
:101A50001F4B282414201C70FFF7B8F90320FFF750
:101A60008DFF0520FFF7B2F90320FFF787FF012064
:101A7000FFF7ACF90320FFF781FF0120FFF7A6F97C
:101A80002846FFF77BFF0120FFF7A0F90F20FFF7A3
:101A9000ADFF0120FFF7AAFF0320FFF797F92046CB
:101AA000FFF7A4FF0320BDE8F840FFF78FB900BFA0
:101AB0009A00002098000020A00000209000002044
:101AC00092000020940000209600002002000020D8
:101AD00001000020A40000202DE9F0410A4FDFF8AA
:101AE0002C80451E00F10F0415F8016F56B101223C
:101AF0003988D8F80000FFF7C7FA3046FFF79EFE96
:101B0000A542F1D1BDE8F0819A000020A400002098
:101B1000013901F00F0101280CBF41F0800041F0B4
:101B2000C000FFF763BF0000034B187800F0FD0012
:101B30001870FFF75BBF00BF0000002008B5012050
:101B4000FFF754FF0320BDE80840FFF73FB900004E
:101B5000034B187800F0FE001870FFF747BF00BF76
:101B6000000000201FB502460449684600F0D2F983
:101B70006846FFF7B1FF05B05DF804FB8427000855
:101B800010B594B00023214A0193116C41F08051AB
:101B90001164126C02F080520192019A1C4A029365
:101BA000116841F48041116012680E9302F4804282
:101BB0000292029A0222089201220B9208A8102295
:101BC0000C92FFF767FA014600B1FEE70F2304907D
:101BD00005900690079003A80393FFF7FFFB0446C8
:101BE00000B1FEE7FFF794FC4FF47A73B0FBF3F01B
:101BF000FFF742F90420FFF755F9224621464FF03E
:101C0000FF30FFF705F914B010BD00BF00380240E7
:101C10000070004080B594B00024FFF7AFF8FFF7E4
:101C2000AFFF494B05941A6B4848494D494F42F064
:101C300080021A631A6B02F080020592059A0694DC
:101C40001A6B42F010021A631A6B02F0100206922D
:101C5000069A07941A6B42F002021A631A6B02F09A
:101C600002020792079A08941A6B42F008021A635C
:101C70001B6B03F00803089322464FF42041089B96
:101C8000FFF702FA22464FF42A413348FFF7FCF9E6
:101C900001264FF420430BA92C480B930C960D946E
:101CA0000E94FFF711F94FF42A430BA92A480B931E
:101CB0000C960D940E94FFF707F9FF230BA9284605
:101CC0002F606C60AC60EB602C616C610B960C94C7
:101CD0000D960E940F941094119612941394FFF78E
:101CE000D1FC00B1FEE709900A9009A92846FFF748
:101CF00012FD014600B1FEE72846FFF73DFC4FF418
:101D000000654FF400424FF400514FF4007303920A
:101D100002910E48114C8DE828000F4BFFF778FE1A
:101D2000FFF702FFFFF714FF7B6A2370FFF706FF40
:101D300001210846FFF7ECFE2078FFF713FFC820CB
:101D4000FFF744F8F0E700BF00380240000402400B
:101D5000BC00002000000140000C0240B800002040
:101D600008B50320FFF742F8002211466FF00B0080
:101D7000FFF74EF8002211466FF00A00FFF748F80F
:101D8000002211466FF00900FFF742F800221146C9
:101D90006FF00400FFF73CF8002211466FF00300DB
:101DA000FFF736F8002211466FF00100FFF730F818
:101DB000002211464FF0FF30BDE80840FFF728B879
:101DC0007FB502680F4B9A4219D1002103F59C336D
:101DD00000915A6C0C4842F001025A645B6C049109
:101DE00003F001030093009B4FF42063019302234F
:101DF000029301A9012303930593FFF765F807B048
:101E00005DF804FB00000140001002407047FEE74F
:101E1000FEE7FEE7FEE770477047704708B5FEF73C
:101E2000C7FFBDE80840FFF74AB800000F49D1F8E6
:101E3000883043F47003C1F888300D4B1A680020D5
:101E400042F001021A6098601A6822F0847222F44B
:101E500080321A60074A5A601A6822F480221A6097
:101E6000D8604FF000638B60704700BF00ED00E06A
:101E70000038024010300024DFF834D0002103E0A5
:101E80000C4B5B58435004310B480C4B42189A42A0
:101E9000F6D30B4A02E0002342F8043B094B9A4276
:101EA000F9D3FFF7C3FF00F011F8FFF7B3FE704757
:101EB00000000220E4270008000000206C00002041
:101EC0006C000020FC000020FEE7000070B50D4E05
:101ED0000D4CA41BA4100025A54209D10B4E0C4C9F
:101EE00000F044FCA41BA4100025A54205D170BD40
:101EF00056F8253098470135EEE756F825309847D3
:101F00000135F2E7DC270008DC270008DC270008A1
:101F1000E02700080EB400B59CB04FF402711DAB71
:101F2000ADF81410029006906FF000410A48049139
:101F300007914FF6FF7153F8042BADF816100068A7
:101F4000019302A900F066F8029B00221A701CB0EF
:101F50005DF804EB03B07047080000202DE9F0475E
:101F60008E689E4282460C469146984635D88A89AC
:101F700012F4906F31D0256809696F1A65690223E0
:101F800005EB450595FBF3F508F101033B449D4244
:101F900038BF1D46530531D5294600F039FB0646AA
:101FA00050B90C23CAF80030A38943F04003A38141
:101FB0004FF0FF30BDE8F0873A46216900F0B4FAEF
:101FC000A38923F4906343F08003A38126616561B4
:101FD0003E44ED1B2660A5604646464528BF464662
:101FE00032464946206800F0AAFAA3689B1BA3600A
:101FF00023681E4426600020BDE8F0872A4600F0D2
:1020000065FB06460028E1D12169504600F0B2FA8E
:10201000C7E700002DE9F04F9DB0804603938B8900
:102020001C060D4616460FD50B696BB9402100F012
:10203000EFFA2860286128B90C23C8F800304FF067
:10204000FF30C5E040236B610023099320238DF806
:10205000293030238DF82A304FF0010B37463C46AB
:1020600014F8013B002B3CD1B7EB060A0BD05346CA
:10207000324629464046FFF771FF013000F0A38049
:10208000099B534409933B78002B00F09C8000236C
:102090004FF0FF3204930793059206938DF8533067
:1020A0001A93052221785048FEF792F8671C049B8A
:1020B000D8B9D90644BF20228DF853201A0744BF4F
:1020C0002B228DF8532022782A2A16D0079A002135
:1020D0000A20274601343B78303B092B51D9C9B13E
:1020E00011E0252BC0D02746B9E73F4A801A0BFAEA
:1020F00000F0184304903C46D3E7039A111D126880
:102100000391002A01DB079204E0524243F00203EC
:10211000079204933B782E2B0ED17B782A2B07F164
:10212000010132D1039B1A1D1B680392002BB8BF1B
:102130004FF0FF33023705932C4C397803222046A9
:10214000FEF746F838B14023001B03FA00F0049B69
:10215000034304930137397825488DF82810062267
:102160007E1CFEF735F8002835D0224BFBB9039BC7
:10217000073323F0070308330393099B4B44099368
:102180006CE700FB02320121A3E700230593184608
:102190000A240F4601313A78303A092A03D9002B34
:1021A000CAD00590C8E704FB00200123F1E703AB88
:1021B00000932A46104B04A94046AFF30080B0F1CB
:1021C000FF3F8146D9D1AB895B063FF538AF09980F
:1021D0001DB0BDE8F08F03AB00932A46064B04A95F
:1021E000404600F081F8EAE79F270008A52700088D
:1021F000A9270008000000005D1F00082DE9F04736
:1022000091461F468A680B69DDF820809342B8BF6B
:102210001346C9F8003091F8432006460C4612B127
:102220000133C9F800302368990642BFD9F800305D
:102230000233C9F80030256815F0060507D104F10E
:10224000190AE368D9F800209B1A9D4229DB94F80B
:1022500043302268003318BF012392062ED404F1C4
:10226000430239463046C047013021D02368E56833
:10227000D9F8002003F00603042B08BFAD1AA368A9
:1022800022690CBF25EAE57500259342C4BF9B1A5D
:10229000ED184FF000091A344D451BD10020BDE860
:1022A000F0870123524639463046C047013003D1FA
:1022B0004FF0FF30BDE8F0870135C2E7E1185A1C46
:1022C000302081F84300224494F8451082F84310EE
:1022D0000233C4E70123224639463046C047013065
:1022E000E6D009F10109D7E72DE9F04317460A7E48
:1022F00085B06E2A984606460C460C9B01F1430EAB
:1023000000F0BC801AD8632A2ED00AD8002A00F028
:10231000C880582A00F08A8004F1420584F84220DF
:102320002AE0642A01D0692AF6D121681A6811F0DE
:10233000800F23D0111D1960136827E0732A00F065
:10234000B48008D86F2A2AD0702AE5D10A6842F0F2
:1023500020020A6003E0752A21D0782ADCD1782295
:1023600084F845206E4964E01A6801F14205111DA8
:102370001960136884F842300123A3E011F0400F84
:1023800002F104011960D7D0B2F90030002B03DA52
:102390002D225B4284F8432062490A2217E020681C
:1023A000196810F0800F03D0081D18600B6806E054
:1023B00010F0400F01F104001860F7D00B88594964
:1023C0006F2A14BF0A220822002084F8430065689F
:1023D000A560002DC0F29C80206820F004002060E1
:1023E000002B3FD1002D40F095807546082A0BD177
:1023F0002368DA0708D5236962689A42DEBF302372
:1024000005F8013C05F1FF35AEEB05032361CDF87E
:1024100000803B4603AA21463046FFF7EFFE01301D
:1024200055D14FF0FF3005B0BDE8F08381F845206D
:102430003C492268186812F0800F00F104051D6005
:1024400001D0036802E05506FBD50388D00744BFDE
:1024500042F0200222601BB9226822F02002226092
:102460001022B1E77546B3FBF2F002FB1033CB5CF0
:1024700005F8013D03460028F5D1B7E708681A685A
:10248000496910F0800F04D0101D1860136819609E
:1024900007E010F0400F02F1040018601368F6D056
:1024A0001980002323617546B1E71A68111D196070
:1024B0001568626800212846FDF78AFE08B1401BB6
:1024C000606063682361002384F843309FE72369D9
:1024D0002A4639463046C0470130A2D023689B07C0
:1024E00007D5002504F11909E368039A9B1A9D4258
:1024F00005DBE068039B9842B8BF184693E70123C9
:102500004A4639463046C04701308AD00135EBE7AC
:10251000002BA7D10B7884F8423004F1420565E71F
:10252000C1270008B027000810B5431E0A44914295
:1025300000D110BD11F8014B03F8014FF7E78842B5
:1025400010B501EB020303D8421E99420CD110BD15
:102550009842F9D28118D21AD34200D110BD13F893
:10256000014D01F8014DF7E711F8014B02F8014F59
:10257000EBE7000038B50546002945D051F8043C8A
:102580000C1F002BB8BFE41800F0D6F81F4A1368E0
:10259000104633B9636014602846BDE8384000F047
:1025A000CCB8A3420CD921686218934204BF1A68C0
:1025B0005B68636004BF521822600460ECE7134656
:1025C0005A680AB1A242FAD919685818A0420BD128
:1025D00020680144581882421960DDD110685268A1
:1025E0005A6001441960D7E702D90C232B60D3E766
:1025F000206821188A4204BF11685268626004BFD3
:10260000091821605C60C7E738BD00BFA800002042
:1026100070B5CD1C25F0030508350C2D38BF0C25F1
:10262000002D064601DBA94203D90C2333600020AC
:1026300070BD00F081F8234A1468214691B9224CFC
:1026400023681BB9304600F067F820602946304601
:1026500000F062F8431C26D10C233360304600F0B2
:102660006CF8E4E70B685B1B1AD40B2B0FD90B60DB
:10267000CD50CC18304600F060F804F10B00231D5B
:1026800020F00700C31A1BD05A42E25070BD8C42A2
:102690000DBF63684B686360136018BF0C46E9E7C1
:1026A0000C464968CAE7C41C24F00304A04205D0C4
:1026B000211A304600F030F80130CDD02560D9E73E
:1026C00070BD00BFA8000020AC000020F8B5074690
:1026D00014460E4621B91146BDE8F840FFF798BFF1
:1026E00022B9FFF747FF25462846F8BD00F026F837
:1026F00084420FD921463846FFF78AFF0546002855
:10270000F2D031462246FFF70FFF31463846FFF739
:1027100031FFE9E73546E7E738B5064C00230546C3
:102720000846236000F014F8431C02D1236803B16B
:102730002B6038BDF80000207047704751F8040C3A
:102740000028A0F10400BCBF0B58C018704700005F
:10275000044B1968024609B9034919601868024414
:102760001A607047B0000020FC000020F8B500BFE0
:10277000F8BC08BC9E467047F8B500BFF8BC08BC62
:042780009E467047BA
:1027840025640000000000000000000102030406AC
:102794000708090000000001020304232D302B2048
:1027A40000686C4C0065666745464700303132333B
:1027B40034353637383941424344454600303132A6
:1027C4003334353637383961626364656600000036
:0827D400A0E2FF7F01000000FC
:0427DC00B50100083B
:0427E000910100085B
:1027E4000F3801000024F4000C0000200000000059
:1027F40000000000000000000000000000000000D5
:1028040000000000000000000000000000000000C4
:1028140000000000000000000000000000000000B4
:1028240000000000000000000000000000000000A4
:102834000000000000000000000000000000000094
:0C28440000000000000000000000000088
:0400000508001E7958
:00000001FF
