:020000040800F2
:1000000000000220A5110008F5110008F5110008F4
:10001000F5110008F5110008F511000800000000B6
:100020000000000000000000000000004711000870
:10003000F511000800000000491100084B110008EC
:10004000F5110008F5110008F5110008F511000878
:10005000F5110008F5110008F5110008F511000868
:10006000F5110008F5110008F5110008F511000858
:10007000F5110008F5110008F5110008F511000848
:10008000F5110008F5110008F5110008F511000838
:10009000F5110008F5110008F5110008F511000828
:1000A000F5110008F5110008F5110008F511000818
:1000B000F5110008F5110008F5110008F511000808
:1000C000F5110008F5110008F5110008F5110008F8
:1000D000F5110008F5110008F5110008F5110008E8
:1000E000F5110008F5110008F5110008F5110008D8
:1000F000F5110008F5110008F5110008F5110008C8
:10010000F5110008F5110008F5110008F5110008B7
:10011000F5110008F5110008F5110008F5110008A7
:10012000F5110008F5110008F5110008F511000897
:10013000F5110008F5110008F5110008F511000887
:10014000F5110008F5110008F5110008F511000877
:10015000F5110008F5110008F5110008F511000867
:10016000F5110008F5110008F5110008F511000857
:10017000F5110008F5110008F51100080000000055
:08018000F5110008F51100085B
:1001880010B5054C237833B9044B13B10448AFF3C9
:1001980000800123237010BD04000020000000002F
:1001A8004012000808B5034B1BB103490348AFF3DD
:1001B800008008BD00000000080000204012000870
:1001C80053B94AB9002908BF00281CBF4FF0FF31B6
:1001D8004FF0FF3000F07AB9ADF1080C6DE904CEAC
:1001E80000F006F8DDF804E0DDE9022304B070470A
:1001F8002DE9F0478C460D460446089E002B51D148
:100208008A4217466DD9B2FA82FEBEF1000F0BD0B2
:10021800CEF1200C01FA0EF520FA0CFC02FA0EF7CA
:100228004CEA050C00FA0EF44FEA174A250CBCFB01
:10023800FAF81FFA87F90AFB18CC45EA0C4508FBBF
:1002480009F3AB420AD9ED1908F1FF3280F0238196
:10025800AB4240F22081A8F102083D44ED1AA4B255
:10026800B5FBFAF00AFB105544EA054400FB09F90E
:10027800A14509D9E41900F1FF3380F00A81A145AD
:1002880040F2078102383C44A4EB090440EA0840E4
:100298000021002E61D024FA0EF40023346073602C
:1002A800BDE8F0878B4207D9002E54D0002186E89C
:1002B80021000846BDE8F087B3FA83F1002940F031
:1002C8008E80AB4202D3824200F2FA80841A65EB38
:1002D80003050120AC46002E3FD086E81010BDE88B
:1002E800F08712B90127B7FBF2F7B7FA87FEBEF11C
:1002F800000F34D1EB1B3A0C1FFA87FC0121B3FB2A
:10030800F2F8250C02FB183345EA03450CFB08F309
:10031800AB4207D9ED1908F1FF3002D2AB4200F227
:10032800D1808046ED1AA3B2B5FBF2F002FB10555E
:1003380043EA05440CFB00FCA44507D9E41900F185
:10034800FF3302D2A44500F2B8801846A4EB0C048F
:1003580040EA08409DE731463046BDE8F087CEF1D7
:10036800200405FA0EF307FA0EF720FA04F83A0CFF
:1003780025FA04F448EA0308B4FBF2F14FEA1845F9
:1003880002FB11441FFA87FC45EA044501FB0CF304
:10039800AB4200FA0EF409D9ED1901F1FF3080F0F3
:1003A8008A80AB4240F2878002393D44EB1A1FFA3B
:1003B80088F5B3FBF2F002FB103345EA034500FB76
:1003C8000CF3AB4207D9ED1900F1FF386FD2AB42FD
:1003D8006DD902383D44EB1A40EA01418FE7C1F17B
:1003E800200722FA07F88B4005FA01F448EA0303CC
:1003F80020FA07FE4FEA134CFD404EEA040EB5FB07
:10040800FCF94FEA1E440CFB19551FFA83F844EA1D
:10041800054509FB08F4AC4202FA01F200FA01FAB8
:1004280008D9ED1809F1FF3043D2AC4241D9A9F1FE
:1004380002091D442D1B1FFA8EFEB5FBFCF00CFBB8
:1004480010554EEA054400FB08F8A04507D9E41802
:1004580000F1FF3529D2A04527D902381C4440EACB
:100468000940A4EB0804A0FB02894C45C6464D464A
:1004780015D312D056B1BAEB0E0364EB050404FA97
:1004880007F7CB401F43CC40376074600021BDE8BC
:10049800F0871846F8E69046E0E6C245EAD2B8EB9F
:1004A800020E69EB03050138E4E72846D7E7404622
:1004B80091E78146BEE7014678E702383C4445E7C4
:1004C800084608E7A8F102083D442BE7704700BF3B
:1004D80010B5084B044618684FF47A73B0FBF3F074
:1004E80000F0A2F8002221464FF0FF3000F05AF841
:1004F800002010BD0000002008B50B4B1A6842F41C
:1005080000721A601A6842F480621A601A6842F42B
:1005180080721A60032000F027F80020FFF7D8FF48
:1005280000F0DDFD002008BD003C0240024A1368CF
:1005380001331360704700BF20000020014B18688A
:10054800704700BF2000002037B50190FFF7F6FF85
:10055800019C631C054618BF0134FFF7EFFF401BE1
:10056800A042FAD303B030BDC31E042B10B5044615
:1005780003D9A221094800F0B1FD094AD36823F440
:10058800E0631B041B0C43F0BF63240243F40033F5
:1005980004F4E0641C43D46010BD00BF5812000886
:1005A80000ED00E00F2A70B504460E46154603D943
:1005B800BA211A4800F092FD0F2E03D9BB21174823
:1005C80000F08CFD164BD968C1F30221C1F1070375
:1005D8000A1D042B28BF04230120062A8CBF0339D7
:1005E800002100FA03F2013A8840324001388A407B
:1005F8000540002C42EA05024FEA0212AFBF04F19F
:10060800604404F00F04074BD2B2A5BF04F561445F
:10061800D2B21A5584F8002370BD00BF58120008E2
:1006280000ED00E014ED00E00138B0F1807F0AD25F
:10063800064B074A5860F02182F823100020072251
:1006480098601A6070470120704700BF10E000E012
:1006580000ED00E0042810B5084C0AD020B140F2A3
:10066800D911074800F03AFD236823F004032360FA
:1006780010BD236843F00403F9E700BF10E000E071
:1006880058120008704708B5FFF7FCFF08BD0000C6
:100698009C4B98422DE9F74F04460D4623D003F5AD
:1006A800806398421FD003F5806398421BD003F5FE
:1006B8008063984217D003F58063984213D003F5FE
:1006C800806398420FD003F5806398420BD003F5FE
:1006D8008063984207D003F58063984203D0C32112
:1006E800894800F0FBFC2B689AB212B11B0C1B0462
:1006F8001BB1C421844800F0F1FC6B68032B17D9A7
:10070800A3F11102012A13D9804923F400128A4265
:100718000ED001F580118B420AD0A1F570218A42D2
:1007280006D07B4A934203D0C521774800F0D6FC17
:10073800AB68022B03D9C621734800F0CFFCDFF861
:10074800D881002601232A6803FA06F707EA020976
:100758004F4540F0C4806A6822F01002022A18D17E
:100768002A690D2A05D90F2A03D0D721664800F037
:10077800B5FCF10804EB810106F0070290000B6A52
:100788000F22824023EA020E2A69824042EA0E02C0
:100798000A626A6820684FEA460B4FF0030A0AFAB1
:1007A8000BFA02F003016FEA0A0A22F0100200EACB
:1007B8000A0001FA0BF1013A0143012A216017D816
:1007C800EA68032A03D9EA214F4800F087FCA168A8
:1007D800EA686B680AEA010102FA0BF20A43A260AE
:1007E8006268C3F3001322EA0702B340134363604D
:1007F800E36868680AEA030AAB6803FA0BF343EA9A
:100808000A03E360C3006AD5424A00230193516C8E
:1008180041F480415164526C26F0030101F180419A
:1008280002F4804201F59C31019206F0030E019A10
:10083800D1F808C04FEA8E0E0F2202FA0EF22CEA07
:10084800020C304A94421FD003F1804303F5013370
:100858009C424BD003F580639C4249D003F58063EA
:100868009C4247D003F580639C4245D003F58063E2
:100878009C4243D003F580639C4241D003F58063DA
:100888009C4214BF0823072303FA0EF343EA0C0320
:100898008B60D8F800206FEA0901C70354BF0A40EB
:1008A80049EA0202C8F80020D8F80420830354BF9C
:1008B8000A4049EA0202C8F80420D8F80820C7020A
:1008C80054BF0A4049EA0202C8F80820D8F80C3098
:1008D800820254BF0B4049EA0303C8F80C300136C2
:1008E800102E7FF42FAF03B0BDE8F08F0123CBE7C4
:1008F8000223C9E70323C7E70423C5E70523C3E7A2
:100908000623C1E7000002409312000800001110FE
:100918000000221000380240003C014070B5054636
:1009280016460C4621B940F2AF11084800F0D6FB34
:10093800012E06D94FF4D871044800F0CFFBAC6102
:1009480070BD002EFBD12404F9E700BF9312000804
:1009580038B505460C4621B94FF4E371034800F059
:10096800BDFB6B695C406C6138BD00BF9312000829
:10097800F7B5044610B9012003B0F0BD03680F2B8A
:1009880003D9F8219D4800F0A9FB2368DD0718D496
:10099800236898076BD423681A0700F1BE80236880
:1009A8005B0700F1E480A369022B04D940F2CF1160
:1009B800924800F093FBA269002A40F0428100208F
:1009C800DAE7636833F4803206D0B3F5A02F03D09A
:1009D800FD218A4800F082FB894B9A6802F00C02DC
:1009E800042A07D09A6802F00C02082A0AD15B6828
:1009F800590207D5824B1B689A03C9D56368002B37
:100A0800C6D1B8E763687E4DB3F5803F11D12B6836
:100A180043F480332B60FFF791FD794D06462B6830
:100A28009B03B5D4FFF78AFD801B6428F7D9032000
:100A3800A2E7B3F5A02F04D12B6843F480232B60E1
:100A4800E5E72A6822F480322A602A6822F48022A4
:100A58002A60002BDFD1FFF771FD06462B689F0344
:100A680096D5FFF76BFD801B6428F7D9DFE7E368AD
:100A7800012B04D940F22F11604800F02FFB2369A5
:100A88001F2B04D94FF498715C4800F027FB5C4B8E
:100A98009A6812F00C0F07D09A6802F00C02082A24
:100AA80012D15B685E020FD4554B1A68950703D5BF
:100AB800E268012A7FF45FAF1A68216922F0F80220
:100AC80042EAC1021A6066E7E2684E4BB2B10122FF
:100AD8001A60FFF733FD4A4D06462B68980707D57D
:100AE8002B68226923F0F80343EAC2032B6052E71C
:100AF800FFF724FD801B0228EFD998E71A60FFF75B
:100B08001DFD3F4D06462B6899077FF544AFFFF75B
:100B180015FD801B0228F6D989E76369012B04D9E2
:100B28004FF4B871354800F0D9FA6269364B7AB19A
:100B380001221A60FFF702FD314D06466B6F9F07D1
:100B48003FF52DAFFFF7FAFC801B0228F6D96EE7B8
:100B58001A60FFF7F3FC2A4D06466B6F98077FF57E
:100B68001EAFFFF7EBFC801B0228F6D95FE7A368EE
:100B7800012B06D9052B04D04FF4CD711F4800F086
:100B8800ADFA002301931E4B204D1A6C42F080529F
:100B98001A641B6C03F080530193019B2B6843F488
:100BA80080732B60FFF7CAFC06462B68D90517D55A
:100BB800A368134D012B19D12B6F43F001032B6749
:100BC800FFF7BCFC0E4D064641F288372B6F9A079B
:100BD8003FF5E9AEFFF7B2FC801BB842F6D926E72D
:100BE800FFF7ACFC801B0228DFD920E7052B0FD1CB
:100BF8002B6F43F004032B67DEE700BFCC1200081D
:100C08000038024000004742800E47420070004012
:100C18002A6F22F001022A672A6F22F004022A674B
:100C2800002BCDD1FFF78AFC41F2883706462B6F9F
:100C38009B077FF5B8AEFFF781FC801BB842F6D959
:100C4800F5E63C4EB36803F00C03082B3FF493AE73
:100C5800022A394D5ED1E36933F4800304D04FF49E
:100C6800EC71364800F03AFA236A3F2B04D940F277
:100C7800D911324800F032FA636A323BB3F5BF7FCC
:100C880004D94FF4ED712D4800F028FAA26A082A19
:100C980004D84FF4AA73D340D80704D440F2DB1128
:100CA800264800F01BFAE36A023B0D2B04D94FF4E7
:100CB800EE71224800F012FA00232B60FFF73EFC89
:100CC8001C4E0746336899011ED4226AE369134310
:100CD800626A43EA8213E26A43EA0263A26A154C33
:100CE8005208013A43EA0243736001232B60FFF77D
:100CF80025FC054623689A013FF561AEFFF71EFC07
:100D0800401B0228F6D992E6FFF718FCC01B022800
:100D1800D8D98CE600232B60FFF710FC0446336813
:100D28009B017FF54CAEFFF709FC001B0228F6D9A2
:100D38007DE600BF0038024060004742CC12000840
:100D4800134908B58B6803F00C03042B03D0082B58
:100D580003D0104808BD104808BD4A684B68496868
:100D680013F4800314BF0C480A48C1F3881118BF54
:100D7800002302F03F02A1FB0001FFF721FA044B18
:100D88005B68C3F3014301335B00B0FBF3F008BDBC
:100D9800003802400024F40000127A002DE9F041E6
:100DA8000D46044610B90120BDE8F0810368013BF7
:100DB8000E2B04D94FF410716D4800F08FF9072DF0
:100DC80004D940F241216A4800F088F9694B1A6851
:100DD80002F00F0295423DD82268960742D4236854
:100DE800D9076CD4634B1A6802F00F029542C0F021
:100DF8009C8023685A0700F1A18023681B0718D537
:100E0800236933F480520CD023F40062B2F5A05F5A
:100E180007D0B3F5C05F04D04FF42C71544800F0EC
:100E28005DF9554A2169936823F4604343EAC10395
:100E38009360FFF785FF504B504A9B68C3F3031339
:100E4800D35CD8404E4B18600020FFF741FB0020D0
:100E5800BDE8F081EAB21A701B6803F00F039D42E7
:100E6800A1D1B9E7444B12F0040F1EBF996841F4B1
:100E7800E0519960100742BF9A6842F460429A6054
:100E8800A36833F0800212D023F02002902A0ED0FB
:100E980023F04002A02A0AD023F01002C02A06D06C
:100EA800F02B04D04FF41971314800F017F9324A89
:100EB800A168936823F0F0030B4393608FE763689E
:100EC800032B04D940F26B21294800F007F9626826
:100ED800294B012A1FD11B6813F4003F3FF463AF6D
:100EE800254EB36823F003031343B360FFF726FBD3
:100EF80041F288380746B368626803F00C03B3EB25
:100F0800820F3FF46FAFFFF719FBC01B4045F2D9C2
:100F18000320BDE8F081911E01291B6802D813F057
:100F2800007FDBE713F0020FD8E7EAB21A701B68FC
:100F380003F00F039D427FF436AF5AE7E36833F4BA
:100F480080520CD023F40062B2F5A05F07D0B3F54D
:100F5800C05F04D040F2A921054800F0BFF8064A56
:100F6800E168936823F4E0530B43936045E700BFBF
:100F7800CC120008003C024000380240041300086C
:100F880000000020014B1868704700BF00000020D7
:100F980010B594B0284B002101911A6C42F0805290
:100FA8001A641B6C03F080530193019B234B02913D
:100FB8001A6842F480421A601B6803F48043029363
:100FC800029B012308934FF4803309934FF4800365
:100FD8000F93082310934FF4A8730224119308A8C1
:100FE80007230E9412941393FFF7C2FC00B1FEE797
:100FF8000F2303934FF4A0530590069305214FF454
:10100800805303A804940793FFF7C8FE044600B171
:10101800FEE7FFF7B7FF4FF47A73B0FBF3F0FFF783
:1010280003FB0420FFF716FB224621464FF0FF3052
:10103800FFF7B8FA14B010BD003802400070004045
:1010480000B589B00024FFF757FAFFF7A1FF214B3D
:1010580001941A6B204842F080021A631A6B02F05E
:1010680080020192019A02941A6B42F008021A63F4
:101078001B6B03F00803224602934FF47041029B56
:10108800FFF74CFC4FF47043039303A90123124864
:10109800059406940493FFF7FBFA0F4C4FF40041B4
:1010A8002046FFF755FC4FF4FA70FFF74DFA4FF45E
:1010B80080412046FFF74CFC4FF4FA70FFF744FAE2
:1010C80020464FF40051FFF743FC4FF4FA70FFF746
:1010D8003BFAE3E700380240000C0240704708B5CD
:1010E8000720FFF741FA002211466FF00B00FFF7C7
:1010F80059FA002211466FF00A00FFF753FA00224E
:1011080011466FF00900FFF74DFA002211466FF003
:101118000400FFF747FA002211466FF00300FFF7BB
:1011280041FA002211466FF00100FFF73BFA002256
:1011380011464FF0FF30BDE80840FFF733BA70475B
:10114800704708B5FFF7F2F9BDE80840FFF79BBA0A
:101158000F49D1F8883043F47003C1F888300D4B3B
:101168001A68002042F001021A6098601A6822F09A
:10117800847222F480321A60074A5A601A6822F48C
:1011880080221A60D8604FF000638B60704700BF00
:1011980000ED00E00038024010300024DFF834D0C1
:1011A800002103E00C4B5B58435004310B480C4BB7
:1011B80042189A42F6D30B4A02E0002342F8043B55
:1011C800094B9A42F9D3FFF7C3FF00F011F8FFF774
:1011D80037FF704700000220241300080000002099
:1011E800040000200400002024000020FEE7000086
:1011F80070B50D4E0D4CA41BA4100025A54209D1B5
:101208000B4E0C4C00F018F8A41BA4100025A542A6
:1012180005D170BD56F8253098470135EEE756F8E8
:10122800253098470135F2E71C1300081C13000805
:101238001C13000820130008F8B500BFF8BC08BC50
:101248009E467047F8B500BFF8BC08BC9E4670477C
:101258002E2E5C447269766572735C53544D33323A
:10126800463478785F48414C5F4472697665725CB1
:101278005372635C73746D3332663478785F686177
:101288006C5F636F727465782E63002E2E5C4472F7
:1012980069766572735C53544D3332463478785F9F
:1012A80048414C5F4472697665725C5372635C7343
:1012B800746D3332663478785F68616C5F67706923
:1012C8006F2E63002E2E5C447269766572735C53D0
:1012D800544D3332463478785F48414C5F447269E4
:1012E8007665725C5372635C73746D3332663478FE
:1012F800785F68616C5F7263632E630000000000B2
:0C130800000000000102030406070809B1
:08131400E4EEFF7F0100000080
:04131C00AD01000817
:041320008901000837
:041324000024F400AD
:04000005080011A539
:00000001FF
