:100000000C942D010C945E010C945E010C945E0125
:100010000C945E010C945E010C945E010C945E01E4
:100020000C945E010C945E010C945E010C945E01D4
:100030000C945E010C945E010C945E010C945E01C4
:100040000C945E010C945E010C945E010C945E01B4
:100050000C945E010C945E010C945E010C940E06EF
:100060000C945E010C94E4050C94BA050C945E01AA
:100070000C945E010C945E010C945E010C945E0184
:100080000C945E010C945E010C945E010C945E0174
:100090000C9490050C9466050C945E010C945E0122
:1000A0000C945E010C945E010C945E010C945E0154
:1000B0000C945E010C945E010C945E010C945E0144
:1000C0000C945E010C945E010C945E010C943C0552
:1000D0000C9412050C945E010C945E010C945E016C
:1000E0000C945E010C9434030C944E030C944A035C
:1000F0000C9481030C9469020C9455030C947B03BB
:100100000C942F030C94FB010C946D030C94580673
:100110000C9446030C940F020C9477030C9469031F
:100120000C941D020C945F0A0C9452030C94A601CB
:100130000C945F030C94EC010C9465030C94B602D0
:100140000C942F040C9473030C945B030C948503A0
:1001500000000A0B02090C0D0E0807030401000041
:10016000000000000000000000000000000000008F
:10017000000000000000000000000000121110004C
:10018000000000000000000000000000000000006F
:1001900000000000000000002200250028002B00C5
:1001A0002E003100340002010000050108010B019E
:1001B00000002100240027002A002D003000330019
:1001C00001010000040107010A01050505050705F5
:1001D00008080808020202020A0A080804040404C3
:1001E00001010101010101010303030303030303EF
:1001F000040707070C0C0C0C0C0C0C0C020202027E
:1002000006060606060606060B0B0B0B0B0B0B0B66
:100210000102102020080810204010204080020118
:1002200002010804020101020408102040808040FD
:1002300020100804020180040201804020100804FC
:10024000020108040201010204081020408001029A
:1002500004081020408058065F0A11241FBECFEF0B
:10026000D1E2DEBFCDBF00E00CBF24E0A4E2B2E0EB
:1002700001C01D92AC3DB207E1F712E0A0E0B2E090
:10028000E4E1FAE100E00BBF02C007900D92A43256
:10029000B107D9F711E0CCE2D1E000E006C0219728
:1002A0000109802FFE010E94D10ACB32D10780E0E4
:1002B0000807A9F70E9452070C94F80C0C94000050
:1002C000FC01A089B18982E08C93A485B5851C923C
:1002D000A685B7858FEC8C93108EA489B58986E0AE
:1002E0008C93A289B3898C9180618C93A289B38904
:1002F0008C9188608C93A289B3898C9180688C934F
:100300000288F389E02D80818F7D8083089590E0BD
:10031000FC01E05FFD4F249186539E4FFC018491C8
:10032000882399F090E0880F991FFC01E055FE4F5B
:10033000A591B491FC01EA56FE4F859194918FB737
:10034000F894EC91E22BEC938FBF0895AF92BF929B
:10035000CF92DF92EF92FF920F931F93CF93DF9391
:100360006C017B018B01040F151FEB015E01AE18C0
:10037000BF08C017D10759F06991D601ED91FC91E2
:100380000190F081E02DC6011995892B79F7C501FF
:10039000DF91CF911F910F91FF90EF90DF90CF9061
:1003A000BF90AF900895FC01A089B1898C91A68976
:1003B000B78982FD0FC09C91818D8F5F8F73228DD5
:1003C000821749F0A18DAE0FBF2FB11D5D969C9392
:1003D000818F08958C910895FC01538D448D252FB4
:1003E00030E0842F90E0821B930B541710F0CF96CF
:1003F000089501970895FC01918D828D981761F001
:10040000A28DAE0FBF2FB11D5D968C91928D9F5F17
:100410009F73928F90E008958FEF9FEF0895FC01F6
:10042000918D828D981731F0828DE80FF11D858DA9
:1004300090E008958FEF9FEF0895FC01918D228D3C
:10044000892F90E0805C9F4F821B91098F739927C1
:10045000089583E392E00E941D0221E0892B09F4B4
:1004600020E0822F089580ED92E00E941D0221E09D
:10047000892B09F420E0822F08958DE693E00E94F5
:100480001D0221E0892B09F420E0822F0895FC0150
:10049000A48DA80FB92FB11DA35ABF4F2C91848DE5
:1004A00090E001968F739927848FA689B7892C9342
:1004B000A089B1898C91837080648C93938D848D95
:1004C000981306C00288F389E02D80818F7D808398
:1004D0000895EF92FF920F931F93CF93DF93EC0158
:1004E00081E0888F9B8D8C8D98131AC0E889F989DB
:1004F000808185FF15C09FB7F894EE89FF896083DE
:10050000E889F98980818370806480839FBF81E05E
:1005100090E0DF91CF911F910F91FF90EF900895A0
:10052000F62E0B8D10E00F5F1F4F0F731127E02E7B
:100530008C8D8E110CC00FB607FCFACFE889F989B3
:10054000808185FFF5CFCE010E944702F1CFEB8D70
:10055000EC0FFD2FF11DE35AFF4FF0829FB7F89487
:100560000B8FEA89FB8980818062CFCFCF93DF93A5
:10057000EC01888D8823B9F0AA89BB89E889F989BB
:100580008C9185FD03C0808186FD0DC00FB607FCF0
:10059000F7CF8C9185FFF2CF808185FFEDCFCE0123
:1005A0000E944702E9CFDF91CF91089580E090E06B
:1005B000892B29F00E943D0281110E94000080E0F9
:1005C00090E0892B29F00E94330281110E940000E3
:1005D00080E090E0892B29F00E94290281110E947D
:1005E000000080E090E0892B49F080E090E0892BCA
:1005F00029F00E94000081110C9400000895282F1A
:1006000030E0F901E05BFE4F9491F901E05FFD4FAE
:10061000449126533E4FF9012491222309F435C019
:10062000992311F191509231F8F4E92FF0E08827E5
:10063000E35EFC4F8F4F0C94D10A4E0352032F03FD
:1006400046034A03340355035B035F0365036903F1
:100650006D037303770334037B0381038503809168
:1006600080008F7780938000E22FF0E0EE0FFF1F75
:10067000EA56FE4FA591B4918FB7F894EC916111B1
:1006800048C040954E234C938FBF089580918000C1
:100690008F7DE8CF80918000877FE4CF84B58F770E
:1006A00084BDE2CF84B58F7DFBCF8091B0008F7782
:1006B0008093B000D9CF8091B0008F7DF9CF809129
:1006C00090008F7780939000CFCF809190008F7DA6
:1006D000F9CF80919000877FF5CF8091A0008F7730
:1006E0008093A000C1CF8091A0008F7DF9CF809131
:1006F000A000877FF5CF809120018F778093200124
:10070000B3CF809120018F7DF9CF80912001877F29
:10071000F5CF4E2BB8CF8F929F92AF92BF92EF92B0
:10072000FF920F931F93CF93DF93CDB7DEB7A197BF
:100730000FB6F894DEBF0FBECDBF7C01FA01CB012E
:1007400019A2223008F42AE08E010F5D1F4F822E7D
:10075000912CB12CA12CBF01A50194010E94AF0ADC
:10076000F901CA016A304CF5605DD8016E938D01C4
:10077000232B242B252B79F790E080E0109761F054
:10078000FD0101900020E9F73197AF014A1B5B0B97
:10079000BD01C7010E94A601A1960FB6F894DEBF65
:1007A0000FBECDBFDF91CF911F910F91FF90EF90C2
:1007B000BF90AF909F908F900895695CD6CF42E034
:1007C00050E068E172E00C94A601CF92DF92EF92C4
:1007D000FF920F931F93CF93DF938C016B01770FE1
:1007E000EE08FF08F7FE1FC06DE20E946902EC01EF
:1007F00044275527BA014C195D096E097F092AE083
:10080000C8010E948B03C80FD91FC8010E94DF03D3
:100810008C0F9D1FDF91CF911F910F91FF90EF9053
:10082000DF90CF9008952AE0B701A6010E948B03C4
:10083000EC01EBCFFC0124813581232B39F421E03D
:10084000FB018081882349F020E007C080819181ED
:100850000E94E80C21E0892BB9F7822F089580913E
:100860002E028130D9F480912F02909130020097AE
:10087000C1F46BE172E080E294E00E941A0460E04F
:10088000811109C06EE172E080E294E00E941A04D6
:10089000882321F061E082E00E94FF0210922E0284
:1008A00008950197D9F76BE172E080E294E00E942D
:1008B0001A0460E0811109C06EE172E080E294E008
:1008C0000E941A04882351F361E083E0E5CF0F937F
:1008D0001F93CF93DF93EC0188819981009759F0A2
:1008E0002A813B812617370730F081E0DF91CF91D5
:1008F0001F910F9108958B016F5F7F4F0E94FE0B38
:10090000009759F0998388831B830A832C813D814A
:10091000232B59F7FC011082E8CF80E0E7CFEF925C
:10092000FF920F931F93CF93DF931F921F92CDB728
:10093000DEB78C0169831A82FC01E480F580FFEF49
:10094000EF1AFF0AB7010E946704882381F0F801BB
:100950002081318184819581BE016F5F7F4F820F3D
:10096000931F0E94F10CF801F582E48281E00F9060
:100970000F90DF91CF911F910F91FF90EF9008950D
:10098000CF93DF93EC0188819981009711F00E9449
:10099000750B198218821D821C821B821A82DF91BC
:1009A000CF910895EF92FF920F931F93CF93DF9310
:1009B000EC017B018A01BA010E94670481110BC01E
:1009C000CE010E94C004CE01DF91CF911F910F9103
:1009D000FF90EF9008951D830C83B7018881998162
:1009E0000E94F10CF0CFFC0111821082138212825E
:1009F0001582148250E040E06AE172E00C94D20467
:100A0000FB0101900020E9F73197AF01461B570B1E
:100A10000C94D204FC0180819181009711F00C9418
:100A2000750B08951F920F920FB60F9211240BB6FB
:100A30000F922F933F934F935F936F937F938F9377
:100A40009F93AF93BF93EF93FF9383E392E00E9452
:100A50004702FF91EF91BF91AF919F918F917F914D
:100A60006F915F914F913F912F910F900BBE0F901F
:100A70000FBE0F901F9018951F920F920FB60F92F6
:100A800011240BB60F922F933F934F935F936F9365
:100A90007F938F939F93AF93BF93EF93FF9383E3E2
:100AA00092E00E94D301FF91EF91BF91AF919F918E
:100AB0008F917F916F915F914F913F912F910F9007
:100AC0000BBE0F900FBE0F901F9018951F920F92A4
:100AD0000FB60F9211240BB60F922F933F934F93A3
:100AE0005F936F937F938F939F93AF93BF93EF9396
:100AF000FF9380ED92E00E944702FF91EF91BF913A
:100B0000AF919F918F917F916F915F914F913F91A5
:100B10002F910F900BBE0F900FBE0F901F90189546
:100B20001F920F920FB60F9211240BB60F922F93B4
:100B30003F934F935F936F937F938F939F93AF9365
:100B4000BF93EF93FF9380ED92E00E94D301FF915A
:100B5000EF91BF91AF919F918F917F916F915F9135
:100B60004F913F912F910F900BBE0F900FBE0F90A2
:100B70001F9018951F920F920FB60F9211240BB66B
:100B80000F922F933F934F935F936F937F938F9326
:100B90009F93AF93BF93EF93FF938DE693E00E94F3
:100BA0004702FF91EF91BF91AF919F918F917F91FC
:100BB0006F915F914F913F912F910F900BBE0F90CE
:100BC0000FBE0F901F9018951F920F920FB60F92A5
:100BD00011240BB60F922F933F934F935F936F9314
:100BE0007F938F939F93AF93BF93EF93FF938DE684
:100BF00093E00E94D301FF91EF91BF91AF919F913C
:100C00008F917F916F915F914F913F912F910F90B5
:100C10000BBE0F900FBE0F901F9018951F920F9252
:100C20000FB60F9211242F933F938F939F93AF93FF
:100C3000BF9380910A0490910B04A0910C04B09191
:100C40000D043091280223E0230F2D3758F501962B
:100C5000A11DB11D2093280280930A0490930B04D8
:100C6000A0930C04B0930D0480912402909125026E
:100C7000A0912602B09127020196A11DB11D80937B
:100C8000240290932502A0932602B0932702BF91DD
:100C9000AF919F918F913F912F910F900FBE0F9029
:100CA0001F90189526E8230F0296A11DB11DD2CFE3
:100CB000CF93DF93109236021092350248EE53E044
:100CC00060E070E04093370250933802609339023D
:100CD00070933A028AE092E0909334028093330258
:100CE00025ED30E03093400220933F0224ED30E0C8
:100CF000309342022093410220ED30E030934402D1
:100D00002093430221ED30E03093460220934502C8
:100D100022ED30E0309348022093470226ED30E088
:100D200030934A022093490210924C0210924D02D5
:100D300010924E0210924F021092D3021092D202E1
:100D40004093D4025093D5026093D6027093D70299
:100D50009093D1028093D0022DEC30E03093DD02ED
:100D60002093DC022CEC30E03093DF022093DE0293
:100D700028EC30E03093E1022093E00229EC30E0EF
:100D80003093E3022093E2022AEC30E03093E50254
:100D90002093E4022EEC30E03093E7022093E60249
:100DA0001092E9021092EA021092EB021092EC0209
:100DB0001092700310926F0340937103509372036B
:100DC000609373037093740390936E0380936D0329
:100DD00085EC90E090937A038093790384EC90E023
:100DE00090937C0380937B0380EC90E090937E0350
:100DF00080937D0381EC90E09093800380937F0348
:100E000082EC90E0909382038093810386EC90E0E3
:100E10009093840380938303109286031092870338
:100E200010928803109289038FB7F89440910A04B6
:100E300050910B0460910C0470910D048FBFC8EBAE
:100E4000D4E0E4E5F4E02CE234E01992119211923E
:100E5000D9014D935D936D937D939D01CF01825B8D
:100E60009F4FDC011D921C92B4E0E836FB0769F746
:100E70001092D7041092D60486E294E00E94F30404
:100E800080E294E00E94F3048AE194E00E94F3047B
:100E900084E194E00E94F3048EE094E0DF91CF912E
:100EA0000C94F304CF93DF9300D000D000D01F92B6
:100EB000CDB7DEB7789484B5826084BD84B5816097
:100EC00084BD85B5826085BD85B5816085BD809115
:100ED0006E00816080936E0010928100809181008D
:100EE0008260809381008091810081608093810085
:100EF000809180008160809380008091B100846047
:100F00008093B1008091B00081608093B0008091A7
:100F10009100826080939100809191008160809324
:100F20009100809190008160809390008091A10059
:100F300082608093A1008091A10081608093A100D4
:100F40008091A00081608093A00080912101826047
:100F50008093210180912101816080932101809102
:100F6000200181608093200180917A0084608093C9
:100F70007A0080917A00826080937A0080917A0072
:100F8000816080937A0080917A00806880937A00F3
:100F90001092C1008DE693E00E94600180ED92E026
:100FA0000E94600183E392E00E94600182E00E945F
:100FB000870183E00E94870161E082E00E94FF02D6
:100FC00061E083E00E94FF0268EC70E086E294E05A
:100FD0000E9467048091D6049091D7040A976CF41C
:100FE000E4E5F4E090E080E021913191232B09F4D5
:100FF00022C201968A309105B9F722242394312C1C
:1010000047C16F01BEE4CB0ED11CD6016D917C911E
:10101000621773070CF08EC1AF0144595F4FDA01BC
:101020002D923C926F5F7F4FD6016D937C93621738
:1010300073070CF47FC122E030E0DA012D933C937A
:1010400079C1D8019896ED91FC9119958DC1D8017F
:101050009896ED91FC9119958091D6049091D704C2
:10106000009709F481C1F80120A531A5232B09F4CB
:101070007BC111A610A6F501E854FB4F1082D601E2
:101080001D921C92F501EE0FFF1FEE0FFF1FE45D96
:10109000FB4F14AE15AE16AE17AEF801E858FF4F71
:1010A0001182108201979093D7048093D6045CC17B
:1010B0008AE194E00E94C00485C1E00FF11F97C14E
:1010C0002091310280911E0490911F04211116C0BD
:1010D0000817190730F4E0911A04F0911B043097B7
:1010E00051F410922902E9E2F2E0608184E194E097
:1010F0000E948F049DC1E00FF11FF7CF213009F04E
:1011000097C10817190730F4E0911A04F0911B04F5
:10111000309741F410922902E9E2F2E060818EE01A
:1011200094E0E6CFE00FF11FF9CF109231028091E9
:101130001404909115040097E1F10E94730A7093D2
:10114000300260932F0260910E0470910F046115BC
:10115000710599F1409112045091130480E294E0DA
:101160000E94D2046AE172E084E194E00E940005EA
:101170006AE172E08EE094E00E94000521E0209395
:101180002E026AE172E086E294E00E94000510926D
:1011900032028DE693E00E941D02892BC9F08DE694
:1011A00093E00E94FB018D3069F431E0309332020C
:1011B000F0CF60E070E0CB01C2CF80E294E00E940B
:1011C000C004D0CF682F86E294E00E948F04E1CF64
:1011D00080ED92E00E941D02892B29F180ED92E0C2
:1011E0000E94FB01BC016053710970932D02609352
:1011F0002C0280ED92E00E94E50380912C029091F8
:101200002D021092300210922F026BE172E00197D2
:1012100011F06EE172E080E294E00E94000541E08E
:1012200040932E02D5CF83E392E00E941D02892BCA
:1012300069F183E392E00E94FB01BC0160537109F4
:1012400070932B0260932A0283E392E00E94E503ED
:1012500080912A0290912B028130910571F4909334
:10126000300280932F026BE172E080E294E00E94F2
:10127000000591E090932E02D6CF81E090E090930C
:10128000300280932F026EE172E0EFCF0E94D6020F
:101290008FB7F89480900A0490900B04A0900C04EF
:1012A000B0900D048FBFE4E5F4E00CE214E01A877F
:1012B000098790E080E0AF0142595F4FDA011D924B
:1012C0001C92208131813296232BA1F1A985BA8508
:1012D0004D915D916D917C911397DC964D905D9051
:1012E0006D907C90DF9775016401C41AD50AE60AF7
:1012F000F70AC414D504E604F704E0F0440D551DC4
:10130000661D771D4D935D936D937C9313979C01A0
:1013100028543B4FD9012C91222361F022AD33ADEB
:101320002115310509F06DCE9F0124593F4FD90198
:101330002D923C920196A985BA851496BA87A98701
:101340008A30910509F0B7CFB12CA12C6801B6E91C
:10135000CB0ED11CF601808191818130910509F479
:1013600070CE029709F473CEBFEFAB1ABB0A0E5FC3
:101370001F4FEAE0AE16B10449F78091320288238C
:1013800009F407CF40912A0450912B046091260460
:10139000709127048DE693E00E94A6018DE693E00C
:1013A0000E94DF0360912604709127046115710586
:1013B00009F47ECE40912A0450912B048AE194E0F6
:1013C0000E94D20410E000E080911E0490911F045E
:1013D0000817190708F0A9CEE0911A04F0911B0430
:1013E000309709F06ACE10922902E9E2F2E080819A
:1013F0001A8219821C821B821E821D828F8318868C
:10140000BE01695F7F4FCE0101960E94000562E236
:1014100072E0CE0101960E941A04D82ECE010196E8
:101420000E940A05DD2009F44BCEF1E0F093310271
:101430000F5F1F4FC9CFFC01EE0FFF1FEE0FFF1F05
:10144000E859FB4F44E650E060E070E04083518390
:1014500062837383FC01EE0FFF1FEC5AFB4F2FE2F8
:1014600034E031832083FC01EE0FFF1FE057FB4F78
:1014700011821082FC01E854FB4F21E020832FB73A
:10148000F89440910A0450910B0460910C047091FF
:101490000D042FBF880F991F880F991FFC01E45D71
:1014A000FB4F40835183628373838091D604909174
:1014B000D70401969093D7048093D6049ECD8EE0F6
:1014C00094E00E940A0584E194E00E940A058AE102
:1014D00094E00E940A0580E294E00E940A0586E2F8
:1014E00094E00C940A051F93FC0199278827BC01FE
:1014F000E89411911032E9F3193010F01E30C8F35E
:101500001B3251F01D3249F4689406C00E949A0AB9
:10151000610F711D811D911D119110531A30B0F38F
:101520003EF490958095709561957F4F8F4F9F4FBA
:101530001F910895592F482F372F262F660F771F99
:10154000881F991F660F771F881F991F620F731FCF
:10155000841F951F660F771F881F991F0895A1E2AA
:101560001A2EAA1BBB1BFD010DC0AA1FBB1FEE1F1D
:10157000FF1FA217B307E407F50720F0A21BB30B68
:10158000E40BF50B661F771F881F991F1A9469F7E4
:1015900060957095809590959B01AC01BD01CF0140
:1015A0000895EE0FFF1F881F8BBF0790F691E02D67
:1015B00019940F931F93CF93DF938230910510F40A
:1015C00082E090E0E091DA04F091DB0430E020E08A
:1015D000B0E0A0E0309799F42115310509F44AC034
:1015E000281B390B24303105D8F58A819B81611580
:1015F000710589F1FB0193838283FE0111C0408153
:1016000051810281138148175907E0F048175907A3
:1016100099F4109761F012960C93129713961C93FD
:101620003296CF01DF91CF911F910F9108950093D2
:10163000DA041093DB04F4CF2115310551F0421781
:10164000530738F0A901DB019A01BD01DF01F80160
:10165000C1CFEF01F9CF9093DB048093DA04CDCFB3
:10166000FE01E20FF31F81939193225031093983D8
:101670002883D7CF2091D8043091D904232B41F46B
:1016800020910202309103023093D9042093D804B0
:1016900020910002309101022115310541F42DB74E
:1016A0003EB74091040250910502241B350BE09196
:1016B000D804F091D904E217F307A0F42E1B3F0BD6
:1016C0002817390778F0AC014E5F5F4F24173507B4
:1016D00048F04E0F5F1F5093D9044093D804819374
:1016E00091939FCFF0E0E0E09CCFCF93DF93009702
:1016F000E9F0FC01329713821282A091DA04B091D2
:10170000DB04ED0130E020E01097A1F4208131816D
:10171000820F931F2091D8043091D90428173907DC
:1017200009F061C0F093D904E093D804DF91CF9120
:101730000895EA01CE17DF07E8F54A815B819E0133
:1017400041155105B1F7E901FB83EA8349915991AC
:10175000C40FD51FEC17FD0761F4808191810296BB
:10176000840F951FE90199838883828193819B83EC
:101770008A83F0E0E0E012968D919C911397009798
:10178000B9F52D913C911197CD010296820F931FCF
:101790002091D8043091D9042817390739F63097A9
:1017A00051F51092DB041092DA04B093D904A0939F
:1017B000D804BCCFD383C28340815181840F951F4D
:1017C000C817D90761F44E5F5F4F88819981480F30
:1017D000591F518340838A819B8193838283211582
:1017E000310509F0B0CFF093DB04E093DA049ECF2B
:1017F000FD01DC01C0CF13821282D7CF4F925F92DE
:101800006F927F928F929F92AF92BF92CF92DF9210
:10181000EF92FF920F931F93CF93DF938C0100976A
:1018200099F4CB01DF91CF911F910F91FF90EF9031
:10183000DF90CF90BF90AF909F908F907F906F90F0
:101840005F904F900C94D90AFC01E60FF71F9C01A2
:1018500022503109E217F30708F4AEC0D901CD9147
:10186000DC911197C617D70720F1C530D10578F064
:10187000CE0104978617970750F0C61BD70B229707
:10188000C193D1936D937C93CF010E94750BC801D6
:10189000DF91CF911F910F91FF90EF90DF90CF904C
:1018A000BF90AF909F908F907F906F905F904F9080
:1018B00008955B01AC1ABD0A4C018C0E9D1EA091CF
:1018C000DA04B091DB04512C412CF12CE12C10975F
:1018D00031F58091D8049091D9048815990509F0C3
:1018E0005CC04616570608F058C0809100029091DF
:1018F0000102009741F48DB79EB7409104025091C8
:101900000502841B950BE817F90708F055C0F09302
:10191000D904E093D804F90171836083B8CF8D9125
:101920009C91119712966C90129713967C90139736
:10193000A815B90559F56C0142E0C40ED11CCA14B2
:10194000DB0420F1AC014A195B09DA011296159704
:1019500080F06282738251834083D9016D937C93BE
:10196000E114F10471F0D7011396FC93EE931297F2
:101970008ECF22968C0F9D1FF90191838083F301F6
:10198000EFCFF093DB04E093DA0481CF48165906D9
:1019900008F42C017D01D3019ACFCB010E94D90A12
:1019A0007C01009749F0AE01B8010E94DF0CC8012C
:1019B0000E94750B87016BCF10E000E068CFFB0140
:1019C000DC0102C001900D9241505040D8F70895BB
:1019D000FB01DC018D91019080190110D9F3990B65
:1019E0000895FB01DC0101900D920020E1F70895BC
:1019F00011E0CCE2D1E000E006C0802FFE010E94A1
:101A0000D10A2196011DCD32D10780E00807A9F740
:041A1000F894FFCF78
:101A14000000DC048000000000006902A601EC0163
:101A2400B6021D02FB010F020D0A006F6E006F6605
:041A340066002B001D
:00000001FF
