:020000040800F2
:100000000000022085140008191400081B140008C1
:100010001D1400081F14000821140008000000002F
:100020000000000000000000000000002314000891
:1000300025140008000000002714000829140008F7
:10004000D5140008D5140008D5140008D5140008EC
:10005000D5140008D5140008D5140008D5140008DC
:10006000D5140008D5140008D5140008D5140008CC
:10007000D5140008D5140008D5140008D5140008BC
:10008000D5140008D5140008D5140008D5140008AC
:10009000D5140008D5140008D5140008D51400089C
:1000A000D5140008D5140008D5140008D51400088C
:1000B000D5140008D5140008D5140008D51400087C
:1000C000D5140008D5140008D5140008D51400086C
:1000D000D5140008D5140008D5140008D51400085C
:1000E000D5140008D5140008D5140008D51400084C
:1000F000D5140008D5140008D5140008D51400083C
:10010000D5140008D5140008D5140008D51400082B
:10011000D5140008D5140008D5140008D51400081B
:10012000D5140008D5140008D5140008D51400080B
:10013000D5140008D5140008D5140008D5140008FB
:10014000D5140008D5140008D5140008D5140008EB
:10015000D5140008D5140008D5140008D5140008DB
:10016000D5140008D5140008D5140008D5140008CB
:10017000D5140008D5140008D514000800000000AC
:08018000D5140008D514000895
:1001880010B5054C237833B9044B13B10448AFF3C9
:1001980000800123237010BD04000020000000002F
:1001A8002015000808B5034B1BB103490348AFF3FA
:1001B800008008BD0000000008000020201500088D
:1001C80053B94AB9002908BF00281CBF4FF0FF31B6
:1001D8004FF0FF3000F07AB9ADF1080C6DE904CEAC
:1001E80000F006F8DDF804E0DDE9022304B070470A
:1001F8002DE9F0478C460D460446089E002B51D148
:100208008A4217466DD9B2FA82FEBEF1000F0BD0B2
:10021800CEF1200C01FA0EF520FA0CFC02FA0EF7CA
:100228004CEA050C00FA0EF44FEA174A250CBCFB01
:10023800FAF81FFA87F90AFB18CC45EA0C4508FBBF
:1002480009F3AB420AD9ED1908F1FF3280F0238196
:10025800AB4240F22081A8F102083D44ED1AA4B255
:10026800B5FBFAF00AFB105544EA054400FB09F90E
:10027800A14509D9E41900F1FF3380F00A81A145AD
:1002880040F2078102383C44A4EB090440EA0840E4
:100298000021002E61D024FA0EF40023346073602C
:1002A800BDE8F0878B4207D9002E54D0002186E89C
:1002B80021000846BDE8F087B3FA83F1002940F031
:1002C8008E80AB4202D3824200F2FA80841A65EB38
:1002D80003050120AC46002E3FD086E81010BDE88B
:1002E800F08712B90127B7FBF2F7B7FA87FEBEF11C
:1002F800000F34D1EB1B3A0C1FFA87FC0121B3FB2A
:10030800F2F8250C02FB183345EA03450CFB08F309
:10031800AB4207D9ED1908F1FF3002D2AB4200F227
:10032800D1808046ED1AA3B2B5FBF2F002FB10555E
:1003380043EA05440CFB00FCA44507D9E41900F185
:10034800FF3302D2A44500F2B8801846A4EB0C048F
:1003580040EA08409DE731463046BDE8F087CEF1D7
:10036800200405FA0EF307FA0EF720FA04F83A0CFF
:1003780025FA04F448EA0308B4FBF2F14FEA1845F9
:1003880002FB11441FFA87FC45EA044501FB0CF304
:10039800AB4200FA0EF409D9ED1901F1FF3080F0F3
:1003A8008A80AB4240F2878002393D44EB1A1FFA3B
:1003B80088F5B3FBF2F002FB103345EA034500FB76
:1003C8000CF3AB4207D9ED1900F1FF386FD2AB42FD
:1003D8006DD902383D44EB1A40EA01418FE7C1F17B
:1003E800200722FA07F88B4005FA01F448EA0303CC
:1003F80020FA07FE4FEA134CFD404EEA040EB5FB07
:10040800FCF94FEA1E440CFB19551FFA83F844EA1D
:10041800054509FB08F4AC4202FA01F200FA01FAB8
:1004280008D9ED1809F1FF3043D2AC4241D9A9F1FE
:1004380002091D442D1B1FFA8EFEB5FBFCF00CFBB8
:1004480010554EEA054400FB08F8A04507D9E41802
:1004580000F1FF3529D2A04527D902381C4440EACB
:100468000940A4EB0804A0FB02894C45C6464D464A
:1004780015D312D056B1BAEB0E0364EB050404FA97
:1004880007F7CB401F43CC40376074600021BDE8BC
:10049800F0871846F8E69046E0E6C245EAD2B8EB9F
:1004A800020E69EB03050138E4E72846D7E7404622
:1004B80091E78146BEE7014678E702383C4445E7C4
:1004C800084608E7A8F102083D442BE7704700BF3B
:1004D80010B5084B044618684FF47A73B0FBF3F074
:1004E80000F078F8002221464FF0FF3000F03EF887
:1004F800002010BD0000002008B50B4B1A6842F41C
:1005080000721A601A6842F480621A601A6842F42B
:1005180080721A60032000F017F80020FFF7D8FF58
:1005280000F014FF002008BD003C0240024A136896
:1005380001331360704700BF20000020014B18688A
:10054800704700BF20000020074AD36823F4E06307
:100558001B041B0C43F0BF63000243F4003300F498
:10056800E0600343D360704700ED00E0174B30B5FF
:10057800DC68C4F30224C4F10703251D042B28BF3B
:100588000423062D4FF0010505FA03F303F1FF33A9
:100598008CBF033C00241940A14005FA04F4013C37
:1005A8002240002842EA01024FEA0212AFBF00F1DE
:1005B800604000F00F00064BD2B2A5BF00F56140C5
:1005C800D2B21A5480F8002330BD00BF00ED00E01D
:1005D80014ED00E00138B0F1807F0AD2064B074ADB
:1005E8005860F02182F823100020072298601A60D2
:1005F80070470120704700BF10E000E000ED00E008
:10060800044B1A6804280CBF42F0040222F00402CA
:100618001A60704710E000E0704708B5FFF7FCFF6C
:1006280008BD00002DE9F04F85B00B68DFF8AC81FC
:10063800684ADFF8AC91019300234FF0010E019C4A
:100648000EFA03FE0EEA0406B64540F0AE804C688A
:1006580024F01007022F16D14FEAD30A00EB8A0ABA
:1006680003F0070BDAF820504FEA8B0B4FF00F0C12
:100678000CFA0BFC25EA0C0C0D6905FA0BF545EA9A
:100688000C05CAF820504FEA430A0325D0F800B0F9
:1006980005FA0AF5ED4304F0030C0BEA050B0CFA16
:1006A8000AFC013F4CEA0B0C012FC0F800C011D81E
:1006B800876807EA050BCF6807FA0AFC4CEA0B07BC
:1006C8008760476827EA0E0EC4F300179F4047EA81
:1006D8000E074760C7683D408F6807FA0AF73D4331
:1006E800C560E50061D54FF0000BCDF80CB0D8F827
:1006F8004470394D47F48047C8F84470D8F84470BE
:1007080007F480470397039F23F0030707F1804707
:1007180007F59C3703F0030CD7F808A04FEA8C0CB8
:100728004FF00F0E0EFA0CFEA8422AEA0E0E43D026
:1007380005F58065A84241D005F58065A8423FD0FF
:1007480005F58065A8423DD005F58065A8423BD0F7
:1007580048453BD005F50065A84239D005F58065C8
:10076800A84214BF0825072505FA0CF545EA0E0529
:10077800BD601568F74314F4803F0CBF3D40354316
:100788001560556814F4003F0CBF3D403543556073
:10079800956814F4801F0CBF3D4035439560D568BB
:1007A800A40254BF3D403543D5600133102B7FF47C
:1007B80044AF05B0BDE8F08F5D46D5E70125D3E726
:1007C8000225D1E70325CFE70425CDE70525CBE7AB
:1007D8000625C9E7003C01400000024000380240FD
:1007E800001402400AB1816170470904FBE7000068
:1007F800F7B5044610B9012003B0F0BD0368D80767
:100808003BD42368990700F1848023681E0700F110
:10081800C68023685D072AD500230193AA4BAB4DF8
:100828001A6C42F080521A641B6C03F080530193D7
:10083800019B2B6843F480732B60FFF77FFE06460D
:100848002B68DA0540F1CD80A3689F4D012B40F05D
:10085800CF802B6F43F001032B67FFF76FFE9A4D94
:10086800064641F288372B6F9B0740F1E280A26968
:10087800002A40F0E5800020BEE7934B9A6802F01A
:100888000C02042A07D09A6802F00C02082A0AD13E
:100898005B685A0207D58C4B1B689B03B1D563680C
:1008A800002BAED1A7E76368874DB3F5803F11D120
:1008B8002B6843F480332B60FFF740FE824D0646D9
:1008C8002B689F039DD4FFF739FE801B6428F7D956
:1008D800032091E7B3F5A02F04D12B6843F48023BC
:1008E8002B60E5E72A6822F480322A602A6822F41D
:1008F80080222A60002BDFD1FFF720FE06462B68F6
:1009080098037FF57EAFFFF719FE801B6428F6D9A0
:10091800DEE76D4B9A6812F00C0F07D09A6802F068
:100928000C02082A12D15B6859020FD4664B1A6868
:10093800920703D5E268012A7FF45DAF1A6821693E
:1009480022F0F80242EAC1021A605EE7E268604BF0
:10095800B2B101221A60FFF7F1FD5B4D06462B6824
:100968009B0707D52B68226923F0F80343EAC203E3
:100978002B604AE7FFF7E2FD801B0228EFD9A7E7C3
:100988001A60FFF7DBFD504D06462B689F077FF581
:100998003CAFFFF7D3FD801B0228F6D998E76269C0
:1009A8004C4B7AB101221A60FFF7C8FD464D064646
:1009B8006B6F98073FF52DAFFFF7C0FD801B02282E
:1009C800F6D985E71A60FFF7B9FD3F4D06466B6F0C
:1009D80099077FF51EAFFFF7B1FD801B0228F6D9F6
:1009E80076E7FFF7ABFD801B02287FF629AF6FE79C
:1009F800052B04D12B6F43F004032B6729E72A6FDB
:100A080022F001022A672A6F22F004022A67002BCB
:100A18007FF423AFFFF792FD41F2883706462B6F2C
:100A280098077FF524AFFFF789FD801BB842F6D9F8
:100A38004EE7FFF783FD801BB8427FF614AF47E708
:100A4800214DAB6803F00C03082B3FF4D4AE224EC3
:100A58000023022A33602AD1FFF770FD07462B686E
:100A680099011ED4226AE3691343626A43EA821336
:100A7800E26A43EA0263A26A134C5208013A43EA63
:100A880002436B6001233360FFF758FD0546236876
:100A98009A013FF5F0AEFFF751FD401B0228F6D949
:100AA80016E7FFF74BFDC01B0228D8D910E7FFF760
:100AB80045FD04462B689B017FF5DDAEFFF73EFD43
:100AC800001B0228F6D903E70038024000700040F6
:100AD80000004742800E474260004742134908B56C
:100AE8008B6803F00C03042B03D0082B03D01048A9
:100AF80008BD104808BD4A684B68496813F480036C
:100B080014BF0C480A48C1F3881118BF002302F02B
:100B18003F02A1FB0001FFF753FB044B5B68C3F3E3
:100B2800014301335B00B0FBF3F008BD003802401D
:100B38000024F40040787D012DE9F0410D4604467B
:100B480010B90120BDE8F081444B1A6802F00F0289
:100B58008A4228D321688F072DD4C80740D43F4B39
:100B68001A6802F00F02954266D3226851076CD4C6
:100B7800130707D53A4A2169936823F4604343EA87
:100B8800C1039360FFF7AAFF354B364A9B68C3F34E
:100B98000313D35CD840344B18600020FFF798FC4F
:100BA8000020BDE8F081CAB21A701B6803F00F0379
:100BB8009942C6D1CEE72A4B11F0040F1EBF9A689E
:100BC80042F4E0529A600E0742BF9A6842F46042CB
:100BD8009A609A68A06822F0F00202439A60BCE723
:100BE80062681F4B012A1DD11B6813F4003FA8D06F
:100BF8001B4EB36823F003031343B360FFF79EFC57
:100C080041F288380746B368626803F00C03B3EB17
:100C1800820FA4D0FFF792FCC01B4045F3D90320F4
:100C2800BDE8F081911E01291B6802D813F0007FEE
:100C3800DDE713F0020FDAE7EAB21A701B6803F077
:100C48000F039D427FF47DAF8FE70549E0688B680D
:100C580023F4E05303438B608AE700BF003C024063
:100C6800003802403815000800000020014B1868C1
:100C7800704700BF00000020036A23F001030362ED
:100C8800036A426870B584690D6824F073042543CB
:100C98008C6823F0020323430C4CA04209D004F5CE
:100CA8008064A04205D042604A688561426303625D
:100CB80070BDCC688E6923F0080323434C6922F485
:100CC8004072344323F004032243ECE70000014060
:100CD800036A23F480730362036A426870B5C469C7
:100CE8000D6824F0730425438C6823F4007343EAE9
:100CF80004230E4CA04209D004F58064A04205D01C
:100D080042604A68C561C263036270BDCC688E697F
:100D180023F4006343EA04234C6922F44052344329
:100D280023F4806342EA0412EAE700BF00000140AE
:100D3800036A23F48053036230B5046A4368C269C6
:100D48000D6822F4E64242EA05228D6824F4005434
:100D580044EA0534094DA84209D005F58065A84242
:100D680005D043604B68C2610364046230BD4D69BD
:100D780023F4804343EA8513F3E700BF00000140F2
:100D8800704790F83830012B70B54FF002031CD033
:100D980080F839300368012280F838209A6822F4F4
:100DA8007F4222F077029A600A68402A79D019D8DF
:100DB800102A00F093800AD8002A00F089800123C5
:100DC80080F83930002380F83830184670BD202A62
:100DD80000F08A80302AF2D19A6822F0700242F03C
:100DE800370236E0702A36D01BD8502A42D0602A03
:100DF800E5D11C6A4D68CE6824F010041C6299691C
:100E08001A6A21F4704122F0A00242EA051241EA6E
:100E1800063199611A629A6822F0700242F06702FC
:100E280017E0B2F5805F11D0B2F5005FC7D18A68CC
:100E38004D689C68C9682A4324F47F4442EA012229
:100E480022439A609A6842F4804202E09A6822F04B
:100E580007029A60B3E78A684D689C68C9682A43A4
:100E680024F47F4442EA012222439A609A6842F0BD
:100E78007702EEE74C68CE68196A1D6A25F001050D
:100E88001D629A6921F00A0122F0F00242EA061274
:100E980021439A6119629A6822F0700242F057025F
:100EA800D7E74C68CE68196A1D6A25F001051D62EE
:100EB8009A6921F00A0122F0F00242EA061221435F
:100EC8009A6119629A6822F0700242F04702C0E7FC
:100ED8009A6822F0700242F00702BAE79A6822F094
:100EE800700242F01702B4E79A6822F0700242F0EA
:100EF8002702AEE72E4A0368904212D0B0F1804F25
:100F08000FD0A2F57C4290420BD002F5806290424D
:100F180007D002F58062904203D002F578429042F1
:100F28001DD14A6823F070031343214A904204D12B
:100F3800CA6823F44073134328E0B0F1804FF7D018
:100F48001C4A9042F4D002F580629042F0D002F53B
:100F580080629042ECD002F578429042E8D0164A7E
:100F68009042E5D002F580629042E1D002F58062BD
:100F78009042DDD0A2F598329042D9D002F5806235
:100F88009042D5D002F580629042D1D003608B6840
:100F9800C3620B688362064B984206D003F58063F0
:100FA800984202D00123436170470B690363F9E754
:100FB80000000140000400400040014010B5044614
:100FC800A0B190F8393003F0FF021BB980F838203F
:100FD80000F0ECF9022384F839302068211DFFF76E
:100FE80089FF012384F83930002010BD012010BD8D
:100FF80010B50446A0B190F8393003F0FF021BB9D0
:1010080080F83820FFF7BCFE022384F839302068C6
:10101800211DFFF76FFF012384F83930002010BD30
:10102800012010BD036A23F010030362036A4268BB
:1010380070B584690D6824F4E64444EA05258C6893
:1010480023F0200343EA04130D4CA04209D004F511
:101058008064A04205D042604A6885618263036269
:1010680070BDCC688E6923F0800343EA04134C6991
:1010780022F44062344323F0400342EA8402EAE760
:101088000000014038B590F83830012B04464FF085
:10109800020025D0012384F8383084F839000C2A5E
:1010A80018D8DFE802F0071717171E1717172F179A
:1010B800171740002068FFF7DFFD236809699A6960
:1010C80042F008029A619A6922F004029A619A69C8
:1010D8000A439A610123002084F8393084F83800E3
:1010E80038BD2068FFF79EFF236809699A6942F4B2
:1010F80000629A619A6922F480629A619A6942EA66
:101108000122E6E72068FFF7E3FD23680969DA6949
:1011180042F00802DA61DA6922F00402DA61DA6977
:101128000A43DA61D6E72068FFF702FE23680969F7
:10113800DA6942F40062DA61DA6922F48062DA611B
:10114800DA6942EA0122ECE7036A10B501248C400F
:1011580023EA04030362036A8A401A43026210BD49
:1011680010B5044601220068FFF7EEFF2368084A1D
:10117800934203D002F58062934203D15A6C42F441
:1011880000425A641A6842F001021A60002010BD39
:101198000000014030B595B00023274A0193116C37
:1011A80041F080511164126C02F080520192019A50
:1011B800224A0293116841F48041116012680F932A
:1011C80002F480420292029A0823012202240B921E
:1011D800109310224023042508A808940C920E941A
:1011E800119312941395FFF703FB014600B1FEE734
:1011F8000F230393902305934FF4A053069303A85A
:101208004FF4805304940793FFF796FC044600B10B
:10121800FEE7FFF72BFD4FF47A73B0FBF3F0FFF70F
:10122800D9F92846FFF7ECF9224621464FF0FF305E
:10123800FFF79CF915B030BD00380240007000403F
:1012480080B58EB00025FFF757F9FFF7A3FF3A4B9B
:1012580001951A6B39483A4E42F010021A631A6B1C
:1012680002F010020192019A02951A6B42F00402F0
:101278001A631B6B03F0040302932A461021029B96
:10128800FFF7B0FA2A464FF400512E48FFF7AAFAA2
:101298000124102707A929480894079709950A9552
:1012A800FFF7C0F90894284C264809954FF40053D5
:1012B80007A907930A95FFF7B5F96423204684E840
:1012C800C000A560E3602561FFF778FE00B1FEE786
:1012D8000EA94FF4805341F82C3D2046FFF751FDED
:1012E80000B1FEE72046FFF783FE024600B1FEE7A5
:1012F80060230793099032230B9007A9204608938F
:10130800FFF7C0FE054600B1FEE7204600F066F88C
:1013180029462046FFF724FF0A4D084C01224FF4C6
:1013280000512846FFF75EFA002210212046FFF7F9
:1013380059FA0A237363F1E70038024000100240AB
:1013480000400140000802402400002008B50320A6
:10135800FFF7FAF8002211466FF00B00FFF706F9C5
:10136800002211466FF00A00FFF700F9002211462B
:101378006FF00900FFF7FAF8002211466FF0040039
:10138800FFF7F4F8002211466FF00300FFF7EEF8BC
:10139800002211466FF00100FFF7E8F8002211461D
:1013A8004FF0FF30BDE80840FFF7E0B80268094B8E
:1013B8009A4282B00BD100230193074B5A6C42F436
:1013C80080325A645B6C03F480330193019B02B052
:1013D800704700BF00400140003802407FB50268F6
:1013E800094B9A420CD12023019302230293002334
:1013F8000393049301A9032304480593FFF712F903
:1014080007B05DF804FB00BF004001400010024037
:101418007047FEE7FEE7FEE7FEE770477047704754
:1014280008B5FFF783F8BDE80840FFF7F6B80000F5
:101438000F49D1F8883043F47003C1F888300D4B58
:101448001A68002042F001021A6098601A6822F0B7
:10145800847222F480321A60074A5A601A6822F4A9
:1014680080221A60D8604FF000638B60704700BF1D
:1014780000ED00E00038024010300024DFF834D0DE
:10148800002103E00C4B5B58435004310B480C4BD4
:1014980042189A42F6D30B4A02E0002342F8043B72
:1014A800094B9A42F9D3FFF7C3FF00F011F8FFF791
:1014B800C7FE7047000002205815000800000020F1
:1014C800040000200400002060000020FEE7000067
:1014D80070B50D4E0D4CA41BA4100025A54209D1D2
:1014E8000B4E0C4C00F018F8A41BA4100025A542C4
:1014F80005D170BD56F8253098470135EEE756F806
:10150800253098470135F2E75015000850150008B6
:101518005015000854150008F8B500BFF8BC08BC01
:101528009E467047F8B500BFF8BC08BC9E46704799
:10153800000000000000000001020304060708097B
:08154800B0ECFF7F0100000080
:04155000AD010008E1
:041554008901000801
:041558000024F40077
:040000050800148556
:00000001FF
