:020000040800F2
:1000000000000220AD18000841180008431800083D
:1000100045180008471800084918000800000000AB
:100020000000000000000000000000004B18000865
:100030004D180008000000004F1800085118000873
:10004000FD180008FD180008FD180008FD1800083C
:10005000FD180008FD180008FD180008FD1800082C
:10006000FD180008FD180008FD180008FD1800081C
:10007000FD180008FD180008FD180008FD1800080C
:10008000FD180008FD180008FD180008FD180008FC
:10009000FD180008FD180008FD180008FD180008EC
:1000A000FD180008FD180008FD180008FD180008DC
:1000B000FD180008FD180008FD180008FD180008CC
:1000C000FD180008FD180008FD180008FD180008BC
:1000D000FD180008FD180008FD180008FD180008AC
:1000E000FD180008FD180008FD180008FD1800089C
:1000F000FD180008FD180008FD180008FD1800088C
:10010000FD180008FD180008FD180008FD1800087B
:10011000FD180008FD180008FD180008FD1800086B
:10012000FD180008FD180008FD180008FD1800085B
:10013000FD180008FD180008FD180008FD1800084B
:10014000FD180008FD180008FD180008FD1800083B
:10015000FD180008FD180008FD180008FD1800082B
:10016000FD180008FD180008FD180008FD1800081B
:10017000FD180008FD180008FD1800080000000028
:08018000FD180008FD1800083D
:1001880010B5054C237833B9044B13B10448AFF3C9
:1001980000800123237010BD04000020000000002F
:1001A8004819000808B5034B1BB103490348AFF3CE
:1001B800008008BD00000000080000204819000861
:1001C80053B94AB9002908BF00281CBF4FF0FF31B6
:1001D8004FF0FF3000F07AB9ADF1080C6DE904CEAC
:1001E80000F006F8DDF804E0DDE9022304B070470A
:1001F8002DE9F0478C460D460446089E002B51D148
:100208008A4217466DD9B2FA82FEBEF1000F0BD0B2
:10021800CEF1200C01FA0EF520FA0CFC02FA0EF7CA
:100228004CEA050C00FA0EF44FEA174A250CBCFB01
:10023800FAF81FFA87F90AFB18CC45EA0C4508FBBF
:1002480009F3AB420AD9ED1908F1FF3280F0238196
:10025800AB4240F22081A8F102083D44ED1AA4B255
:10026800B5FBFAF00AFB105544EA054400FB09F90E
:10027800A14509D9E41900F1FF3380F00A81A145AD
:1002880040F2078102383C44A4EB090440EA0840E4
:100298000021002E61D024FA0EF40023346073602C
:1002A800BDE8F0878B4207D9002E54D0002186E89C
:1002B80021000846BDE8F087B3FA83F1002940F031
:1002C8008E80AB4202D3824200F2FA80841A65EB38
:1002D80003050120AC46002E3FD086E81010BDE88B
:1002E800F08712B90127B7FBF2F7B7FA87FEBEF11C
:1002F800000F34D1EB1B3A0C1FFA87FC0121B3FB2A
:10030800F2F8250C02FB183345EA03450CFB08F309
:10031800AB4207D9ED1908F1FF3002D2AB4200F227
:10032800D1808046ED1AA3B2B5FBF2F002FB10555E
:1003380043EA05440CFB00FCA44507D9E41900F185
:10034800FF3302D2A44500F2B8801846A4EB0C048F
:1003580040EA08409DE731463046BDE8F087CEF1D7
:10036800200405FA0EF307FA0EF720FA04F83A0CFF
:1003780025FA04F448EA0308B4FBF2F14FEA1845F9
:1003880002FB11441FFA87FC45EA044501FB0CF304
:10039800AB4200FA0EF409D9ED1901F1FF3080F0F3
:1003A8008A80AB4240F2878002393D44EB1A1FFA3B
:1003B80088F5B3FBF2F002FB103345EA034500FB76
:1003C8000CF3AB4207D9ED1900F1FF386FD2AB42FD
:1003D8006DD902383D44EB1A40EA01418FE7C1F17B
:1003E800200722FA07F88B4005FA01F448EA0303CC
:1003F80020FA07FE4FEA134CFD404EEA040EB5FB07
:10040800FCF94FEA1E440CFB19551FFA83F844EA1D
:10041800054509FB08F4AC4202FA01F200FA01FAB8
:1004280008D9ED1809F1FF3043D2AC4241D9A9F1FE
:1004380002091D442D1B1FFA8EFEB5FBFCF00CFBB8
:1004480010554EEA054400FB08F8A04507D9E41802
:1004580000F1FF3529D2A04527D902381C4440EACB
:100468000940A4EB0804A0FB02894C45C6464D464A
:1004780015D312D056B1BAEB0E0364EB050404FA97
:1004880007F7CB401F43CC40376074600021BDE8BC
:10049800F0871846F8E69046E0E6C245EAD2B8EB9F
:1004A800020E69EB03050138E4E72846D7E7404622
:1004B80091E78146BEE7014678E702383C4445E7C4
:1004C800084608E7A8F102083D442BE7704700BF3B
:1004D80010B5084B044618684FF47A73B0FBF3F074
:1004E80000F06EFA002221464FF0FF3000F034FA97
:1004F800002010BD0000002008B50B4B1A6842F41C
:1005080000721A601A6842F480621A601A6842F42B
:1005180080721A60032000F00DFA0020FFF7D8FF60
:1005280001F004F9002008BD003C0240024A1368AB
:1005380001331360704700BF64000020014B186846
:10054800704700BF6400002037B50190FFF7F6FF41
:10055800019C631C054618BF0134FFF7EFFF401BE1
:10056800A042FAD303B030BD4A69012330B503FA7B
:1005780002F53C4BD3F8000240F00100C3F800023A
:10058800D3F8000220F47C50C3F80002D3F800022C
:100598004C6A40EA0420C3F80002D3F81C02EC437A
:1005A8002040C3F81C02C869002836D1D3F80C02D1
:1005B8002040C3F80C02D200C8688B8802F1804240
:1005C80002F5C84243EA0043C2F8403288680B8803
:1005D80043EA0043C2F844328B692248002B35D1E4
:1005E800D0F804322340C0F804320B691D4A8BBB93
:1005F800D0F814321C40C0F814420B6A012B02BF19
:10060800D2F81C322B43C2F81C32D2F8003223F045
:100618000103C2F80032002030BD0128DCD1D3F834
:100628000C022843C3F80C020B68888840EA034090
:10063800D30003F1804303F5C8438A89C3F8400215
:10064800886842EA0042C3F84422C5E7D0F8043279
:100658002B43C8E7012B02BFD2F814322B43C2F850
:100668001432CAE70064004070B50446002872D00E
:1006780090F83C3003F0FF021BB980F83D2001F0F0
:1006880085F8022384F83C3023681A6822F00202B5
:100698001A601A6842F001021A60FFF74FFF064617
:1006A80023685D6815F0010557D05A68D1074FD502
:1006B800A269012A1A680CBF42F0800222F0800267
:1006C8001A60E269012A1A680CBF42F0400222F05F
:1006D80040021A60226A012A1A680CBF42F02002FE
:1006E80022F020021A60626A012A1A680CBF42F0DE
:1006F800100222F010021A60A26A012A1A680CBFBE
:1007080042F0080222F008021A60E26A012A1A6816
:100718000CBF42F0040222F004021A60E168A268E9
:100728000A4321690A4361690A43616801390A4336
:10073800DA611A6822F001021A60FFF7FFFE054627
:1007480023685A68D20713D4586810F001001BD0E8
:10075800042384F83C30012070BDFFF7EFFE801BB6
:100768000A289DD9032084F83C0084F83D5070BDC8
:10077800FFF7E4FE401B0A28E2D90320002384F88F
:100788003C0084F83D3070BD0123206484F83C307F
:1007980070BD000002682DE9F84393685B010446C8
:1007A8000F4606D493681D0103D49368D80040F11E
:1007B800B18094F83D30012B00F0B280012384F819
:1007C8003D3094F83C30DBB2322B66D0622B66D0D9
:1007D800222B66D1422384F83C309368590162D4B5
:1007E800936813F0006F14BF012602264FEA061E15
:1007F80002EB0E03206BD3F880118568D0F80CC08B
:1008080001F00101C3F88011002D4ED10568D3F81D
:1008180080114CEA45550D43C3F88051D3F88451F3
:100828000169DFF80881DFF8089101F00F0125F070
:100838000F050161C3F88451D3F884512943C3F8E3
:10084800841172444169C2F888118169C2F88C1117
:10085800D3F8802142F00102C3F88021FFF76EFE31
:100868000546314A23689B68002E45D132EA0303C6
:1008780014BF0123002313BB94F83C30DBB2522B86
:1008880042D0722B42D0422B42D12223002084F83E
:100898003C3084F83D00BDE8F88352239BE772237F
:1008A80099E7122397E70026A0E74168D3F88081EB
:1008B80045EA0C0545EAC10545EA0805ACE77B1C95
:1008C800D0D05FB9032384F83C30236866B1012E89
:1008D8000CBF4FF400424FF4000206E0FFF72EFE73
:1008E800401B8742BDD2EDE780229A60002384F83E
:1008F8003D300320BDE8F883012E02D139EA030315
:10090800B6E738EA0303B3E73223BFE76223BDE75C
:100918000123BBE7042384F83C300120BDE8F883B9
:100928000220BDE8F88300BF0300000400000310A4
:1009380000030008074AD36823F4E0631B041B0C78
:1009480043F0BF63000243F4003300F4E060034364
:10095800D360704700ED00E0174B30B5DC68C4F396
:100968000224C4F10703251D042B28BF0423062DE8
:100978004FF0010505FA03F303F1FF338CBF033C85
:1009880000241940A14005FA04F4013C2240002843
:1009980042EA01024FEA0212AFBF00F1604000F0E4
:1009A8000F00064BD2B2A5BF00F56140D2B21A546F
:1009B80080F8002330BD00BF00ED00E014ED00E03A
:1009C8000138B0F1807F0AD2064B074A5860F021FF
:1009D80082F823100020072298601A6070470120CF
:1009E800704700BF10E000E000ED00E0044B1A681B
:1009F80004280CBF42F0040222F004021A60704777
:100A080010E000E0704708B5FFF7FCFF08BD0000E4
:100A18002DE9F04F85B00B68DFF8AC81684ADFF844
:100A2800AC91019300234FF0010E019C0EFA03FED6
:100A38000EEA0406B64540F0AE804C6824F0100774
:100A4800022F16D14FEAD30A00EB8A0A03F0070BEC
:100A5800DAF820504FEA8B0B4FF00F0C0CFA0BFC16
:100A680025EA0C0C0D6905FA0BF545EA0C05CAF8E0
:100A780020504FEA430A0325D0F800B005FA0AF5DA
:100A8800ED4304F0030C0BEA050B0CFA0AFC013FDA
:100A98004CEA0B0C012FC0F800C011D8876807EA90
:100AA800050BCF6807FA0AFC4CEA0B078760476812
:100AB80027EA0E0EC4F300179F4047EA0E07476067
:100AC800C7683D408F6807FA0AF73D43C560E500EF
:100AD80061D54FF0000BCDF80CB0D8F84470394D03
:100AE80047F48047C8F84470D8F8447007F4804742
:100AF8000397039F23F0030707F1804707F59C3707
:100B080003F0030CD7F808A04FEA8C0C4FF00F0E37
:100B18000EFA0CFEA8422AEA0E0E43D005F58065AF
:100B2800A84241D005F58065A8423FD005F580650B
:100B3800A8423DD005F58065A8423BD048453BD04A
:100B480005F50065A84239D005F58065A84214BFAF
:100B58000825072505FA0CF545EA0E05BD60156858
:100B6800F74314F4803F0CBF3D403543156055688A
:100B780014F4003F0CBF3D4035435560956814F4AC
:100B8800801F0CBF3D4035439560D568A40254BF13
:100B98003D403543D5600133102B7FF444AF05B099
:100BA800BDE8F08F5D46D5E70125D3E70225D1E7FB
:100BB8000325CFE70425CDE70525CBE70625C9E7BB
:100BC800003C01400000024000380240001402408E
:100BD8000AB1816170470904FBE70000F7B50446D4
:100BE80010B9012003B0F0BD0368D8073BD42368CF
:100BF800990700F1848023681E0700F1C6802368E6
:100C08005D072AD500230193AA4BAB4D1A6C42F01D
:100C180080521A641B6C03F080530193019B2B686C
:100C280043F480732B60FFF789FC06462B68DA05CE
:100C380040F1CD80A3689F4D012B40F0CF802B6FF2
:100C480043F001032B67FFF779FC9A4D064641F202
:100C580088372B6F9B0740F1E280A269002A40F099
:100C6800E5800020BEE7934B9A6802F00C02042A44
:100C780007D09A6802F00C02082A0AD15B685A0267
:100C880007D58C4B1B689B03B1D56368002BAED18D
:100C9800A7E76368874DB3F5803F11D12B6843F40C
:100CA80080332B60FFF74AFC824D06462B689F0372
:100CB8009DD4FFF743FC801B6428F7D9032091E7F4
:100CC800B3F5A02F04D12B6843F480232B60E5E70C
:100CD8002A6822F480322A602A6822F480222A6054
:100CE800002BDFD1FFF72AFC06462B6898037FF517
:100CF8007EAFFFF723FC801B6428F6D9DEE76D4B37
:100D08009A6812F00C0F07D09A6802F00C02082AB1
:100D180012D15B6859020FD4664B1A68920703D543
:100D2800E268012A7FF45DAF1A68216922F0F802AF
:100D380042EAC1021A605EE7E268604BB2B1012282
:100D48001A60FFF7FBFB5B4D06462B689B0707D530
:100D58002B68226923F0F80343EAC2032B604AE7B1
:100D6800FFF7ECFB801B0228EFD9A7E71A60FFF713
:100D7800E5FB504D06462B689F077FF53CAFFFF714
:100D8800DDFB801B0228F6D998E762694C4B7AB1E3
:100D980001221A60FFF7D2FB464D06466B6F980793
:100DA8003FF52DAFFFF7CAFB801B0228F6D985E770
:100DB8001A60FFF7C3FB3F4D06466B6F99077FF537
:100DC8001EAFFFF7BBFB801B0228F6D976E7FFF7BB
:100DD800B5FB801B02287FF629AF6FE7052B04D1EE
:100DE8002B6F43F004032B6729E72A6F22F00102D7
:100DF8002A672A6F22F004022A67002B7FF423AFA8
:100E0800FFF79CFB41F2883706462B6F98077FF562
:100E180024AFFFF793FB801BB842F6D94EE7FFF7E4
:100E28008DFB801BB8427FF614AF47E7214DAB68B6
:100E380003F00C03082B3FF4D4AE224E0023022A01
:100E480033602AD1FFF77AFB07462B6899011ED435
:100E5800226AE3691343626A43EA8213E26A43EA55
:100E68000263A26A134C5208013A43EA02436B60D8
:100E780001233360FFF762FB054623689A013FF5BB
:100E8800F0AEFFF75BFB401B0228F6D916E7FFF729
:100E980055FBC01B0228D8D910E7FFF74FFB0446C3
:100EA8002B689B017FF5DDAEFFF748FB001B02288E
:100EB800F6D903E7003802400070004000004742BE
:100EC800800E474260004742134908B58B6803F01B
:100ED8000C03042B03D0082B03D0104808BD10487E
:100EE80008BD4A684B68496813F4800314BF0C486E
:100EF8000A48C1F3881118BF002302F03F02A1FB82
:100F08000001FFF75DF9044B5B68C3F3014301334C
:100F18005B00B0FBF3F008BD003802400024F40089
:100F280000127A002DE9F0410D46044610B901205F
:100F3800BDE8F081444B1A6802F00F028A4228D3B8
:100F480021688F072DD4C80740D43F4B1A6802F098
:100F58000F02954266D3226851076CD4130707D550
:100F68003A4A2169936823F4604343EAC1039360D2
:100F7800FFF7AAFF354B364A9B68C3F30313D35CCC
:100F8800D840344B18600020FFF7A2FA0020BDE8D3
:100F9800F081CAB21A701B6803F00F039942C6D1D8
:100FA800CEE72A4B11F0040F1EBF9A6842F4E052B4
:100FB8009A600E0742BF9A6842F460429A609A6843
:100FC800A06822F0F00202439A60BCE762681F4BF7
:100FD800012A1DD11B6813F4003FA8D01B4EB3682B
:100FE80023F003031343B360FFF7A8FA41F28838EC
:100FF8000746B368626803F00C03B3EB820FA4D012
:10100800FFF79CFAC01B4045F3D90320BDE8F081E7
:10101800911E01291B6802D813F0007FDDE713F049
:10102800020FDAE7EAB21A701B6803F00F039D4259
:101038007FF47DAF8FE70549E0688B6823F4E053C0
:1010480003438B608AE700BF003C0240003802403F
:101058006019000800000020014B1868704700BFA5
:101068000000002038B51E4C0546C0F3C0024FF4FE
:1010780000412046FFF7ACFDC5F3800220464FF43F
:101088000051FFF7A5FDC5F3400220464FF400616B
:10109800FFF79EFD05F001024FF400712046FFF7AF
:1010A80097FDA4F500640020FFF74EFA01224FF4E3
:1010B80000412046FFF78CFD0020FFF745FA00228B
:1010C8004FF400412046FFF783FD0020FFF73CFA6C
:1010D800204601224FF40041BDE83840FFF778BDB3
:1010E800000C024070B5394C394E0546C2094FF420
:1010F80000412046FFF76CFDC5F3801220464FF4EF
:101108000051FFF765FDC5F3401220464FF400611A
:10111800FFF75EFDC5F300124FF400712046FFF79C
:1011280057FD0020FFF710FA01224FF40041304626
:10113800FFF74EFD0020FFF707FA00224FF40041A9
:101148003046FFF745FD0020FFF7FEF93046012243
:101158004FF40041FFF73CFDC5F3C00220464FF4B1
:101168000041FFF735FDC5F3800220464FF40051DA
:10117800FFF72EFDC5F3400220464FF40061FFF74C
:1011880027FD05F001024FF400712046FFF720FD0E
:101198000020FFF7D9F901224FF400413046FFF74C
:1011A80017FD0020FFF7D0F900224FF40041304628
:1011B800FFF70EFD0020FFF7C7F9304601224FF474
:1011C8000041BDE87040FFF703BD00BF000C0240BE
:1011D8000004024070B5C14BC14D987040260024F0
:1011E80082191C705E70DA70BE4B1870BE4B2246B6
:1011F800197028464FF40051FFF7EAFC6420FFF706
:10120800A3F90320FFF72EFF0520FFF79DF9032020
:10121800FFF728FF0120FFF797F90320FFF722FFC8
:101228000120FFF791F90220FFF71CFF0120FFF7CB
:101238008BF92820FFF756FF0820FFF753FF0120FE
:10124800FFF782F90120FFF74DFF0320FFF77CF934
:101258000620FFF747FF0120FFF776F90C20FFF77C
:1012680041FF0120FFF770F922464FF4005128464C
:10127800FFF7AEFC3046FFF735FF01224FF400516F
:101288002846FFF7A5FC0720FFF72CFF0F20FFF7E4
:1012980029FF1F20FFF726FF1F20FFF723FF1F202E
:1012A800FFF720FF1F20FFF71DFF1F20FFF71AFF82
:1012B8001F20FFF717FF22464FF400512846FFF77B
:1012C80087FC4820FFF70EFF01224FF40051284603
:1012D800FFF77EFC1F20FFF705FF1F20FFF702FF27
:1012E8001F20FFF7FFFE1F20FFF7FCFE1F20FFF760
:1012F800F9FE1F20FFF7F6FE0F20FFF7F3FE072089
:10130800FFF7F0FE22464FF400512846FFF760FC35
:101318005020FFF7E7FE01224FF400512846FFF75F
:1013280057FC1C20FFF7DEFE1E20FFF7DBFE1F2008
:10133800FFF7D8FE1F20FFF7D5FE1F20FFF7D2FECC
:101348001F20FFF7CFFE1F20FFF7CCFE1F20FFF75F
:10135800C9FE22464FF400512846FFF739FC5820B1
:10136800FFF7C0FE01224FF400512846FFF730FC7A
:101378001F20FFF7B7FE1F20FFF7B4FE1F20FFF75F
:10138800B1FE1F20FFF7AEFE1F20FFF7ABFE1F20A8
:10139800FFF7A8FE1E20FFF7A5FE1C20FFF7A2FE00
:1013A80022464FF400512846FFF712FC6020FFF751
:1013B80099FE01224FF400512846FFF709FC1F202F
:1013C800FFF790FE1F20FFF78DFE1F20FFF78AFE14
:1013D8002046FFF787FE2046FFF784FE2046FFF7EA
:1013E80081FE2046FFF77EFE2046FFF77BFE224661
:1013F8004FF400512846FFF7EBFB6820FFF772FE19
:1014080001224FF400512846FFF7E2FB1F20FFF7A7
:1014180069FE1F20FFF766FE1F20FFF763FE2046C8
:10142800FFF760FE2046FFF75DFE2046FFF75AFEF5
:101438001F20FFF757FE1F20FFF754FE22464FF4E8
:1014480000512846FFF7C4FB7020FFF74BFE01222E
:101458004FF400512846FFF7BBFB2046FFF742FE3A
:101468002046FFF73FFE2046FFF73CFE2046FFF7E9
:1014780039FE2046FFF736FE1F20FFF733FE1F20F8
:10148800FFF730FE1F20FFF72DFE22464FF40051D4
:101498002846FFF79DFB7820FFF724FE01224FF432
:1014A80000512846FFF794FB1F20FFF71BFE1F2063
:1014B800FFF718FE1F20FFF715FE1F20FFF712FE8B
:1014C8001F20FFF70FFE1F20FFF70CFE1F20FFF75E
:1014D80009FE1F20BDE87040FFF704BE6A00002027
:1014E80000040240730000206800002030B595B069
:1014F800274B002101911A6C42F080521A641B6C30
:1015080003F080530193019B224B02911A6842F425
:1015180080421A601B6803F480430293029B0123F4
:1015280008934FF4803309934FF480030225042471
:101538000F9308A8A8230E9510941193129513944D
:10154800FFF74CFB00B1FEE70F2303934FF4A053C2
:101558000590069305214FF4805303A8049507933B
:10156800FFF7E0FC054600B1FEE7FFF775FD4FF415
:101578007A73B0FBF3F0FFF723FA2046FFF736FA49
:101588002A4629464FF0FF30FFF7E6F915B030BD7F
:10159800003802400070004080B58AB00024FEF791
:1015A800ABFFFFF7A3FF574B01941A6B5648574DF3
:1015B80042F080021A631A6B02F080020192019ACB
:1015C80002941A6B42F002021A631A6B02F00202CA
:1015D8000292029A03941A6B42F010021A631A6B71
:1015E80002F010020392039A04941A6B42F0080264
:1015F8001A631B6B03F00803224604934AF207019F
:10160800049BFFF7E5FA22464FF4AC514048FFF738
:10161800DFFA22464FF42B413E48FFF7D9FA01265C
:101628004AF2070305A938480593079408940696D3
:10163800FFF7EEF94FF4AC5305A935480593079425
:1016480008940696FFF7E4F94FF42B4305A93148AF
:101658000593079408940696FFF7DAF92E4AAC60CA
:10166800102385E80C004FF400332B6128464FF413
:101678008003EC60AC61EC612C626C62AC62EC6281
:101688006B61FEF7F1FF044600B1FEE70421142068
:10169800FFF7A0FD214B22492B63224B6B632846A1
:1016A8000E234C618C61CE610C604C608C60CC6008
:1016B8000C610E624B62FEF757FF1B4C4FF411771B
:1016C8002E462B6B0022DA609A605A7501229A75B1
:1016D8000D221F60DA7508210C2219611A7621780B
:1016E800197577220A219A7657225976DA76304682
:1016F800FFF750F823784FF47A7001332370FEF720
:1017080023FFDEE70038024000040240F00000201A
:1017180000100240000C0240006400404400002019
:1017280074000020200000203401002008B50320A8
:10173800FFF700F9002211466FF00B00FFF70CF9D4
:10174800002211466FF00A00FFF706F90022114641
:101758006FF00900FFF700F9002211466FF004004E
:10176800FFF7FAF8002211466FF00300FFF7F4F8CC
:10177800002211466FF00100FFF7EEF80022114633
:101788004FF0FF30BDE80840FFF7E6B800B5036842
:10179800244A934289B023D1234A13680133012B89
:1017A80013600BD100230093204B1A6C42F0007297
:1017B8001A641B6C03F000730093009B4FF4407392
:1017C800039302230493002305930323069303A999
:1017D800092317480793FFF71BF909B05DF804FBC5
:1017E800144A9342F9D1114B0F48002101911A6C08
:1017F80042F080621A641A6C02F080620192019AC7
:1018080002680132012A026009D102911A6C42F081
:1018180000721A641B6C03F000730293029B60232E
:10182800CEE700BF0064004060000020003802409E
:1018380000040240006800407047FEE7FEE7FEE74C
:10184800FEE770477047704708B5FEF76FFEBDE8C2
:101858000840FFF7D8B800000F49D1F8883043F4A2
:101868007003C1F888300D4B1A68002042F001025D
:101878001A6098601A6822F0847222F480321A6022
:10188800074A5A601A6822F480221A60D8604FF01A
:1018980000638B60704700BF00ED00E00038024035
:1018A80010300024DFF834D0002103E00C4B5B58E3
:1018B800435004310B480C4B42189A42F6D30B4A5A
:1018C80002E0002342F8043B094B9A42F9D3FFF7A0
:1018D800C3FF00F011F8FFF75FFE70470000022019
:1018E80080190008000000200400002004000020E7
:1018F8004C010020FEE7000070B50D4E0D4CA41BF6
:10190800A4100025A54209D10B4E0C4C00F018F884
:10191800A41BA4100025A54205D170BD56F825309A
:1019280098470135EEE756F8253098470135F2E734
:101938007819000878190008781900087C19000837
:10194800F8B500BFF8BC08BC9E467047F8B500BFA4
:08195800F8BC08BC9E46704774
:10196000000000000000000001020304060708094F
:0819700088E8FF7F0100000080
:04197800AD010008B5
:04197C0089010008D5
:041980000024F4004B
:04000005080018AD2A
:00000001FF
