:020000040800F2
:100000000000022069280008F1270008F3270008F3
:10001000F5270008F7270008F9270008000000006E
:10002000000000000000000000000000FB270008A6
:10003000FD27000800000000FF2700080128000835
:10004000B9280008B9280008B9280008B92800080C
:10005000B9280008B9280008B9280008B9280008FC
:10006000B9280008B9280008B9280008B9280008EC
:10007000B9280008B9280008B9280008B9280008DC
:10008000B9280008B9280008B9280008B9280008CC
:10009000B9280008B9280008B9280008B9280008BC
:1000A000B9280008B9280008B9280008B9280008AC
:1000B000B9280008B9280008B9280008B92800089C
:1000C000B9280008B9280008B9280008B92800088C
:1000D000B9280008B9280008B9280008B92800087C
:1000E000B9280008B9280008B9280008B92800086C
:1000F000B9280008B9280008B9280008B92800085C
:10010000B9280008B9280008B9280008B92800084B
:10011000B9280008B9280008B928000811280008E3
:10012000B9280008B9280008B9280008B92800082B
:10013000B9280008B9280008B9280008B92800081B
:10014000B9280008B9280008B9280008B92800080B
:10015000B9280008B9280008B9280008B9280008FB
:10016000B9280008B9280008B9280008B9280008EB
:10017000B9280008B9280008B928000800000000C4
:08018000B9280008B9280008A5
:1001900010B5054C237833B9044B13B10448AFF3C1
:1001A00000800123237010BD6C00002000000000BF
:1001B0005C31000808B5034B1BB103490348AFF39A
:1001C000008008BD00000000700000205C310008C5
:1001D00001F0FF01102A2BDB10F0070F08D010F8F8
:1001E000013B013A8B422DD010F0070F42B3F6D1FC
:1001F000F0B441EA012141EA014122F007047FF015
:1002000000070023F0E80256083C85EA010586EA6B
:10021000010685FA47F5A3FA87F586FA47F6A5FAA7
:1002200087F68EB9EED1F0BC01F0FF0102F00702B3
:1002300032B110F8013B013A83EA010313B1F8D15E
:100240000020704701387047002D06BF354603383F
:10025000073815F0010F07D1013015F4807F02BF78
:10026000013015F4C03F0130F0BC0138704700BFC9
:1002700081F0004102E000BF83F0004330B54FEA57
:1002800041044FEA430594EA050F08BF90EA020FC4
:100290001FBF54EA000C55EA020C7FEA645C7FEA57
:1002A000655C00F0E2804FEA5454D4EB5555B8BF7A
:1002B0006D420CDD2C4480EA020281EA030382EAEB
:1002C000000083EA010180EA020281EA0303362D7D
:1002D00088BF30BD11F0004F4FEA01314FF4801C50
:1002E0004CEA113102D0404261EB410113F0004F62
:1002F0004FEA03334CEA133302D0524263EB430319
:1003000094EA050F00F0A780A4F10104D5F1200EB6
:100310000DDB02FA0EFC22FA05F2801841F1000111
:1003200003FA0EF2801843FA05F359410EE0A5F1E5
:1003300020050EF1200E012A03FA0EFC28BF4CF016
:10034000020C43FA05F3C01851EBE37101F00045CC
:1003500007D54FF0000EDCF1000C7EEB00006EEBD9
:100360000101B1F5801F1BD3B1F5001F0CD3490863
:100370005FEA30004FEA3C0C04F101044FEA4452BA
:1003800012F5800F80F09A80BCF1004F08BF5FEA41
:10039000500C50F1000041EB045141EA050130BD21
:1003A0005FEA4C0C404141EB010111F4801FA4F1C4
:1003B0000104E9D191F0000F04BF01460020B1FA19
:1003C00081F308BF2033A3F10B03B3F120020CDA51
:1003D0000C3208DD02F1140CC2F10C0201FA0CF02F
:1003E00021FA02F10CE002F11402D8BFC2F1200C94
:1003F00001FA02F120FA0CFCDCBF41EA0C0190404A
:10040000E41AA2BF01EB0451294330BD6FEA040492
:100410001F3C1CDA0C340EDC04F11404C4F120027D
:1004200020FA04F001FA02F340EA030021FA04F38F
:1004300045EA030130BDC4F10C04C4F1200220FAE6
:1004400002F001FA04F340EA0300294630BD21FA24
:1004500004F0294630BD94F0000F83F4801306BFEA
:1004600081F480110134013D4EE77FEA645C18BFDE
:100470007FEA655C29D094EA050F08BF90EA020F75
:1004800005D054EA000C04BF1946104630BD91EA6D
:10049000030F1EBF0021002030BD5FEA545C05D170
:1004A0004000494128BF41F0004130BD14F58004AF
:1004B0003CBF01F5801130BD01F0004545F0FE4123
:1004C00041F470014FF0000030BD7FEA645C1ABF58
:1004D000194610467FEA655C1CBF0B46024650EA8F
:1004E000013406BF52EA033591EA030F41F40021BB
:1004F00030BD00BF90F0000F04BF0021704730B541
:100500004FF4806404F132044FF000054FF0000115
:1005100050E700BF90F0000F04BF0021704730B5D6
:100520004FF4806404F1320410F0004548BF4042AB
:100530004FF000013EE700BF42004FEAE2014FEA00
:1005400031014FEA02701FBF12F07F4393F07F4FDB
:1005500081F06051704792F0000F14BF93F07F4F0D
:10056000704730B54FF4607401F0004521F0004150
:1005700020E700BF50EA010208BF704730B54FF0D6
:1005800000050AE050EA010208BF704730B511F0DB
:10059000004502D5404261EB41014FF4806404F113
:1005A00032045FEA915C3FF4DCAE4FF003025FEA95
:1005B000DC0C18BF03325FEADC0C18BF033202EB1D
:1005C000DC02C2F1200300FA03FC20FA02F001FA77
:1005D00003FE40EA0E0021FA02F11444C1E600BF16
:1005E00070B54FF0FF0C4CF4E06C1CEA11541DBFC9
:1005F0001CEA135594EA0C0F95EA0C0F00F0DEF894
:100600002C4481EA030621EA4C5123EA4C5350EA78
:10061000013518BF52EA033541F4801143F48013C9
:1006200038D0A0FB02CE4FF00005E1FB02E506F05A
:100630000042E0FB03E54FF00006E1FB03569CF0AF
:10064000000F18BF4EF0010EA4F1FF04B6F5007FB5
:1006500064F5407404D25FEA4E0E6D4146EB060627
:1006600042EAC62141EA55514FEAC52040EA5E50B0
:100670004FEACE2EB4F1FD0C88BFBCF5E06F1ED85A
:10068000BEF1004F08BF5FEA500E50F1000041EB91
:10069000045170BD06F0004646EA010140EA02003E
:1006A00081EA0301B4EB5C04C2BFD4EB0C0541EA60
:1006B000045170BD41F480114FF0000E013C00F375
:1006C000AB8014F1360FDEBF002001F0004170BD99
:1006D000C4F10004203C35DA0C341BDC04F11404B2
:1006E000C4F1200500FA05F320FA04F001FA05F23E
:1006F00040EA020001F0004221F0004110EBD3700B
:1007000021FA04F642EB06015EEA430E08BF20EA36
:10071000D37070BDC4F10C04C4F1200500FA04F3D9
:1007200020FA05F001FA04F240EA020001F000416B
:1007300010EBD37041F100015EEA430E08BF20EADE
:10074000D37070BDC4F1200500FA05F24EEA020E26
:1007500020FA04F301FA05F243EA020321FA04F055
:1007600001F0004121FA04F220EA020000EBD3700C
:100770005EEA430E08BF20EAD37070BD94F0000F0C
:100780000FD101F00046400041EB010111F4801F40
:1007900008BF013CF7D041EA060195F0000F18BFF1
:1007A000704703F00046520043EB030313F4801F2D
:1007B00008BF013DF7D043EA0603704794EA0C0FE7
:1007C0000CEA135518BF95EA0C0F0CD050EA4106FD
:1007D00018BF52EA4306D1D181EA030101F000417A
:1007E0004FF0000070BD50EA410606BF10461946A2
:1007F00052EA430619D094EA0C0F02D150EA0136AE
:1008000013D195EA0C0F05D152EA03361CBF1046EE
:1008100019460AD181EA030101F0004141F0FE418D
:1008200041F470014FF0000070BD41F0FE4141F411
:10083000780170BD70B54FF0FF0C4CF4E06C1CEA11
:1008400011541DBF1CEA135594EA0C0F95EA0C0FC6
:1008500000F0A7F8A4EB050481EA030E52EA033581
:100860004FEA013100F088804FEA03334FF08055A2
:1008700045EA131343EA12634FEA022245EA1115CF
:1008800045EA10654FEA00260EF000419D4208BF80
:10089000964244F1FD0404F5407402D25B084FEA2D
:1008A0003202B61A65EB03055B084FEA32024FF4D9
:1008B00080104FF4002CB6EB020E75EB030E22BF36
:1008C000B61A754640EA0C005B084FEA3202B6EBF6
:1008D000020E75EB030E22BFB61A754640EA5C00A5
:1008E0005B084FEA3202B6EB020E75EB030E22BF35
:1008F000B61A754640EA9C005B084FEA3202B6EB36
:10090000020E75EB030E22BFB61A754640EADC00F4
:1009100055EA060E18D04FEA051545EA16754FEA56
:1009200006164FEAC30343EA52734FEAC2025FEA74
:100930001C1CC0D111F4801F0BD141EA00014FF003
:1009400000004FF0004CB6E711F4801F04BF0143D4
:100950000020B4F1FD0C88BFBCF5E06F3FF6AFAEF0
:10096000B5EB030C04BFB6EB020C5FEA500C50F180
:10097000000041EB045170BD0EF0004E4EEA113103
:1009800014EB5C04C2BFD4EB0C0541EA045170BD0A
:1009900041F480114FF0000E013C90E645EA060E4E
:1009A0008DE60CEA135594EA0C0F08BF95EA0C0F7C
:1009B0003FF43BAF94EA0C0F0AD150EA01347FF4C4
:1009C00034AF95EA0C0F7FF425AF104619462CE79B
:1009D00095EA0C0F06D152EA03353FF4FDAE1046FE
:1009E000194622E750EA410618BF52EA43067FF44F
:1009F000C5AE50EA41047FF40DAF52EA43057FF4DF
:100A0000EBAE12E74A0011D212F5001211D20DD549
:100A10006FF47873B3EB62520ED44FEAC12343F004
:100A2000004343EA505323FA02F070474FF00000AE
:100A3000704750EA013002D14FF0FF3070474FF05D
:100A4000000070474FEA4102B2F1E04324BFB3F522
:100A5000001CDCF1FE5C0DD901F0004C4FEAC00235
:100A60004CEA5070B2F1004F40EB830008BF20F019
:100A70000100704711F0804F21D113F13872BCBFD3
:100A800001F00040704741F480114FEA5252C2F128
:100A90001802C2F1200C10FA0CF320FA02F018BF71
:100AA00040F001004FEAC1234FEAD32303FA0CFCC4
:100AB00040EA0C0023FA02F34FEA4303CCE77FEA53
:100AC000625307D150EA01331EBF4FF0FE4040F49D
:100AD0004000704701F0004040F0FE4040F400004C
:100AE000704700BF53B94AB9002908BF00281CBF8E
:100AF0004FF0FF314FF0FF3000F07AB9ADF1080C44
:100B00006DE904CE00F006F8DDF804E0DDE902232B
:100B100004B070472DE9F0478C460D460446089E08
:100B2000002B51D18A4217466DD9B2FA82FEBEF12E
:100B3000000F0BD0CEF1200C01FA0EF520FA0CFCC0
:100B400002FA0EF74CEA050C00FA0EF44FEA174AC7
:100B5000250CBCFBFAF81FFA87F90AFB18CC45EA0A
:100B60000C4508FB09F3AB420AD9ED1908F1FF3235
:100B700080F02381AB4240F22081A8F102083D447D
:100B8000ED1AA4B2B5FBFAF00AFB105544EA05448D
:100B900000FB09F9A14509D9E41900F1FF3380F000
:100BA0000A81A14540F2078102383C44A4EB0904C4
:100BB00040EA08400021002E61D024FA0EF4002300
:100BC00034607360BDE8F0878B4207D9002E54D0A3
:100BD000002186E821000846BDE8F087B3FA83F1DA
:100BE000002940F08E80AB4202D3824200F2FA80AC
:100BF000841A65EB03050120AC46002E3FD086E841
:100C00001010BDE8F08712B90127B7FBF2F7B7FA69
:100C100087FEBEF1000F34D1EB1B3A0C1FFA87FCA4
:100C20000121B3FBF2F8250C02FB183345EA03451A
:100C30000CFB08F3AB4207D9ED1908F1FF3002D2E3
:100C4000AB4200F2D1808046ED1AA3B2B5FBF2F0C0
:100C500002FB105543EA05440CFB00FCA44507D9F0
:100C6000E41900F1FF3302D2A44500F2B88018461F
:100C7000A4EB0C0440EA08409DE731463046BDE84D
:100C8000F087CEF1200405FA0EF307FA0EF720FAEA
:100C900004F83A0C25FA04F448EA0308B4FBF2F12C
:100CA0004FEA184502FB11441FFA87FC45EA044548
:100CB00001FB0CF3AB4200FA0EF409D9ED1901F176
:100CC000FF3080F08A80AB4240F2878002393D4499
:100CD000EB1A1FFA88F5B3FBF2F002FB103345EA7A
:100CE000034500FB0CF3AB4207D9ED1900F1FF38C7
:100CF0006FD2AB426DD902383D44EB1A40EA014154
:100D00008FE7C1F1200722FA07F88B4005FA01F4BA
:100D100048EA030320FA07FE4FEA134CFD404EEA6F
:100D2000040EB5FBFCF94FEA1E440CFB19551FFAE3
:100D300083F844EA054509FB08F4AC4202FA01F2E3
:100D400000FA01FA08D9ED1809F1FF3043D2AC429C
:100D500041D9A9F102091D442D1B1FFA8EFEB5FBD6
:100D6000FCF00CFB10554EEA054400FB08F8A045CA
:100D700007D9E41800F1FF3529D2A04527D9023858
:100D80001C4440EA0940A4EB0804A0FB02894C453E
:100D9000C6464D4615D312D056B1BAEB0E0364EBDE
:100DA000050404FA07F7CB401F43CC40376074605A
:100DB0000021BDE8F0871846F8E69046E0E6C24517
:100DC000EAD2B8EB020E69EB03050138E4E72846E6
:100DD000D7E7404691E78146BEE7014678E702380B
:100DE0003C4445E7084608E7A8F102083D442BE7E4
:100DF000704700BF10B5084B044618684FF47A736B
:100E0000B0FBF3F000F094F8002221464FF0FF30E1
:100E100000F04EF8002010BD0400002008B50B4B78
:100E20001A6842F400721A601A6842F480621A600A
:100E30001A6842F480721A60032000F027F800203C
:100E4000FFF7D8FF01F030FC002008BD003C024055
:100E5000024A136801331360704700BFB4000020DA
:100E6000014B1868704700BFB400002037B50190EF
:100E7000FFF7F6FF019C631C054618BF0134FFF71E
:100E8000EFFF401BA042FAD303B030BD074AD3683E
:100E900023F4E0631B041B0C43F0BF63000243F424
:100EA000003300F4E0600343D360704700ED00E0DE
:100EB000174B30B5DC68C4F30224C4F10703251DC9
:100EC000042B28BF0423062D4FF0010505FA03F378
:100ED00003F1FF338CBF033C00241940A14005FA05
:100EE00004F4013C2240002842EA01024FEA0212C7
:100EF000AFBF00F1604000F00F00064BD2B2A5BFBB
:100F000000F56140D2B21A5480F8002330BD00BF12
:100F100000ED00E014ED00E04209012300F01F00A5
:100F200003FA00F0014B43F82200704700E100E0B3
:100F30000138B0F1807F0AD2064B074A5860F02191
:100F400082F823100020072298601A607047012061
:100F5000704700BF10E000E000ED00E0044B1A68AD
:100F600004280CBF42F0040222F004021A60704709
:100F700010E000E0704708B5FFF7FCFF08BD000077
:100F80002DE9F04F85B00B68DFF8AC81684ADFF8D7
:100F9000AC91019300234FF0010E019C0EFA03FE69
:100FA0000EEA0406B64540F0AE804C6824F0100707
:100FB000022F16D14FEAD30A00EB8A0A03F0070B7F
:100FC000DAF820504FEA8B0B4FF00F0C0CFA0BFCA9
:100FD00025EA0C0C0D6905FA0BF545EA0C05CAF873
:100FE00020504FEA430A0325D0F800B005FA0AF56D
:100FF000ED4304F0030C0BEA050B0CFA0AFC013F6D
:101000004CEA0B0C012FC0F800C011D8876807EA22
:10101000050BCF6807FA0AFC4CEA0B0787604768A4
:1010200027EA0E0EC4F300179F4047EA0E074760F9
:10103000C7683D408F6807FA0AF73D43C560E50081
:1010400061D54FF0000BCDF80CB0D8F84470394D95
:1010500047F48047C8F84470D8F8447007F48047D4
:101060000397039F23F0030707F1804707F59C3799
:1010700003F0030CD7F808A04FEA8C0C4FF00F0ECA
:101080000EFA0CFEA8422AEA0E0E43D005F5806542
:10109000A84241D005F58065A8423FD005F580659E
:1010A000A8423DD005F58065A8423BD048453BD0DD
:1010B00005F50065A84239D005F58065A84214BF42
:1010C0000825072505FA0CF545EA0E05BD601568EB
:1010D000F74314F4803F0CBF3D403543156055681D
:1010E00014F4003F0CBF3D4035435560956814F43F
:1010F000801F0CBF3D4035439560D568A40254BFA6
:101100003D403543D5600133102B7FF444AF05B02B
:10111000BDE8F08F5D46D5E70125D3E70225D1E78D
:101120000325CFE70425CDE70525CBE70625C9E74D
:10113000003C014000000240003802400014024020
:101140000AB1816170470904FBE70000F7B5044666
:1011500010B9012003B0F0BD0368D8073BD4236861
:10116000990700F1848023681E0700F1C680236878
:101170005D072AD500230193AA4BAB4D1A6C42F0B0
:1011800080521A641B6C03F080530193019B2B68FF
:1011900043F480732B60FFF763FE06462B68DA0585
:1011A00040F1CD80A3689F4D012B40F0CF802B6F85
:1011B00043F001032B67FFF753FE9A4D064641F2B9
:1011C00088372B6F9B0740F1E280A269002A40F02C
:1011D000E5800020BEE7934B9A6802F00C02042AD7
:1011E00007D09A6802F00C02082A0AD15B685A02FA
:1011F00007D58C4B1B689B03B1D56368002BAED120
:10120000A7E76368874DB3F5803F11D12B6843F49E
:1012100080332B60FFF724FE824D06462B689F0328
:101220009DD4FFF71DFE801B6428F7D9032091E7AA
:10123000B3F5A02F04D12B6843F480232B60E5E79E
:101240002A6822F480322A602A6822F480222A60E6
:10125000002BDFD1FFF704FE06462B6898037FF5CD
:101260007EAFFFF7FDFD801B6428F6D9DEE76D4BEE
:101270009A6812F00C0F07D09A6802F00C02082A44
:1012800012D15B6859020FD4664B1A68920703D5D6
:10129000E268012A7FF45DAF1A68216922F0F80242
:1012A00042EAC1021A605EE7E268604BB2B1012215
:1012B0001A60FFF7D5FD5B4D06462B689B0707D5E7
:1012C0002B68226923F0F80343EAC2032B604AE744
:1012D000FFF7C6FD801B0228EFD9A7E71A60FFF7CA
:1012E000BFFD504D06462B689F077FF53CAFFFF7CB
:1012F000B7FD801B0228F6D998E762694C4B7AB19A
:1013000001221A60FFF7ACFD464D06466B6F980749
:101310003FF52DAFFFF7A4FD801B0228F6D985E726
:101320001A60FFF79DFD3F4D06466B6F99077FF5ED
:101330001EAFFFF795FD801B0228F6D976E7FFF771
:101340008FFD801B02287FF629AF6FE7052B04D1A4
:101350002B6F43F004032B6729E72A6F22F0010269
:101360002A672A6F22F004022A67002B7FF423AF3A
:10137000FFF776FD41F2883706462B6F98077FF519
:1013800024AFFFF76DFD801BB842F6D94EE7FFF79B
:1013900067FD801BB8427FF614AF47E7214DAB686D
:1013A00003F00C03082B3FF4D4AE224E0023022A94
:1013B00033602AD1FFF754FD07462B6899011ED4EC
:1013C000226AE3691343626A43EA8213E26A43EAE8
:1013D0000263A26A134C5208013A43EA02436B606B
:1013E00001233360FFF73CFD054623689A013FF572
:1013F000F0AEFFF735FD401B0228F6D916E7FFF7E0
:101400002FFDC01B0228D8D910E7FFF729FD04469D
:101410002B689B017FF5DDAEFFF722FD001B022844
:10142000F6D903E700380240007000400000474250
:10143000800E474260004742134908B58B6803F0AD
:101440000C03042B03D0082B03D0104808BD104810
:1014500008BD4A684B68496813F4800314BF0C4800
:101460000A48C1F3881118BF002302F03F02A1FB14
:101470000001FFF737FB044B5B68C3F30143013303
:101480005B00B0FBF3F008BD003802400024F4001C
:1014900000127A002DE9F0410D46044610B90120F2
:1014A000BDE8F081444B1A6802F00F028A4228D34B
:1014B00021688F072DD4C80740D43F4B1A6802F02B
:1014C0000F02954266D3226851076CD4130707D5E3
:1014D0003A4A2169936823F4604343EAC103936065
:1014E000FFF7AAFF354B364A9B68C3F30313D35C5F
:1014F000D840344B18600020FFF77CFC0020BDE88A
:10150000F081CAB21A701B6803F00F039942C6D16A
:10151000CEE72A4B11F0040F1EBF9A6842F4E05246
:101520009A600E0742BF9A6842F460429A609A68D5
:10153000A06822F0F00202439A60BCE762681F4B89
:10154000012A1DD11B6813F4003FA8D01B4EB368BD
:1015500023F003031343B360FFF782FC41F28838A2
:101560000746B368626803F00C03B3EB820FA4D0A4
:10157000FFF776FCC01B4045F3D90320BDE8F0819E
:10158000911E01291B6802D813F0007FDDE713F0DC
:10159000020FDAE7EAB21A701B6803F00F039D42EC
:1015A0007FF47DAF8FE70549E0688B6823F4E05353
:1015B00003438B608AE700BF003C024000380240D2
:1015C0007731000804000020014B1868704700BF05
:1015D00004000020044B054A9B68C3F38223D35CBC
:1015E000034A1068D840704700380240873100082D
:1015F000040000200F2303600B4B9A6802F00302E3
:1016000042609A6802F0F00282609A6802F4E05246
:10161000C2609B68DB0803F4E0530361034B1B6863
:1016200003F00F030B60704700380240003C02409B
:10163000036A23F001030362036A426870B5846998
:101640000D6824F0730425438C6823F002032343C0
:101650000C4CA04209D004F58064A04205D0426041
:101660004A6885614263036270BDCC688E6923F06D
:10167000080323434C6922F44072344323F00403EB
:101680002243ECE700000140036A23F48073036205
:10169000036A426870B5C4690D6824F07304254379
:1016A0008C6823F4007343EA04230E4CA04209D053
:1016B00004F58064A04205D042604A68C561C263F7
:1016C000036270BDCC688E6923F4006343EA04238F
:1016D0004C6922F44052344323F4806342EA0412FA
:1016E000EAE700BF00000140036A23F4805303626D
:1016F00030B5046A4368C2690D6822F4E64242EAE2
:1017000005228D6824F4005444EA0534094DA842AA
:1017100009D005F58065A84205D043604B68C261D9
:101720000364046230BD4D6923F4804343EA8513AA
:10173000F3E700BF000001400368DA6842F00102ED
:10174000DA601A6842F001021A60002070477047A0
:10175000036889B1042907D01A6A22F001021A62CB
:101760001A6A42F001021A621A6A22F010021A6220
:101770001A6A42F0100206E01A6A22F001021A62A6
:101780001A6A42F001021A621A6842F001021A60F3
:101790000020704790F83830012B70B54FF00203ED
:1017A0001CD080F839300368012280F838209A680C
:1017B00022F47F4222F077029A600A68402A79D0A8
:1017C00019D8102A00F093800AD8002A00F08980E6
:1017D000012380F83930002380F83830184670BD76
:1017E000202A00F08A80302AF2D19A6822F0700212
:1017F00042F0370236E0702A36D01BD8502A42D049
:10180000602AE5D11C6A4D68CE6824F010041C6281
:1018100099691A6A21F4704122F0A00242EA051285
:1018200041EA063199611A629A6822F0700242F028
:10183000670217E0B2F5805F11D0B2F5005FC7D143
:101840008A684D689C68C9682A4324F47F4442EA48
:10185000012222439A609A6842F4804202E09A6828
:1018600022F007029A60B3E78A684D689C68C968ED
:101870002A4324F47F4442EA012222439A609A6870
:1018800042F07702EEE74C68CE68196A1D6A25F0CF
:1018900001051D629A6921F00A0122F0F00242EA74
:1018A000061221439A6119629A6822F0700242F08E
:1018B0005702D7E74C68CE68196A1D6A25F0010502
:1018C0001D629A6921F00A0122F0F00242EA061232
:1018D00021439A6119629A6822F0700242F047022D
:1018E000C0E79A6822F0700242F00702BAE79A68ED
:1018F00022F0700242F01702B4E79A6822F07002F8
:1019000042F02702AEE770477047704770470368A0
:101910001A69910710B504460ED5DA6892070BD5FF
:101920006FF002021A619B6901229B07027677D051
:10193000FFF7EAFF0023237623681A69500710D5C2
:10194000DA6851070DD56FF004021A619B69022213
:1019500013F4407F2276204668D0FFF7D5FF00239E
:10196000237623681A6912070FD5DA6810070CD599
:101970006FF008021A61DB6904229907227620467B
:101980005AD0FFF7C1FF0023237623681A69D206D5
:1019900010D5DA68D0060DD56FF010021A61DB6938
:1019A000082213F4407F227620464BD0FFF7ACFF8D
:1019B0000023237623681A69D10708D5DA68D2078D
:1019C00005D56FF001021A61204600F015FC23686E
:1019D0001A69100608D5DA68110605D56FF080027D
:1019E0001A61204600F0F3F923681A69520608D5F7
:1019F000DA68500605D56FF040021A612046FFF7FD
:101A000085FF23681A69910622D5DA6892061FD5E8
:101A10006FF0200220461A61BDE8104000F0D6B9F0
:101A2000FFF771FF2046FFF770FF83E7FFF76BFFBB
:101A30002046FFF76AFF92E7FFF765FF2046FFF7B2
:101A400064FFA0E7FFF75FFF2046FFF75EFFAFE709
:101A500010BD00002E4A0368904212D0B0F1804FB2
:101A60000FD0A2F57C4290420BD002F580629042EA
:101A700007D002F58062904203D002F5784290428E
:101A80001DD14A6823F070031343214A904204D1C8
:101A9000CA6823F44073134328E0B0F1804FF7D0B5
:101AA0001C4A9042F4D002F580629042F0D002F5D8
:101AB00080629042ECD002F578429042E8D0164A1B
:101AC0009042E5D002F580629042E1D002F580625A
:101AD0009042DDD0A2F598329042D9D002F58062D2
:101AE0009042D5D002F580629042D1D003608B68DD
:101AF000C3620B688362064B984206D003F580638D
:101B0000984202D00123436170470B690363F9E7F0
:101B100000000140000400400040014010B50446B0
:101B2000A0B190F8393003F0FF021BB980F83820DB
:101B300000F012FE022384F839302068211DFFF7DF
:101B400089FF012384F83930002010BD012010BD29
:101B500010B50446A0B190F8393003F0FF021BB96C
:101B600080F83820FFF7F3FD022384F8393020682D
:101B7000211DFFF76FFF012384F83930002010BDCD
:101B8000012010BDF8B50C460546002841D090F85C
:101B9000393003F0FF021BB980F8382000F0B4FDA3
:101BA0002946022351F8040B85F83930836823F065
:101BB00007038360FFF74EFF286823688668826901
:101BC000A168076A1E43A36922F4407222F003024F
:101BD00041EA0323134323F47C422369E1691B0197
:101BE00043EA0123E1680B43216A22F0FC0243EA45
:101BF00001331343616927F0AA026768866047EAE8
:101C00000117836117430123076285F839300020EB
:101C1000F8BD0120F8BD0000036A23F01003036241
:101C2000036A426870B584690D6824F4E64444EAA6
:101C300005258C6823F0200343EA04130D4CA042D1
:101C400009D004F58064A04205D042604A688561ED
:101C50008263036270BDCC688E6923F0800343EA1F
:101C600004134C6922F44062344323F0400342EAF7
:101C70008402EAE70000014038B590F83830012BC3
:101C800004464FF0020025D0012384F8383084F850
:101C900039000C2A18D8DFE802F0071717171E17AB
:101CA00017172F17171740002068FFF7C1FC23688C
:101CB00009699A6942F008029A619A6922F004025D
:101CC0009A619A690A439A610123002084F83930A5
:101CD00084F8380038BD2068FFF79EFF2368096943
:101CE0009A6942F400629A619A6922F480629A6168
:101CF0009A6942EA0122E6E72068FFF7C5FC2368FB
:101D00000969DA6942F00802DA61DA6922F004024C
:101D1000DA61DA690A43DA61D6E72068FFF7E4FCA2
:101D200023680969DA6942F40062DA61DA6922F447
:101D30008062DA61DA6942EA0122ECE7036A10B5EF
:101D400001248C4023EA04030362036A8A401A4395
:101D5000026210BD10B5044601220068FFF7EEFFD5
:101D60002368084A934203D002F58062934203D16C
:101D70005A6C42F400425A641A6842F001021A6036
:101D8000002010BD0000014090F83830012B10B544
:101D90004FF0020318D080F8393003680C685A6895
:101DA000496822F070025A605A6822435A609A6861
:101DB00022F080029A609A680A439A60012380F8B0
:101DC0003930002380F83830184610BD704770470E
:101DD000074B0138D8621A6922F001021A611A68A9
:101DE00042F001021A601A69D207FCD5704700BFA1
:101DF000000400400000000010B586B0694601A84C
:101E0000FFF7F8FB049B002B2CD1FFF7E3FBFEF759
:101E100071FB19A3D3E90023FEF7E2FB144A154C2A
:101E2000136C43F002031364236823F01003236050
:101E3000236823F001032360236823F00403236055
:101E4000236843F008032360FEF7DCFD0923013813
:101E5000A062E36201236361236923F0010323612C
:101E600006B010BDFFF7B6FB4000D0E7AFF300802F
:101E700000380240000400408DEDB5A0F7C6B03E2A
:101E800038B50A4D0A4C298820680122FFF758F915
:101E90000A20FFF79DFF206829880022FFF750F9EC
:101EA0003C20BDE83840FFF793BF00BF98000020FA
:101EB000A40000202DE9F047434B1B78012B04467A
:101EC0004FEA10163DD1414D414B00F001021988F7
:101ED0002868FFF735F93F4B2868198804F002029B
:101EE000FFF72EF93C4B2868198804F00402FFF72D
:101EF00027F93A4B2868198804F00802FFF720F9FF
:101F0000374C384B2068198806F00102FFF718F9A2
:101F1000354B2068198806F00202FFF711F9334BA0
:101F20002068198806F00402FFF70AF9304B206890
:101F3000198806F00802FFF703F9BDE8F047FFF73C
:101F40009FBF022B3ED1264DDFF898A0DFF8989076
:101F5000BAF800102868DFF89480254F06F00102D7
:101F6000FFF7EEF806F00202B9F800102868FFF754
:101F7000E7F806F00402B8F800102868FFF7E0F868
:101F800006F0080239882868FFF7DAF8FFF778FFCB
:101F900004F00102BAF800102868FFF7D1F804F045
:101FA0000202B9F800102868FFF7CAF804F004022A
:101FB000B8F800102868FFF7C3F804F00802398861
:101FC0002868B8E7BDE8F087020000209C000020E8
:101FD000880000208A0000208C0000208E00002055
:101FE000A00000209000002092000020940000201B
:101FF0009600002038B5144B144C1988144B054634
:1020000000221868FFF79CF8124B2068198805F029
:102010000102FFF795F8104B2068198805F00202BD
:10202000FFF78EF80D4B2068198805F00402FFF7C2
:1020300087F80B4B2068198805F00802FFF780F835
:10204000BDE83840FFF71CBF9A000020A000002028
:10205000A4000020900000209200002094000020A6
:102060009600002010B5064B1988064B0446002246
:102070001868FFF765F82046BDE81040FFF71ABF63
:102080009A000020A4000020F8B5DFF8C0E0BDF8F9
:102090001870CEF800002448BDF81C600180234968
:1020A000BDF820500A80224ABDF824401360214B1D
:1020B0001F80214B1E80214B1D80214B1C80FFF770
:1020C0009BFE204B02251D701F4B282414201C70E2
:1020D000FEF7CCFE0320FFF78DFF0520FEF7C6FEBE
:1020E0000320FFF787FF0120FEF7C0FE0320FFF764
:1020F00081FF0120FEF7BAFE2846FFF77BFF012093
:10210000FEF7B4FE0F20FFF7ADFF0120FFF7AAFF97
:102110000320FEF7ABFE2046FFF7A4FF0320BDE837
:10212000F840FEF7A3BE00BF9A00002098000020F0
:10213000A0000020900000209200002094000020C9
:10214000960000200200002001000020A4000020D2
:102150002DE9F0410A4FDFF82C80451E00F10F04F5
:1021600015F8016F56B101223988D8F80000FEF742
:10217000E7FF3046FFF79EFEA542F1D1BDE8F081B2
:102180009A000020A4000020013901F00F0101286D
:102190000CBF41F0800041F0C000FFF763BF0000BA
:1021A000034B187800F0FD001870FFF75BBF00BF0D
:1021B0000000002008B50120FFF754FF0320BDE810
:1021C0000840FEF753BE0000034B187800F0FE00F5
:1021D0001870FFF747BF00BF000000201FB5024680
:1021E0000449684600F08EFB6846FFF7B1FF05B072
:1021F0005DF804FB74310008F8B50268524B9A424E
:102200002DED048B7BD15149514B4A6A514C524DB3
:10221000206812B21A8000234B62504BB3F9003091
:102220009B1A07EE903A4E4BF8EEE78AB1EE048A1D
:10223000C3ED008A28EE888A4A4B83ED008AFEF7B8
:102240007BF9064618EE900A0F46FEF775F9002254
:10225000454BFEF7C5F902460B4630463946FEF7B8
:102260000DF8FEF7EFFBD5ED007A206078EEE77A07
:1022700009EE100A17EE900AFEF75EF930A3D3E9D3
:102280000023FEF7ADF9FEF7DDFB9FED387A384B02
:10229000C5ED008AB4EEC79AF1EE10FA06EE900A88
:1022A00018602FDD84ED007AD4ED007A314C78EEA1
:1022B000277A77EEA67AF4EEC77AF1EE10FA2BDDE4
:1022C00084ED007AD4ED007AF5EEC07AF1EE10FAE2
:1022D0002EDD012210212848FEF732FF00224FF4A4
:1022E00000512648FEF72CFFD4ED007A244AFDEE7B
:1022F000E77A17EE903A002BB8BF5B425363BDEC10
:10230000048BF8BDDFED1F7AB4EEE79AF1EE10FA18
:1023100048BFC4ED007AC7E79FED1A7AF4EEC77A9A
:10232000F1EE10FA48BFF0EE477AC4ED007AC9E743
:10233000002210211048FEF703FF0122CFE700BF63
:102340009A9999999999A93F001400400000014079
:10235000480100203C01002044010020BC00002076
:1023600088010020400100200000E03F0000C8423A
:10237000C0000020B8000020001002400008024009
:10238000004001400000C8C230B595B00023274A84
:102390000193116C41F080511164126C02F0805273
:1023A0000192019A224A0293116841F4804111601E
:1023B00012680F9302F4804202920823029A10934B
:1023C000012202240B92A8231022042508A80894B5
:1023D0000C920E94119312941395FEF7B7FE00B170
:1023E000FEE70F2303934FF4A053059006930521B6
:1023F0004FF4805303A804940793FFF74BF8044667
:1024000000B1FEE7FFF7E0F84FF47A73B0FBF3F0AA
:10241000FEF78EFD2846FEF7A1FD224621464FF02D
:10242000FF30FEF745FD15B030BD00BF003802405B
:102430000070004080B596B00024FEF7EFFCFFF777
:10244000A3FF8B4B04941A6B8A488B4D42F0100209
:102450001A631A6B02F010020492049A05941A6B24
:1024600042F004021A631A6B02F004020592059A04
:1024700006941A6B42F080021A631A6B02F0800213
:102480000692069A07941A6B42F002021A631A6BBC
:1024900002F002020792079A08941A6B42F00802AF
:1024A0001A631B6B03F00803089322461021089B54
:1024B000FEF746FE22464FF400517048FEF740FEFC
:1024C00022464FF420416E48FEF73AFE22464FF472
:1024D0002A416C48FEF734FE012610230DA96548F9
:1024E0000D930E960F9410944FF40058FEF748FD8C
:1024F0000DA96248CDF834800E960F941094FEF723
:102500003FFD4FF420430DA95D480D930E960F94A7
:102510001094FEF735FD4FF42A430DA959480D9349
:102520000E960F941094FEF72BFD574BAC6085E888
:1025300018004FF6FF73EB600DA9022328462C61AB
:102540006C610D930E940F9610941194129413963F
:1025500014941594FFF716FB00B1FEE709900A905A
:1025600009A92846FFF710FC00B1FEE7474C484B8D
:10257000A060542684E84800206164232046E3607C
:10258000FFF7CCFA00B1FEE74FF4805309A92046CB
:102590000993FFF7FFF800B1FEE72046FFF7D8FAEE
:1025A000024600B1FEE760230E900F9011900DA936
:1025B00020460D93FFF760FB074600B1FEE720467B
:1025C00000F0FCF8334E3448B7604FF4527386E89D
:1025D00009004FF47A633046F360FFF79FFA00B1C9
:1025E000FEE720230E900DA930460D93FFF7CCFB9C
:1025F000074600B1FEE74FF400424FF400714FF47C
:10260000006303921E48CDF808808DE80A001D4B38
:102610004146FFF739FDFFF7C3FDFFF7D5FD39460A
:102620002846FFF795F839462046FFF793FB3046DA
:10263000FFF782F8194D1A4C2F80FFF7BBFD0121DF
:102640000846FFF7A1FDB4F90000FFF7C7FD082118
:102650000120FFF799FD134BD3ED007AFDEEE77AE9
:1026600017EE900AFFF7BAFDC820FEF7FFFBE3E77D
:102670000038024000100240C40000200008024060
:1026800000040240000C0240000001400001002054
:10269000004001404C01002000140040BC0000201C
:1026A00048010020B800002008B50320FEF7EEFB2B
:1026B000002211466FF00B00FEF7FAFB00221146D4
:1026C0006FF00A00FEF7F4FB002211466FF00900DC
:1026D000FEF7EEFB002211466FF00400FEF7E8FB68
:1026E000002211466FF00300FEF7E2FB00221146C4
:1026F0006FF00100FEF7DCFB002211464FF0FF30C7
:10270000BDE80840FEF7D4BB7FB502680F4B9A4284
:1027100018D100230E4A0093516C0E4841F001017C
:102720005164526C039302F001020092009A0493E8
:102730004FF4206201920123022201A90292059323
:10274000FEF71EFC07B05DF804FB00BF000001406F
:10275000003802400010024007B50368144A934253
:1027600015D10022134B0092196C41F0200119641D
:102770001B6C03F02003009337201146009BFEF7EB
:1027800097FB3720FEF7C8FB03B05DF804FB0A4A4D
:102790009342F9D100230193064B5A6C42F48032E4
:1027A0005A645B6C03F480330193019BECE700BF38
:1027B0000014004000380240004001407FB502682C
:1027C000094B9A420CD12023019302230293002348
:1027D0000393049301A9032304480593FEF7D0FB58
:1027E00007B05DF804FB00BF00400140001002404C
:1027F0007047FEE7FEE7FEE7FEE770477047704769
:1028000008B5FEF725FBBDE80840FEF7B4BB0000A5
:102810000148FFF77CB800BF4C0100200F49D1F8F8
:10282000883043F47003C1F888300D4B1A680020DB
:1028300042F001021A6098601A6822F0847222F451
:1028400080321A60074A5A601A6822F480221A609D
:10285000D8604FF000638B60704700BF00ED00E070
:102860000038024010300024DFF834D0002103E0AB
:102870000C4B5B58435004310B480C4B42189A42A6
:10288000F6D30B4A02E0002342F8043B094B9A427C
:10289000F9D3FFF7C3FF00F011F8FFF7CBFD704746
:1028A00000000220D4310008000000206C0000204D
:1028B0006C00002090010020FEE7000070B50D4E76
:1028C0000D4CA41BA4100025A54209D10B4E0C4CA5
:1028D00000F044FCA41BA4100025A54205D170BD46
:1028E00056F8253098470135EEE756F825309847D9
:1028F0000135F2E7CC310008CC310008CC310008BA
:10290000D03100080EB400B59CB04FF402711DAB7D
:10291000ADF81410029006906FF000410A4804913F
:1029200007914FF6FF7153F8042BADF816100068AD
:10293000019302A900F066F8029B00221A701CB0F5
:102940005DF804EB03B07047080000202DE9F04764
:102950008E689E4282460C469146984635D88A89B2
:1029600012F4906F31D0256809696F1A65690223E6
:1029700005EB450595FBF3F508F101033B449D424A
:1029800038BF1D46530531D5294600F039FB0646B0
:1029900050B90C23CAF80030A38943F04003A38147
:1029A0004FF0FF30BDE8F0873A46216900F0B4FAF5
:1029B000A38923F4906343F08003A38126616561BA
:1029C0003E44ED1B2660A5604646464528BF464668
:1029D00032464946206800F0AAFAA3689B1BA36010
:1029E00023681E4426600020BDE8F0872A4600F0D8
:1029F00065FB06460028E1D12169504600F0B2FA95
:102A0000C7E700002DE9F04F9DB0804603938B8906
:102A10001C060D4616460FD50B696BB9402100F018
:102A2000EFFA2860286128B90C23C8F800304FF06D
:102A3000FF30C5E040236B610023099320238DF80C
:102A4000293030238DF82A304FF0010B37463C46B1
:102A500014F8013B002B3CD1B7EB060A0BD05346D0
:102A6000324629464046FFF771FF013000F0A3804F
:102A7000099B534409933B78002B00F09C80002372
:102A80004FF0FF3204930793059206938DF853306D
:102A90001A93052221785048FDF79AFB671C049B86
:102AA000D8B9D90644BF20228DF853201A0744BF55
:102AB0002B228DF8532022782A2A16D0079A00213B
:102AC0000A20274601343B78303B092B51D9C9B144
:102AD00011E0252BC0D02746B9E73F4A801A0BFAF0
:102AE00000F0184304903C46D3E7039A111D126886
:102AF0000391002A01DB079204E0524243F00203F3
:102B0000079204933B782E2B0ED17B782A2B07F16A
:102B1000010132D1039B1A1D1B680392002BB8BF21
:102B20004FF0FF33023705932C4C397803222046AF
:102B3000FDF74EFB38B14023001B03FA00F0049B65
:102B4000034304930137397825488DF8281006226D
:102B50007E1CFDF73DFB002835D0224BFBB9039BC3
:102B6000073323F0070308330393099B4B4409936E
:102B70006CE700FB02320121A3E70023059318460E
:102B80000A240F4601313A78303A092A03D9002B3A
:102B9000CAD00590C8E704FB00200123F1E703AB8E
:102BA00000932A46104B04A94046AFF30080B0F1D1
:102BB000FF3F8146D9D1AB895B063FF538AF099815
:102BC0001DB0BDE8F08F03AB00932A46064B04A965
:102BD000404600F081F8EAE78F310008953100089F
:102BE00099310008000000004D2900082DE9F04748
:102BF00091461F468A680B69DDF820809342B8BF72
:102C00001346C9F8003091F8432006460C4612B12D
:102C10000133C9F800302368990642BFD9F8003063
:102C20000233C9F80030256815F0060507D104F114
:102C3000190AE368D9F800209B1A9D4229DB94F811
:102C400043302268003318BF012392062ED404F1CA
:102C5000430239463046C047013021D02368E56839
:102C6000D9F8002003F00603042B08BFAD1AA368AF
:102C700022690CBF25EAE57500259342C4BF9B1A63
:102C8000ED184FF000091A344D451BD10020BDE866
:102C9000F0870123524639463046C047013003D100
:102CA0004FF0FF30BDE8F0870135C2E7E1185A1C4C
:102CB000302081F84300224494F8451082F84310F4
:102CC0000233C4E70123224639463046C04701306B
:102CD000E6D009F10109D7E72DE9F04317460A7E4E
:102CE00085B06E2A984606460C460C9B01F1430EB1
:102CF00000F0BC801AD8632A2ED00AD8002A00F02F
:102D0000C880582A00F08A8004F1420584F84220E5
:102D10002AE0642A01D0692AF6D121681A6811F0E4
:102D2000800F23D0111D1960136827E0732A00F06B
:102D3000B48008D86F2A2AD0702AE5D10A6842F0F8
:102D400020020A6003E0752A21D0782ADCD178229B
:102D500084F845206E4964E01A6801F14205111DAE
:102D60001960136884F842300123A3E011F0400F8A
:102D700002F104011960D7D0B2F90030002B03DA58
:102D80002D225B4284F8432062490A2217E0206822
:102D9000196810F0800F03D0081D18600B6806E05A
:102DA00010F0400F01F104001860F7D00B8859496A
:102DB0006F2A14BF0A220822002084F843006568A5
:102DC000A560002DC0F29C80206820F004002060E7
:102DD000002B3FD1002D40F095807546082A0BD17D
:102DE0002368DA0708D5236962689A42DEBF302378
:102DF00005F8013C05F1FF35AEEB05032361CDF885
:102E000000803B4603AA21463046FFF7EFFE013023
:102E100055D14FF0FF3005B0BDE8F08381F8452073
:102E20003C492268186812F0800F00F104051D600B
:102E300001D0036802E05506FBD50388D00744BFE4
:102E400042F0200222601BB9226822F02002226098
:102E50001022B1E77546B3FBF2F002FB1033CB5CF6
:102E600005F8013D03460028F5D1B7E708681A6860
:102E7000496910F0800F04D0101D186013681960A4
:102E800007E010F0400F02F1040018601368F6D05C
:102E90001980002323617546B1E71A68111D196076
:102EA0001568626800212846FDF792F908B1401BB9
:102EB000606063682361002384F843309FE72369DF
:102EC0002A4639463046C0470130A2D023689B07C6
:102ED00007D5002504F11909E368039A9B1A9D425E
:102EE00005DBE068039B9842B8BF184693E70123CF
:102EF0004A4639463046C04701308AD00135EBE7B3
:102F0000002BA7D10B7884F8423004F1420565E725
:102F1000B1310008A031000810B5431E0A449142A7
:102F200000D110BD11F8014B03F8014FF7E78842BB
:102F300010B501EB020303D8421E99420CD110BD1B
:102F40009842F9D28118D21AD34200D110BD13F899
:102F5000014D01F8014DF7E711F8014B02F8014F5F
:102F6000EBE7000038B50546002945D051F8043C90
:102F70000C1F002BB8BFE41800F0D6F81F4A1368E6
:102F8000104633B9636014602846BDE8384000F04D
:102F9000CCB8A3420CD921686218934204BF1A68C6
:102FA0005B68636004BF521822600460ECE713465C
:102FB0005A680AB1A242FAD919685818A0420BD12E
:102FC00020680144581882421960DDD110685268A7
:102FD0005A6001441960D7E702D90C232B60D3E76C
:102FE000206821188A4204BF11685268626004BFD9
:102FF000091821605C60C7E738BD00BFA800002049
:1030000070B5CD1C25F0030508350C2D38BF0C25F7
:10301000002D064601DBA94203D90C2333600020B2
:1030200070BD00F081F8234A1468214691B9224C02
:1030300023681BB9304600F067F820602946304607
:1030400000F062F8431C26D10C233360304600F0B8
:103050006CF8E4E70B685B1B1AD40B2B0FD90B60E1
:10306000CD50CC18304600F060F804F10B00231D61
:1030700020F00700C31A1BD05A42E25070BD8C42A8
:103080000DBF63684B686360136018BF0C46E9E7C7
:103090000C464968CAE7C41C24F00304A04205D0CA
:1030A000211A304600F030F80130CDD02560D9E744
:1030B00070BD00BFA8000020AC000020F8B5074696
:1030C00014460E4621B91146BDE8F840FFF798BFF7
:1030D00022B9FFF747FF25462846F8BD00F026F83D
:1030E00084420FD921463846FFF78AFF054600285B
:1030F000F2D031462246FFF70FFF31463846FFF740
:1031000031FFE9E73546E7E738B5064C00230546C9
:103110000846236000F014F8431C02D1236803B171
:103120002B6038BD8C0100207047704751F8040CAB
:103130000028A0F10400BCBF0B58C0187047000065
:10314000044B1968024609B903491960186802441A
:103150001A607047B000002090010020F8B500BF51
:10316000F8BC08BC9E467047F8B500BFF8BC08BC68
:043170009E467047C0
:1031740025640000000000000000000102030406B2
:103184000708090000000001020304232D302B204E
:1031940000686C4C00656667454647003031323341
:1031A40034353637383941424344454600303132AC
:1031B400333435363738396162636465660000003C
:0831C40050D9FF7F010000005B
:0431CC00B501000841
:0431D0009101000861
:1031D4000F3801000024F4000C000020000000005F
:1031E40000000000000000000000000000000000DB
:1031F40000000000000000000000000000000000CB
:1032040000000000000000000000000000000000BA
:1032140000000000000000000000000000000000AA
:10322400000000000000000000000000000000009A
:0C3234000000000000000000000000008E
:04000005080028695E
:00000001FF
