:020000040800F2
:100000000000022061400008C53F0008C73F00080B
:10001000C93F0008CB3F0008CD3F000800000000AA
:10002000000000000000000000000000CF3F0008BA
:10003000D13F000800000000D33F0008D53F000872
:10004000B1400008B1400008B1400008B1400008CC
:10005000B1400008B1400008B1400008B1400008BC
:10006000B1400008B1400008B1400008B1400008AC
:10007000E53F0008B1400008B1400008B140000869
:10008000B1400008B1400008B1400008B14000088C
:10009000B1400008B1400008B1400008B14000087C
:1000A000B1400008B1400008B1400008B14000086C
:1000B000B1400008B1400008B1400008B14000085C
:1000C000B1400008B1400008B1400008B14000084C
:1000D000B1400008B1400008B1400008F13F0008FD
:1000E000B1400008B1400008B1400008B14000082C
:1000F000B1400008B1400008B1400008B14000081C
:10010000B1400008B1400008B1400008B14000080B
:10011000B1400008B1400008FD3F00080940000858
:10012000B1400008B1400008B1400008B1400008EB
:10013000B1400008B1400008B1400008B1400008DB
:10014000B1400008B1400008B1400008B1400008CB
:10015000B1400008B1400008B1400008B1400008BB
:10016000B1400008B1400008B1400008B1400008AB
:10017000B1400008B1400008B14000080000000094
:08018000B1400008B140000885
:1001900010B5054C237833B9044B13B10448AFF3C1
:1001A00000800123237010BD7400002000000000B7
:1001B0002454000808B5034B1BB103490348AFF3AF
:1001C000008008BD000000007800002024540008D2
:1001D00001F0FF01102A2BDB10F0070F08D010F8F8
:1001E000013B013A8B422DD010F0070F42B3F6D1FC
:1001F000F0B441EA012141EA014122F007047FF015
:1002000000070023F0E80256083C85EA010586EA6B
:10021000010685FA47F5A3FA87F586FA47F6A5FAA7
:1002200087F68EB9EED1F0BC01F0FF0102F00702B3
:1002300032B110F8013B013A83EA010313B1F8D15E
:100240000020704701387047002D06BF354603383F
:10025000073815F0010F07D1013015F4807F02BF78
:10026000013015F4C03F0130F0BC0138704700BFC9
:1002700081F0004102E000BF83F0004330B54FEA57
:1002800041044FEA430594EA050F08BF90EA020FC4
:100290001FBF54EA000C55EA020C7FEA645C7FEA57
:1002A000655C00F0E2804FEA5454D4EB5555B8BF7A
:1002B0006D420CDD2C4480EA020281EA030382EAEB
:1002C000000083EA010180EA020281EA0303362D7D
:1002D00088BF30BD11F0004F4FEA01314FF4801C50
:1002E0004CEA113102D0404261EB410113F0004F62
:1002F0004FEA03334CEA133302D0524263EB430319
:1003000094EA050F00F0A780A4F10104D5F1200EB6
:100310000DDB02FA0EFC22FA05F2801841F1000111
:1003200003FA0EF2801843FA05F359410EE0A5F1E5
:1003300020050EF1200E012A03FA0EFC28BF4CF016
:10034000020C43FA05F3C01851EBE37101F00045CC
:1003500007D54FF0000EDCF1000C7EEB00006EEBD9
:100360000101B1F5801F1BD3B1F5001F0CD3490863
:100370005FEA30004FEA3C0C04F101044FEA4452BA
:1003800012F5800F80F09A80BCF1004F08BF5FEA41
:10039000500C50F1000041EB045141EA050130BD21
:1003A0005FEA4C0C404141EB010111F4801FA4F1C4
:1003B0000104E9D191F0000F04BF01460020B1FA19
:1003C00081F308BF2033A3F10B03B3F120020CDA51
:1003D0000C3208DD02F1140CC2F10C0201FA0CF02F
:1003E00021FA02F10CE002F11402D8BFC2F1200C94
:1003F00001FA02F120FA0CFCDCBF41EA0C0190404A
:10040000E41AA2BF01EB0451294330BD6FEA040492
:100410001F3C1CDA0C340EDC04F11404C4F120027D
:1004200020FA04F001FA02F340EA030021FA04F38F
:1004300045EA030130BDC4F10C04C4F1200220FAE6
:1004400002F001FA04F340EA0300294630BD21FA24
:1004500004F0294630BD94F0000F83F4801306BFEA
:1004600081F480110134013D4EE77FEA645C18BFDE
:100470007FEA655C29D094EA050F08BF90EA020F75
:1004800005D054EA000C04BF1946104630BD91EA6D
:10049000030F1EBF0021002030BD5FEA545C05D170
:1004A0004000494128BF41F0004130BD14F58004AF
:1004B0003CBF01F5801130BD01F0004545F0FE4123
:1004C00041F470014FF0000030BD7FEA645C1ABF58
:1004D000194610467FEA655C1CBF0B46024650EA8F
:1004E000013406BF52EA033591EA030F41F40021BB
:1004F00030BD00BF90F0000F04BF0021704730B541
:100500004FF4806404F132044FF000054FF0000115
:1005100050E700BF90F0000F04BF0021704730B5D6
:100520004FF4806404F1320410F0004548BF4042AB
:100530004FF000013EE700BF42004FEAE2014FEA00
:1005400031014FEA02701FBF12F07F4393F07F4FDB
:1005500081F06051704792F0000F14BF93F07F4F0D
:10056000704730B54FF4607401F0004521F0004150
:1005700020E700BF50EA010208BF704730B54FF0D6
:1005800000050AE050EA010208BF704730B511F0DB
:10059000004502D5404261EB41014FF4806404F113
:1005A00032045FEA915C3FF4DCAE4FF003025FEA95
:1005B000DC0C18BF03325FEADC0C18BF033202EB1D
:1005C000DC02C2F1200300FA03FC20FA02F001FA77
:1005D00003FE40EA0E0021FA02F11444C1E600BF16
:1005E00070B54FF0FF0C4CF4E06C1CEA11541DBFC9
:1005F0001CEA135594EA0C0F95EA0C0F00F0DEF894
:100600002C4481EA030621EA4C5123EA4C5350EA78
:10061000013518BF52EA033541F4801143F48013C9
:1006200038D0A0FB02CE4FF00005E1FB02E506F05A
:100630000042E0FB03E54FF00006E1FB03569CF0AF
:10064000000F18BF4EF0010EA4F1FF04B6F5007FB5
:1006500064F5407404D25FEA4E0E6D4146EB060627
:1006600042EAC62141EA55514FEAC52040EA5E50B0
:100670004FEACE2EB4F1FD0C88BFBCF5E06F1ED85A
:10068000BEF1004F08BF5FEA500E50F1000041EB91
:10069000045170BD06F0004646EA010140EA02003E
:1006A00081EA0301B4EB5C04C2BFD4EB0C0541EA60
:1006B000045170BD41F480114FF0000E013C00F375
:1006C000AB8014F1360FDEBF002001F0004170BD99
:1006D000C4F10004203C35DA0C341BDC04F11404B2
:1006E000C4F1200500FA05F320FA04F001FA05F23E
:1006F00040EA020001F0004221F0004110EBD3700B
:1007000021FA04F642EB06015EEA430E08BF20EA36
:10071000D37070BDC4F10C04C4F1200500FA04F3D9
:1007200020FA05F001FA04F240EA020001F000416B
:1007300010EBD37041F100015EEA430E08BF20EADE
:10074000D37070BDC4F1200500FA05F24EEA020E26
:1007500020FA04F301FA05F243EA020321FA04F055
:1007600001F0004121FA04F220EA020000EBD3700C
:100770005EEA430E08BF20EAD37070BD94F0000F0C
:100780000FD101F00046400041EB010111F4801F40
:1007900008BF013CF7D041EA060195F0000F18BFF1
:1007A000704703F00046520043EB030313F4801F2D
:1007B00008BF013DF7D043EA0603704794EA0C0FE7
:1007C0000CEA135518BF95EA0C0F0CD050EA4106FD
:1007D00018BF52EA4306D1D181EA030101F000417A
:1007E0004FF0000070BD50EA410606BF10461946A2
:1007F00052EA430619D094EA0C0F02D150EA0136AE
:1008000013D195EA0C0F05D152EA03361CBF1046EE
:1008100019460AD181EA030101F0004141F0FE418D
:1008200041F470014FF0000070BD41F0FE4141F411
:10083000780170BD70B54FF0FF0C4CF4E06C1CEA11
:1008400011541DBF1CEA135594EA0C0F95EA0C0FC6
:1008500000F0A7F8A4EB050481EA030E52EA033581
:100860004FEA013100F088804FEA03334FF08055A2
:1008700045EA131343EA12634FEA022245EA1115CF
:1008800045EA10654FEA00260EF000419D4208BF80
:10089000964244F1FD0404F5407402D25B084FEA2D
:1008A0003202B61A65EB03055B084FEA32024FF4D9
:1008B00080104FF4002CB6EB020E75EB030E22BF36
:1008C000B61A754640EA0C005B084FEA3202B6EBF6
:1008D000020E75EB030E22BFB61A754640EA5C00A5
:1008E0005B084FEA3202B6EB020E75EB030E22BF35
:1008F000B61A754640EA9C005B084FEA3202B6EB36
:10090000020E75EB030E22BFB61A754640EADC00F4
:1009100055EA060E18D04FEA051545EA16754FEA56
:1009200006164FEAC30343EA52734FEAC2025FEA74
:100930001C1CC0D111F4801F0BD141EA00014FF003
:1009400000004FF0004CB6E711F4801F04BF0143D4
:100950000020B4F1FD0C88BFBCF5E06F3FF6AFAEF0
:10096000B5EB030C04BFB6EB020C5FEA500C50F180
:10097000000041EB045170BD0EF0004E4EEA113103
:1009800014EB5C04C2BFD4EB0C0541EA045170BD0A
:1009900041F480114FF0000E013C90E645EA060E4E
:1009A0008DE60CEA135594EA0C0F08BF95EA0C0F7C
:1009B0003FF43BAF94EA0C0F0AD150EA01347FF4C4
:1009C00034AF95EA0C0F7FF425AF104619462CE79B
:1009D00095EA0C0F06D152EA03353FF4FDAE1046FE
:1009E000194622E750EA410618BF52EA43067FF44F
:1009F000C5AE50EA41047FF40DAF52EA43057FF4DF
:100A0000EBAE12E74FF0FF3C06E000BF4FF0010CE9
:100A100002E000BF4FF0010C4DF804CD4FEA410C4D
:100A20007FEA6C5C4FEA430C18BF7FEA6C5C1BD01A
:100A300001B050EA410C0CBF52EA430C91EA030F9B
:100A400002BF90EA020F0020704710F1000F91EAF8
:100A5000030F58BF994208BF90422CBFD8176FEAC6
:100A6000E37040F0010070474FEA410C7FEA6C5C94
:100A700002D150EA013C07D14FEA430C7FEA6C5C9B
:100A8000D6D152EA033CD3D05DF8040B704700BFC7
:100A90008446104662468C461946634600E000BF15
:100AA00001B5FFF7B7FF002848BF10F1000F01BDE7
:100AB0004DF808EDFFF7F4FF0CBF012000205DF8B2
:100AC00008FB00BF4DF808EDFFF7EAFF34BF012037
:100AD00000205DF808FB00BF4DF808EDFFF7E0FFD0
:100AE00094BF012000205DF808FB00BF4DF808ED21
:100AF000FFF7CEFF94BF012000205DF808FB00BF88
:100B00004DF808EDFFF7C4FF34BF012000205DF869
:100B100008FB00BF4FEA4102B2F1E04324BFB3F546
:100B2000001CDCF1FE5C0DD901F0004C4FEAC00264
:100B30004CEA5070B2F1004F40EB830008BF20F048
:100B40000100704711F0804F21D113F13872BCBF02
:100B500001F00040704741F480114FEA5252C2F157
:100B60001802C2F1200C10FA0CF320FA02F018BFA0
:100B700040F001004FEAC1234FEAD32303FA0CFCF3
:100B800040EA0C0023FA02F34FEA4303CCE77FEA82
:100B9000625307D150EA01331EBF4FF0FE4040F4CC
:100BA0004000704701F0004040F0FE4040F400007B
:100BB000704700BF53B94AB9002908BF00281CBFBD
:100BC0004FF0FF314FF0FF3000F07AB9ADF1080C73
:100BD0006DE904CE00F006F8DDF804E0DDE902235B
:100BE00004B070472DE9F0478C460D460446089E38
:100BF000002B51D18A4217466DD9B2FA82FEBEF15E
:100C0000000F0BD0CEF1200C01FA0EF520FA0CFCEF
:100C100002FA0EF74CEA050C00FA0EF44FEA174AF6
:100C2000250CBCFBFAF81FFA87F90AFB18CC45EA39
:100C30000C4508FB09F3AB420AD9ED1908F1FF3264
:100C400080F02381AB4240F22081A8F102083D44AC
:100C5000ED1AA4B2B5FBFAF00AFB105544EA0544BC
:100C600000FB09F9A14509D9E41900F1FF3380F02F
:100C70000A81A14540F2078102383C44A4EB0904F3
:100C800040EA08400021002E61D024FA0EF400232F
:100C900034607360BDE8F0878B4207D9002E54D0D2
:100CA000002186E821000846BDE8F087B3FA83F109
:100CB000002940F08E80AB4202D3824200F2FA80DB
:100CC000841A65EB03050120AC46002E3FD086E870
:100CD0001010BDE8F08712B90127B7FBF2F7B7FA99
:100CE00087FEBEF1000F34D1EB1B3A0C1FFA87FCD4
:100CF0000121B3FBF2F8250C02FB183345EA03454A
:100D00000CFB08F3AB4207D9ED1908F1FF3002D212
:100D1000AB4200F2D1808046ED1AA3B2B5FBF2F0EF
:100D200002FB105543EA05440CFB00FCA44507D91F
:100D3000E41900F1FF3302D2A44500F2B88018464E
:100D4000A4EB0C0440EA08409DE731463046BDE87C
:100D5000F087CEF1200405FA0EF307FA0EF720FA19
:100D600004F83A0C25FA04F448EA0308B4FBF2F15B
:100D70004FEA184502FB11441FFA87FC45EA044577
:100D800001FB0CF3AB4200FA0EF409D9ED1901F1A5
:100D9000FF3080F08A80AB4240F2878002393D44C8
:100DA000EB1A1FFA88F5B3FBF2F002FB103345EAA9
:100DB000034500FB0CF3AB4207D9ED1900F1FF38F6
:100DC0006FD2AB426DD902383D44EB1A40EA014183
:100DD0008FE7C1F1200722FA07F88B4005FA01F4EA
:100DE00048EA030320FA07FE4FEA134CFD404EEA9F
:100DF000040EB5FBFCF94FEA1E440CFB19551FFA13
:100E000083F844EA054509FB08F4AC4202FA01F212
:100E100000FA01FA08D9ED1809F1FF3043D2AC42CB
:100E200041D9A9F102091D442D1B1FFA8EFEB5FB05
:100E3000FCF00CFB10554EEA054400FB08F8A045F9
:100E400007D9E41800F1FF3529D2A04527D9023887
:100E50001C4440EA0940A4EB0804A0FB02894C456D
:100E6000C6464D4615D312D056B1BAEB0E0364EB0D
:100E7000050404FA07F7CB401F43CC403760746089
:100E80000021BDE8F0871846F8E69046E0E6C24546
:100E9000EAD2B8EB020E69EB03050138E4E7284615
:100EA000D7E7404691E78146BEE7014678E702383A
:100EB0003C4445E7084608E7A8F102083D442BE713
:100EC000704700BF10B5084B044618684FF47A739A
:100ED000B0FBF3F000F094F8002221464FF0FF3011
:100EE00000F04EF8002010BD0C00002008B50B4BA0
:100EF0001A6842F400721A601A6842F480621A603A
:100F00001A6842F480721A60032000F027F800206B
:100F1000FFF7D8FF02F06DFE002008BD003C024044
:100F2000024A136801331360704700BFA800002015
:100F3000014B1868704700BFA800002037B501902A
:100F4000FFF7F6FF019C631C054618BF0134FFF74D
:100F5000EFFF401BA042FAD303B030BD074AD3686D
:100F600023F4E0631B041B0C43F0BF63000243F453
:100F7000003300F4E0600343D360704700ED00E00D
:100F8000174B30B5DC68C4F30224C4F10703251DF8
:100F9000042B28BF0423062D4FF0010505FA03F3A7
:100FA00003F1FF338CBF033C00241940A14005FA34
:100FB00004F4013C2240002842EA01024FEA0212F6
:100FC000AFBF00F1604000F00F00064BD2B2A5BFEA
:100FD00000F56140D2B21A5480F8002330BD00BF42
:100FE00000ED00E014ED00E04209012300F01F00D5
:100FF00003FA00F0014B43F82200704700E100E0E3
:101000000138B0F1807F0AD2064B074A5860F021C0
:1010100082F823100020072298601A607047012090
:10102000704700BF10E000E000ED00E0044B1A68DC
:1010300004280CBF42F0040222F004021A60704738
:1010400010E000E0704708B5FFF7FCFF08BD0000A6
:101050000368DAB223F47F7323F003031821103AF4
:10106000B2FBF1F20449032A88BF0433895C83652B
:10107000C165806D704700BF3C54000870B50446E0
:10108000FFF756FF0546002C71D0002384F834305A
:101090002268022384F83530136823F001031360BB
:1010A00021680B68D8073CD40B68324D6268A06990
:1010B0001D40A3681343E268134322691343626926
:1010C0001343E26903431343226A1343626A042A07
:1010D00043EA050301BF266BE56A35432B430B60EA
:1010E0004B69042A23F0070343EA02030BD1A26AE7
:1010F000E56A13433DB1F8B9012A2DD001D3022A84
:1011000001D1EA012BD44B612046FFF7A1FFE26D2C
:101110003F239340836000200123606584F83530CD
:1011200070BDFFF705FF401B0528B9D92023636573
:10113000032084F8350070BDB0F5005F13D1032A99
:10114000E1D801A050F822F05F1100080311000857
:101150005F11000859110008B5F1C07FD3D14023B9
:1011600063650120E5E7022AF9D9032AC8E70120CF
:1011700070BD00BF3F8010F070B590F83440012C76
:1011800036D0012480F8344090F83540866D012C2B
:101190004FF000054FF0020428D180F83540046874
:1011A0004565256825F48025256063608368402BAC
:1011B0000EBFA260A160E260C26D08BFE1603F2384
:1011C0009340B360236843F016032360636943F0E0
:1011D00080036361036C1BB1236843F00803236041
:1011E000236843F001032360002070BD80F8345071
:1011F000022070BD70B50446856DFFF799FE94F826
:101200003530022B064606D080236365002384F820
:101210003430012070BD23681A6822F016021A606B
:101220005A6922F080025A61226C0AB9A26C1AB182
:101230001A6822F008021A601A6822F001021A6085
:101240002368186810F0010009D1E26D3F23934034
:10125000AB60012384F8340084F8353070BDFFF7AB
:1012600067FE801B0528EBD920236365032000233C
:1012700084F8343084F8350070BD90F83530022B96
:1012800003D080234365012070470268052380F85E
:101290003530136823F0010313600020704700000D
:1012A000F7B5002301935A4B856D1F68C36D2E68F7
:1012B00008229A40164204460CD00168086840078C
:1012C00008D5086820F004000860AA60626D42F04A
:1012D0000102626501229A40164208D021684969DC
:1012E000090641BFAA60626D42F0020262650422F3
:1012F0009A40164208D021680968880741BFAA6051
:10130000626D42F00402626510229A40164210D0CB
:101310002368196809070CD5AA601A68500335D5E7
:101320001B68190301D4236C00E0A36C0BB12046A9
:101330009847E16D20228A40164238D02368186809
:10134000C60634D5AA6094F83520052A1A6825D136
:1013500022F016021A605A6922F080025A61226C49
:101360000AB9A26C1AB11A6822F008021A603F2367
:101370008B40AB60002384F83430012384F835308F
:10138000236D0BB12046984703B0F0BD1A68D20513
:101390005EBF1A6822F008021A60C4E7500328D51D
:1013A0001B68190332D4636C0BB120469847636DF8
:1013B000002BE9D0636DDA0719D50523226884F87C
:1013C0003530136823F0010313604FF41653B7FB55
:1013D000F3F7019B01339F42019302D31368DB07AC
:1013E000F7D4002384F83430012384F83530E36CDB
:1013F000C7E71A6812F4807208D1196821F0100149
:101400001960012384F8342084F83530E36BCBE78E
:101410000C0000202DE9F04F85B00B68DFF8AC819F
:10142000684ADFF8AC91019300234FF0010E019C54
:101430000EFA03FE0EEA0406B64540F0AE804C6894
:1014400024F01007022F16D14FEAD30A00EB8A0AC4
:1014500003F0070BDAF820504FEA8B0B4FF00F0C1C
:101460000CFA0BFC25EA0C0C0D6905FA0BF545EAA4
:101470000C05CAF820504FEA430A0325D0F800B003
:1014800005FA0AF5ED4304F0030C0BEA050B0CFA20
:101490000AFC013F4CEA0B0C012FC0F800C011D828
:1014A000876807EA050BCF6807FA0AFC4CEA0B07C6
:1014B0008760476827EA0E0EC4F300179F4047EA8B
:1014C0000E074760C7683D408F6807FA0AF73D433B
:1014D000C560E50061D54FF0000BCDF80CB0D8F831
:1014E0004470394D47F48047C8F84470D8F84470C8
:1014F00007F480470397039F23F0030707F1804712
:1015000007F59C3703F0030CD7F808A04FEA8C0CC2
:101510004FF00F0E0EFA0CFEA8422AEA0E0E43D030
:1015200005F58065A84241D005F58065A8423FD009
:1015300005F58065A8423DD005F58065A8423BD001
:1015400048453BD005F50065A84239D005F58065D2
:10155000A84214BF0825072505FA0CF545EA0E0533
:10156000BD601568F74314F4803F0CBF3D40354320
:101570001560556814F4003F0CBF3D40354355607D
:10158000956814F4801F0CBF3D4035439560D568C5
:10159000A40254BF3D403543D5600133102B7FF486
:1015A00044AF05B0BDE8F08F5D46D5E70125D3E730
:1015B0000225D1E70325CFE70425CDE70525CBE7B5
:1015C0000625C9E7003C0140000002400038024007
:1015D000001402400369194214BF01200020704723
:1015E0000AB1816170470904FBE70000F7B50446C2
:1015F00010B9012003B0F0BD0368D8073BD42368BD
:10160000990700F1848023681E0700F1C6802368D3
:101610005D072AD500230193AA4BAB4D1A6C42F00B
:1016200080521A641B6C03F080530193019B2B685A
:1016300043F480732B60FFF77BFC06462B68DA05CA
:1016400040F1CD80A3689F4D012B40F0CF802B6FE0
:1016500043F001032B67FFF76BFC9A4D064641F2FE
:1016600088372B6F9B0740F1E280A269002A40F087
:10167000E5800020BEE7934B9A6802F00C02042A32
:1016800007D09A6802F00C02082A0AD15B685A0255
:1016900007D58C4B1B689B03B1D56368002BAED17B
:1016A000A7E76368874DB3F5803F11D12B6843F4FA
:1016B00080332B60FFF73CFC824D06462B689F036E
:1016C0009DD4FFF735FC801B6428F7D9032091E7F0
:1016D000B3F5A02F04D12B6843F480232B60E5E7FA
:1016E0002A6822F480322A602A6822F480222A6042
:1016F000002BDFD1FFF71CFC06462B6898037FF513
:101700007EAFFFF715FC801B6428F6D9DEE76D4B32
:101710009A6812F00C0F07D09A6802F00C02082A9F
:1017200012D15B6859020FD4664B1A68920703D531
:10173000E268012A7FF45DAF1A68216922F0F8029D
:1017400042EAC1021A605EE7E268604BB2B1012270
:101750001A60FFF7EDFB5B4D06462B689B0707D52C
:101760002B68226923F0F80343EAC2032B604AE79F
:10177000FFF7DEFB801B0228EFD9A7E71A60FFF70F
:10178000D7FB504D06462B689F077FF53CAFFFF710
:10179000CFFB801B0228F6D998E762694C4B7AB1DF
:1017A00001221A60FFF7C4FB464D06466B6F98078F
:1017B0003FF52DAFFFF7BCFB801B0228F6D985E76C
:1017C0001A60FFF7B5FB3F4D06466B6F99077FF533
:1017D0001EAFFFF7ADFB801B0228F6D976E7FFF7B7
:1017E000A7FB801B02287FF629AF6FE7052B04D1EA
:1017F0002B6F43F004032B6729E72A6F22F00102C5
:101800002A672A6F22F004022A67002B7FF423AF95
:10181000FFF78EFB41F2883706462B6F98077FF55E
:1018200024AFFFF785FB801BB842F6D94EE7FFF7E0
:101830007FFB801BB8427FF614AF47E7214DAB68B2
:1018400003F00C03082B3FF4D4AE224E0023022AEF
:1018500033602AD1FFF76CFB07462B6899011ED431
:10186000226AE3691343626A43EA8213E26A43EA43
:101870000263A26A134C5208013A43EA02436B60C6
:1018800001233360FFF754FB054623689A013FF5B7
:10189000F0AEFFF74DFB401B0228F6D916E7FFF725
:1018A00047FBC01B0228D8D910E7FFF741FB0446CD
:1018B0002B689B017FF5DDAEFFF73AFB001B02288A
:1018C000F6D903E7003802400070004000004742AC
:1018D000800E474260004742134908B58B6803F009
:1018E0000C03042B03D0082B03D0104808BD10486C
:1018F00008BD4A684B68496813F4800314BF0C485C
:101900000A48C1F3881118BF002302F03F02A1FB6F
:101910000001FFF74FF9044B5B68C3F30143013348
:101920005B00B0FBF3F008BD003802400024F40077
:1019300000127A002DE9F0410D46044610B901204D
:10194000BDE8F081444B1A6802F00F028A4228D3A6
:1019500021688F072DD4C80740D43F4B1A6802F086
:101960000F02954266D3226851076CD4130707D53E
:101970003A4A2169936823F4604343EAC1039360C0
:10198000FFF7AAFF354B364A9B68C3F30313D35CBA
:10199000D840344B18600020FFF794FA0020BDE8CF
:1019A000F081CAB21A701B6803F00F039942C6D1C6
:1019B000CEE72A4B11F0040F1EBF9A6842F4E052A2
:1019C0009A600E0742BF9A6842F460429A609A6831
:1019D000A06822F0F00202439A60BCE762681F4BE5
:1019E000012A1DD11B6813F4003FA8D01B4EB36819
:1019F00023F003031343B360FFF79AFA41F28838E8
:101A00000746B368626803F00C03B3EB820FA4D0FF
:101A1000FFF78EFAC01B4045F3D90320BDE8F081E3
:101A2000911E01291B6802D813F0007FDDE713F037
:101A3000020FDAE7EAB21A701B6803F00F039D4247
:101A40007FF47DAF8FE70549E0688B6823F4E053AE
:101A500003438B608AE700BF003C0240003802402D
:101A60006F5400080C000020014B1868704700BF3D
:101A70000C000020044B054A9B68C3F38223D35C0F
:101A8000034A1068D8407047003802407F5400086D
:101A90000C000020044B054A9B68C3F34233D35C1F
:101AA000034A1068D8407047003802407F5400084D
:101AB0000C000020036A23F001030362036A4268FA
:101AC00070B584690D6824F0730425438C6823F095
:101AD000020323430C4CA04209D004F58064A042C9
:101AE00005D042604A6885614263036270BDCC687C
:101AF0008E6923F0080323434C6922F44072344377
:101B000023F004032243ECE700000140036A23F4BE
:101B100080730362036A426870B5C4690D6824F07B
:101B2000730425438C6823F4007343EA04230E4CAA
:101B3000A04209D004F58064A04205D042604A6802
:101B4000C561C263036270BDCC688E6923F4006313
:101B500043EA04234C6922F44052344323F4806363
:101B600042EA0412EAE700BF00000140036A23F4DE
:101B70008053036230B5046A4368C2690D6822F479
:101B8000E64242EA05228D6824F4005444EA053412
:101B9000094DA84209D005F58065A84205D04360EB
:101BA0004B68C2610364046230BD4D6923F4804315
:101BB00043EA8513F3E700BF000001400368DA68D9
:101BC00042F00102DA601A6842F001021A60002055
:101BD00070477047036889B1042907D01A6A22F058
:101BE00001021A621A6A42F001021A621A6A22F0AB
:101BF00010021A621A6A42F0100206E01A6A22F013
:101C000001021A621A6A42F001021A621A6842F06C
:101C100001021A600020704790F83830012B70B52F
:101C20004FF002031CD080F839300368012280F89D
:101C300038209A6822F47F4222F077029A600A687C
:101C4000402A79D019D8102A00F093800AD8002AA7
:101C500000F08980012380F83930002380F8383083
:101C6000184670BD202A00F08A80302AF2D19A6886
:101C700022F0700242F0370236E0702A36D01BD8CC
:101C8000502A42D0602AE5D11C6A4D68CE6824F003
:101C900010041C6299691A6A21F4704122F0A002B2
:101CA00042EA051241EA063199611A629A6822F005
:101CB000700242F0670217E0B2F5805F11D0B2F512
:101CC000005FC7D18A684D689C68C9682A4324F4BC
:101CD0007F4442EA012222439A609A6842F4804299
:101CE00002E09A6822F007029A60B3E78A684D68BA
:101CF0009C68C9682A4324F47F4442EA01222243B3
:101D00009A609A6842F07702EEE74C68CE68196AEA
:101D10001D6A25F001051D629A6921F00A0122F071
:101D2000F00242EA061221439A6119629A6822F08F
:101D3000700242F05702D7E74C68CE68196A1D6AF4
:101D400025F001051D629A6921F00A0122F0F002D6
:101D500042EA061221439A6119629A6822F07002DF
:101D600042F04702C0E79A6822F0700242F0070290
:101D7000BAE79A6822F0700242F01702B4E79A6854
:101D800022F0700242F02702AEE7704770477047BA
:101D9000704703681A69910710B504460ED5DA68D2
:101DA00092070BD56FF002021A619B6901229B0713
:101DB000027677D0FFF7EAFF0023237623681A69BB
:101DC000500710D5DA6851070DD56FF004021A617B
:101DD0009B69022213F4407F2276204668D0FFF7E9
:101DE000D5FF0023237623681A6912070FD5DA6816
:101DF00010070CD56FF008021A61DB6904229907FD
:101E0000227620465AD0FFF7C1FF002323762368AD
:101E10001A69D20610D5DA68D0060DD56FF0100217
:101E20001A61DB69082213F4407F227620464BD0EA
:101E3000FFF7ACFF0023237623681A69D10708D582
:101E4000DA68D20705D56FF001021A61204601F069
:101E500005FA23681A69100608D5DA68110605D54F
:101E60006FF080021A61204600F0F3F923681A69C6
:101E7000520608D5DA68500605D56FF040021A619F
:101E80002046FFF785FF23681A69910622D5DA6894
:101E900092061FD56FF0200220461A61BDE810405F
:101EA00000F0D6B9FFF771FF2046FFF770FF83E718
:101EB000FFF76BFF2046FFF76AFF92E7FFF765FF2A
:101EC0002046FFF764FFA0E7FFF75FFF2046FFF71C
:101ED0005EFFAFE710BD00002E4A0368904212D0AB
:101EE000B0F1804F0FD0A2F57C4290420BD002F5AA
:101EF0008062904207D002F58062904203D002F5E2
:101F0000784290421DD14A6823F070031343214A5E
:101F1000904204D1CA6823F44073134328E0B0F11F
:101F2000804FF7D01C4A9042F4D002F58062904274
:101F3000F0D002F580629042ECD002F578429042F7
:101F4000E8D0164A9042E5D002F580629042E1D096
:101F500002F580629042DDD0A2F598329042D9D04D
:101F600002F580629042D5D002F580629042D1D0D5
:101F700003608B68C3620B688362064B984206D08D
:101F800003F58063984202D00123436170470B69D7
:101F90000363F9E7000001400004004000400140F5
:101FA00010B50446A0B190F8393003F0FF021BB918
:101FB00080F8382001F008FF022384F839302068C7
:101FC000211DFFF789FF012384F83930002010BD5F
:101FD000012010BD10B50446A0B190F8393003F0CF
:101FE000FF021BB980F83820FFF7F3FD022384F8C5
:101FF00039302068211DFFF76FFF012384F8393045
:10200000002010BD012010BDF8B50C460546002883
:1020100041D090F8393003F0FF021BB980F8382026
:1020200001F018FE2946022351F8040B85F83930D7
:10203000836823F007038360FFF74EFF2868236857
:1020400086688269A168076A1E43A36922F4407208
:1020500022F0030241EA0323134323F47C42236961
:10206000E1691B0143EA0123E1680B43216A22F085
:10207000FC0243EA01331343616927F0AA0267684F
:10208000866047EA0117836117430123076285F8D9
:1020900039300020F8BD0120F8BD0000036A23F0AC
:1020A00010030362036A426870B584690D6824F402
:1020B000E64444EA05258C6823F0200343EA041330
:1020C0000D4CA04209D004F58064A04205D04260C6
:1020D0004A6885618263036270BDCC688E6923F0B3
:1020E000800343EA04134C6922F44062344323F032
:1020F000400342EA8402EAE70000014038B590F864
:102100003830012B04464FF0020025D0012384F81B
:10211000383084F839000C2A18D8DFE802F00717A5
:1021200017171E1717172F17171740002068FFF7EC
:10213000C1FC236809699A6942F008029A619A69A8
:1021400022F004029A619A690A439A6101230020ED
:1021500084F8393084F8380038BD2068FFF79EFFD6
:10216000236809699A6942F400629A619A6922F4C3
:1021700080629A619A6942EA0122E6E72068FFF7E5
:10218000C5FC23680969DA6942F00802DA61DA6994
:1021900022F00402DA61DA690A43DA61D6E72068DC
:1021A000FFF7E4FC23680969DA6942F40062DA6146
:1021B000DA6922F48062DA61DA6942EA0122ECE744
:1021C000036A10B501248C4023EA04030362036A06
:1021D0008A401A43026210BD10B50446012200680D
:1021E000FFF7EEFF2368084A934203D002F58062AE
:1021F000934203D15A6C42F400425A641A6842F086
:1022000001021A60002010BD0000014090F8383033
:10221000012B10B54FF0020318D080F83930036855
:102220000C685A68496822F070025A605A68224362
:102230005A609A6822F080029A609A680A439A600B
:10224000012380F83930002380F83830184610BD5B
:10225000704770470368DA6822F49072DA605A694E
:1022600022F001025A61202380F83A3070470000C2
:102270002DE9F0470668C2683369C16923F4405309
:1022800013433361044683680069F268034360695D
:1022900022F41642034322F00C020B431343F36073
:1022A0007369A26923F440731343B1F5004F73615E
:1022B0007A4B7CD19E4203D003F580639E4244D189
:1022C000FFF7E8FB192505FB00F360684FF0640990
:1022D0004000B3FBF0F3B3FBF9F34FEA0318FFF749
:1022E000D9FB636868435B00B0FBF3F7FFF7D2FBF1
:1022F000636868435B00B0FBF3F3B3FBF9F309FBDE
:102300001373DB003233B3FBF9F35B0003F4F877AC
:10231000FFF7C0FB626868435200B0FBF2FAFFF7B8
:10232000B9FB636868435B00B0FBF3F3B3FBF9F3FD
:1023300009FB13A3DB003233B3FBF9F303F007030C
:1023400043443B44B360BDE8F087FFF793FB192596
:1023500005FB00F360684FF064094000B3FBF0F345
:10236000B3FBF9F34FEA0318FFF784FB6368684394
:102370005B00B0FBF3F7FFF77DFB636868435B002E
:10238000B0FBF3F3B3FBF9F309FB1373DB00323358
:10239000B3FBF9F35B0003F4F877FFF76BFB6268BC
:1023A00068435200B0FBF2FAFFF764FBB9E79E42C4
:1023B00002D03B4B9E4240D1FFF76CFB676819256A
:1023C0004FF0640905FB00F3BF00B3FBF7F3B3FB69
:1023D000F9F31F01FFF75EFB636868439B00B0FBE6
:1023E000F3F8FFF757FB636868439B00B0FBF3F318
:1023F000B3FBF9F309FB13831B013233B3FBF9F38E
:1024000003F0F008FFF746FB626868439200B0FBF8
:10241000F2FAFFF73FFB636868439B00B0FBF3F3FE
:10242000B3FBF9F309FB13A31B013233B3FBF9F33D
:1024300003F00F0343EA080383E7FFF71BFB67681A
:1024400019254FF0640905FB00F3BF00B3FBF7F358
:10245000B3FBF9F31F01FFF70DFB636868439B00B3
:10246000B0FBF3F8FFF706FB636868439B00B0FB23
:10247000F3F3B3FBF9F309FB13831B013233B3FB13
:10248000F9F303F0F008FFF7F5FA62686843920089
:10249000B0FBF2FAFFF7EEFABDE700BF0010014013
:1024A0000014014010B5044640B390F8393003F0F1
:1024B000FF021BB980F8382001F032FD2268242386
:1024C00084F83930D36823F40053D3602046FFF7F3
:1024D000CFFE23681A6922F490421A615A6922F0E9
:1024E0002A025A61DA6842F40052DA60002020239E
:1024F000E06384F8393084F83A3010BD012010BD13
:10250000134690F83A20202A73B5054638D10029A1
:1025100034D0002B32D090F83820012A30D001225C
:10252000002480F838202222C4638162838580F8E9
:102530003A20406B134AC2632E68134A0264134A5E
:10254000C26404650A46311DFEF716FE2B6801942D
:102550001A6801925A680192019ADA6885F838403F
:1025600042F48072DA605A6942F001025A615A6993
:1025700042F040025A61204602B070BD0120FBE7E4
:102580000220F9E7CF2500087B26000887260008EF
:102590000368DA6822F4907210B5DA605A6922F0A2
:1025A00001025A615A695206044609D55A69406BBC
:1025B00022F040025A6118B100230365FEF71AFEAB
:1025C00000202023E08584F83A3010BD704708B51C
:1025D0000368826B1B6813F4807310D1D385136872
:1025E000D96821F48071D960596921F001015961DC
:1025F000596921F040015961202382F83A30104690
:1026000000F042FF08BD90F83A30222B10B532D1CD
:10261000836801690268B3F5805F836A1FD15268DD
:10262000C9B9C2F3080223F8022B8362C48D013CAE
:10263000A4B2C4856CB90368DA6822F49072DA60D7
:102640005A6922F001025A61202380F83A3000F0E2
:102650001BFF002010BDD2B223F8012BE5E721B902
:10266000591C526881621A70E0E75268591C8162F5
:1026700002F07F02F7E7022010BD08B5806B00F082
:1026800023FF08BD7047816B08B50B685A6991F844
:10269000390021280AD1120608D50022CA84DA6836
:1026A00022F0C002DA60202281F839205B6991F8BB
:1026B0003A20222A06D15B0604D50023CB850846A2
:1026C000FFF7C8FDCB6B43F01003CB630846FFF761
:1026D000D9FF08BD03681A68D96870B516070446A3
:1026E0005D6907D196065AD58D0658D5BDE870406C
:1026F000FFF789BF15F0010502D111F4907F4ED08C
:10270000D30705D5CE0542BFE36B43F00103E36376
:10271000500704D51DB1E36B43F00203E363930755
:1027200004D51DB1E36B43F00403E363160704D53E
:102730001DB1E36B43F00803E363E36B002B66D04A
:10274000950604D5880602D52046FFF75CFF23686E
:102750005D69E26B1107204602D415F040051AD0DE
:10276000FFF778FD23685A69520610D55A69606BE5
:1027700022F040025A6150B1254B0365FEF77DFD02
:10278000002844D0606BBDE87040036D18472046B8
:10279000FFF778FF70BDFFF775FFE56370BD1606A4
:1027A00027D50D0625D594F83920212A2FD1A268E6
:1027B000B2F5805F226A17D11188C1F30801596010
:1027C000216979B902322262E28C013A92B2E28442
:1027D000EAB9DA6822F08002DA60DA6842F0400290
:1027E000DA6070BD0132EEE7511C216212785A6046
:1027F000EAE750060BD54A0609D5DA6822F040020E
:10280000DA60202384F839302046FFF7DFFE70BD00
:102810001528000808B5806B0023C385C384FFF723
:1028200031FF08BD38B51E4C0546C0F3C0024FF459
:1028300000412046FEF7D4FEC5F3800220464FF447
:102840000051FEF7CDFEC5F3400220464FF4006173
:10285000FEF7C6FE05F001024FF400712046FEF7B8
:10286000BFFEA4F500640020FEF768FB01224FF4D0
:1028700000412046FEF7B4FE0020FEF75FFB002279
:102880004FF400412046FEF7ABFE0020FEF756FB5A
:10289000204601224FF40041BDE83840FEF7A0BEBB
:1028A000000C024070B5394C394E0546C2094FF450
:1028B00000412046FEF794FEC5F3801220464FF4F7
:1028C0000051FEF78DFEC5F3401220464FF4006123
:1028D000FEF786FEC5F300124FF400712046FEF7A6
:1028E0007FFE0020FEF72AFB01224FF40041304614
:1028F000FEF776FE0020FEF721FB00224FF4004198
:102900003046FEF76DFE0020FEF718FB3046012230
:102910004FF40041FEF764FEC5F3C00220464FF4B9
:102920000041FEF75DFEC5F3800220464FF40051E2
:10293000FEF756FEC5F3400220464FF40061FEF755
:102940004FFE05F001024FF400712046FEF748FEED
:102950000020FEF7F3FA01224FF400413046FEF763
:102960003FFE0020FEF7EAFA00224FF40041304615
:10297000FEF736FE0020FEF7E1FA304601224FF462
:102980000041BDE87040FEF72BBE00BF000C0240C6
:102990000004024070B5C14BC14D98704026002420
:1029A00082191C705E70DA70BE4B1870BE4B2246E6
:1029B000197028464FF40051FEF712FE6420FEF70E
:1029C000BDFA0320FFF72EFF0520FEF7B7FA03201C
:1029D000FFF728FF0120FEF7B1FA0320FFF722FFDF
:1029E0000120FEF7ABFA0220FFF71CFF0120FEF7E3
:1029F000A5FA2820FFF756FF0820FFF753FF012014
:102A0000FEF79CFA0120FFF74DFF0320FEF796FA30
:102A10000620FFF747FF0120FEF790FA0C20FFF792
:102A200041FF0120FEF78AFA22464FF40051284662
:102A3000FEF7D6FD3046FFF735FF01224FF4005177
:102A40002846FEF7CDFD0720FFF72CFF0F20FFF7EC
:102A500029FF1F20FFF726FF1F20FFF723FF1F205E
:102A6000FFF720FF1F20FFF71DFF1F20FFF71AFFB2
:102A70001F20FFF717FF22464FF400512846FEF7AC
:102A8000AFFD4820FFF70EFF01224FF4005128460A
:102A9000FEF7A6FD1F20FFF705FF1F20FFF702FF2F
:102AA0001F20FFF7FFFE1F20FFF7FCFE1F20FFF790
:102AB000F9FE1F20FFF7F6FE0F20FFF7F3FE0720B9
:102AC000FFF7F0FE22464FF400512846FEF788FD3E
:102AD0005020FFF7E7FE01224FF400512846FEF791
:102AE0007FFD1C20FFF7DEFE1E20FFF7DBFE1F2010
:102AF000FFF7D8FE1F20FFF7D5FE1F20FFF7D2FEFD
:102B00001F20FFF7CFFE1F20FFF7CCFE1F20FFF78F
:102B1000C9FE22464FF400512846FEF761FD5820B9
:102B2000FFF7C0FE01224FF400512846FEF758FD82
:102B30001F20FFF7B7FE1F20FFF7B4FE1F20FFF78F
:102B4000B1FE1F20FFF7AEFE1F20FFF7ABFE1F20D8
:102B5000FFF7A8FE1E20FFF7A5FE1C20FFF7A2FE30
:102B600022464FF400512846FEF73AFD6020FFF759
:102B700099FE01224FF400512846FEF731FD1F2037
:102B8000FFF790FE1F20FFF78DFE1F20FFF78AFE44
:102B90002046FFF787FE2046FFF784FE2046FFF71A
:102BA00081FE2046FFF77EFE2046FFF77BFE224691
:102BB0004FF400512846FEF713FD6820FFF772FE20
:102BC00001224FF400512846FEF70AFD1F20FFF7AF
:102BD00069FE1F20FFF766FE1F20FFF763FE2046F9
:102BE000FFF760FE2046FFF75DFE2046FFF75AFE26
:102BF0001F20FFF757FE1F20FFF754FE22464FF419
:102C000000512846FEF7ECFC7020FFF74BFE012236
:102C10004FF400512846FEF7E3FC2046FFF742FE42
:102C20002046FFF73FFE2046FFF73CFE2046FFF719
:102C300039FE2046FFF736FE1F20FFF733FE1F2028
:102C4000FFF730FE1F20FFF72DFE22464FF4005104
:102C50002846FEF7C5FC7820FFF724FE01224FF43A
:102C600000512846FEF7BCFC1F20FFF71BFE1F206B
:102C7000FFF718FE1F20FFF715FE1F20FFF712FEBB
:102C80001F20FFF70FFE1F20FFF70CFE1F20FFF78E
:102C900009FE1F20BDE87040FFF704BEAE00002013
:102CA00000040240B7000020AC00002038B50F4BF4
:102CB0001C780F4B1D7884428CBF044600248D4243
:102CC0008CBF0D46002500224FF400510948FEF745
:102CD00087FC094B585D204460F07F00C0B2FFF7CD
:102CE000E1FD0020BDE83840FEF728B9B70000201C
:102CF000AC00002000040240AE00002010B501220C
:102D000004464FF400510548FEF76AFC2046FFF7E1
:102D1000C9FD0020BDE81040FEF710B900040240D4
:102D20002DE9F041194FDFF8688004460D46561C26
:102D300016F8013C0BB9BDE8F0813B78A3421AD8E4
:102D400098F80030AB420BD800210846FFF7AEFFE1
:102D500016F8010CFFF7D2FF002501240136E7E742
:102D60000135EDB229460020FFF7A0FF16F8010C4F
:102D7000FFF7C4FFF1E720462946FFF797FF01342C
:102D800016F8010CFFF7BAFFE4B2E7E7B70000203E
:102D9000AC000020084B012210B41A70074B00242D
:102DA0001C80074B5DF8044B1880064B0648914089
:102DB00019800421FEF714BC94000020900000202C
:102DC0009600002092000020001002400000000049
:102DD000534A5448F8B5536A446A534D1BB207EE40
:102DE000903A524B00212DED068B416218685162DA
:102DF000F8EEE78AFDF7A0FB43A3D3E900230646DC
:102E00000F46FDF73BFAFDF785FE00EE100A0AEECD
:102E1000900A01F091FD24B268EE809A07EE904A84
:102E20003BA3D3E90023C5ED009A30463946B8EEFE
:102E3000E78AFDF723FAFDF76DFE00EE100A0AEEB1
:102E4000100A01F079FD28EE009AB0EE6A0A85EDCD
:102E5000019A01F0B1FD364C68EE808AB0EE4A0A64
:102E6000C4ED008A01F0A8FD79EE897A28EE008A87
:102E700017EE900A84ED018AFDF75EFB26A3D3E9E5
:102E80000023FDF7ADFB2B4C064620680F46FDF7EF
:102E900053FB02460B4630463946FDF7EFF9FDF786
:102EA00039FE78EE887A206009EE100A17EE900A53
:102EB000FDF742FB18A3D3E90023FDF791FB1E4C5D
:102EC000064620680F46FDF737FB0B46024639469B
:102ED0003046FDF7D3F9FDF71DFE184B206093ED4A
:102EE000007A174B39EE479A07EE900A83ED009A65
:102EF000144BBDEC068B93ED007A134B77EEC77A3B
:102F0000C3ED007AF8BD00BF444C89247AD9024051
:102F10007A008BFCFA21E93FEE57E8203BB1A33F52
:102F2000000C004000080040E802002008000020DB
:102F3000AC04002038010020D0030020B80000209D
:102F400078030020B8030020BC000020000000002F
:102F50002DE9F04FAC4AAD4B516ADFF8F492AC4F1B
:102F6000DFF8F0A2DFF8F0822DED088B1980A94977
:102F7000DFEDA99A486A5880A8489FEDA99A446A4B
:102F80009C804FF0804589B06C6ADC8000246C62C4
:102F900044624C625462A34A0392A34A0492934649
:102FA000A04ACDF800803E464D460192CDF808A0DB
:102FB0000593B1EE00BAF0EE69AA9C4B059A33F97D
:102FC000143032F9142028689B1A07EE903A029BBD
:102FD000B8EEE78AA3EC018A029368EE0B8A019BA4
:102FE000E3EC018A0193FDF7A7FACDE9060118EE9B
:102FF000100AFDF7A1FA00228D4BFDF7F1FA024607
:103000000B46DDE90601FDF739F9FDF783FDDBED40
:10301000007A286078EE677A0AEE100A17EE900AB6
:10302000FDF78AFA76A3D3E90023FDF7D9FAFDF775
:1030300071FD009BABEC018A43F8040BB4EEE9AAE6
:10304000F1EE10FA07EE100A009328DDC5ED009AA4
:10305000D5ED007A78EEA77A77EE877AF4EEEA7A01
:10306000F1EE10FA23DDC6ED00AA0134042C05F1BF
:10307000040506F10406A0D16E4B1B68012B20D07D
:10308000634CD4ED007AF5EEC07AF1EE10FA2DDC47
:10309000002210216848FEF7A3FA01222CE0B4EECA
:1030A000C9AAF1EE10FA48BF85ED009AD0E7F4EE18
:1030B000C97AF1EE10FA54BFC6ED007A86ED009A97
:1030C000D3E75E4A0023049947F8043B41F8043BE8
:1030D000049103994AF8043B41F8043BBA42039136
:1030E00049F8043B48F8043BEDD1C9E7012210211F
:1030F0005148FEF775FA00224FF400515048FEF790
:103100006FFAD4ED017AF5EEC07AF1EE10FA5EDDD9
:10311000012210214B48FEF763FA00224021494862
:10312000FEF75EFAD4ED027AF5EEC07AF1EE10FA0F
:1031300054DD012202214348FEF752FA0022082101
:103140004048FEF74DFAD4ED037AF5EEC07AF1EE81
:1031500010FA4ADD01224FF400413948FEF740FAE7
:1031600000224FF480413648FEF73AFAD4ED007A57
:10317000354A3649FDEEE77A17EE903AD4ED017AFA
:10318000002BFDEEE77AB8BF5B42536317EE903A2F
:10319000D4ED027A002BFDEEE77AB8BF5B424B63B9
:1031A00017EE903AD4ED037A002B01F59431FDEE41
:1031B000E77AB8BF5B424B6317EE903A002BB8BF7B
:1031C0005B42936309B0BDEC088BBDE8F08F002231
:1031D00010211C48FEF704FA01229FE70022022179
:1031E0001848FEF7FDF90122A9E700224FF400413B
:1031F0001348FEF7F5F90122B3E700BFAFF30080F3
:103200007B14AE47E17AB43F000001405604002031
:1032100018020020000401400000C84200040040E1
:103220000000C8C218040020280400202C0200203E
:103230000000E03F28020020001002402802002089
:1032400000080240000C024000400140001C004009
:10325000C00300209C040020F00200200268284BDC
:103260009A422DE9F04180461FD1264DFFF7B0FD6F
:103270002F78012F29D1244CB4F90030002B14DD14
:10328000224EB6F900305A1C3280214AB2F9002091
:103290009A420AD1002204211E48FEF7A1F9002318
:1032A00033802B702388013B2380D8F800201A4BF1
:1032B0009A4223D14FF480711848FEF78BF9184BCE
:1032C000BDE8F0411860FFF743BE002FEDD10E4C72
:1032D000B4F90030012BE8DD0C4EB6F900305A1C71
:1032E00032800B4AB2F900209A42DED10122042139
:1032F0000848FEF775F937800123D2E7BDE8F08171
:103300000010004094000020920000209000002057
:10331000960000200010024000140040000002400F
:1033200028020020000000002DE9F0472DED028B5F
:103330004D4B4E4AD3F8033013604D4A4D4ED2EDFB
:10334000007A4D4C07EE103A37EEC78A86ED008AB8
:1033500018EE100AFDF7F0F83BA3D3E90023FDF7C0
:103360003FF9FDF7D7FBDFED457A9FED457A206009
:10337000054600223346B4EEE78AF1EE10FA40DC4F
:103380000AB183ED008AD3ED007A9FED3E7ADFED3E
:103390003C6A0022F4EEC77AF1EE10FA35D40AB195
:1033A000C3ED007A0FF2A809D9E900894FF0000AAD
:1033B0002846FDF7C1F828A3D3E9002306460F46A7
:1033C000FDF79EFB28BBBAF1000F00D025600FF27D
:1033D0008009D9E9008925684FF0000A2846FDF7E1
:1033E000ABF81FA3D3E9002306460F46FDF76AFB9F
:1033F000D8B9BAF1000F00D02560BDEC028BBDE852
:10340000F08738EE478A0122B5E777EEA67A0122E7
:10341000C0E742464B4630463946FCF72DFFFDF7E4
:1034200079FB4FF0010A0546C2E742464B4630465B
:103430003946FCF723FFFDF76DFB4FF0010A054607
:10344000CCE700BFAFF3008011DD52A246DF913F11
:10345000EA2E4454FB211940EA2E4454FB21094032
:10346000EA2E4454FB2109C01004002098000020DB
:103470000400002000000020080000200000344369
:103480000000B443000034C302680B4B9A4210B5ED
:1034900011D10A4C23682BB914210A20FFF77AFCBA
:1034A00001232360FFF740FF072205490548BDE8D7
:1034B0001040FFF725B810BD00480040BC030020B5
:1034C000100400209C0100200268134B9A4270B542
:1034D0000AD1124E124C0325002333B92378692BED
:1034E0000FD10123013DF8D170BD012B04D16378C8
:1034F000742B06D10223F5E7022B02D1A378732B9C
:1035000007D03046FFF744F8072221463046FEF741
:10351000F7FF0023E6E700BF004800409C010020C1
:103520001004002030B595B0274B002101911A6C92
:1035300042F080521A641B6C03F080530193019B8C
:10354000224B02911A6842F480421A601B6803F40D
:1035500080430293029B012308934FF48033099325
:103560004FF48003022504240F9308A8A8230E9586
:103570001094119312951394FEF738F800B1FEE7FA
:103580000F2303934FF4A0530590069305214FF4A6
:10359000805303A804950793FEF7CCF9054600B1C4
:1035A000FEE7FEF761FA4FF47A73B0FBF3F0FDF734
:1035B00027FD2046FDF73AFD2A4629464FF0FF3009
:1035C000FDF7DEFC15B030BD003802400070004051
:1035D00080B594B00024924DFDF788FCFFF7A2FF60
:1035E00001942B6B8F4843F010032B632B6B03F07C
:1035F00010030193019B02942B6B43F004032B6394
:103600002B6B03F004030293029B03942B6B43F098
:1036100080032B632B6B03F080030393039B0494C1
:103620002B6B43F001032B632B6B03F0010304931B
:10363000049B05942B6B43F002032B632B6B03F06D
:1036400002030593059B06942B6B43F008032B6341
:103650002B6B03F00803069322461421069BFDF70B
:10366000BFFF22464FF460416F48FDF7B9FF224685
:103670004FF420416D48FDF7B3FF22464AF65A3118
:103680006B48FDF7ADFF012614230BA965480B938A
:103690000C960D940E94FDF7BDFE4FF460430BA9FC
:1036A00061480B930C960D940E94FDF7B3FE4FF406
:1036B00020430BA95D480B930C960D940E94FDF7D7
:1036C000A9FE4AF65A330BA959480B930C960D9450
:1036D0000E94FDF79FFE4FF480730BA955480B9392
:1036E0000C940D96FDF796FE00942B6B43F400139B
:1036F0002B632B6B504D03F400130093224621469D
:103700000C20009BFDF73CFC0C20FDF76DFC4B48AA
:10371000AC604FF4527385E809004FF47A63284691
:10372000EB60FEF73DFC00B1FEE720230C900BA9F7
:1037300028460B93FEF76AFD00B1FEE7404B414976
:1037400098604FF4E13283E80600D86018610C22DB
:103750009861D86118465A61FEF7A4FE00B1FEE7F1
:10376000394C3A4B6060A0604FF6FF772061606192
:1037700002250C900E900F901090129013900BA9B0
:1037800020462360E7600B950D961196FEF73CFCF2
:1037900000B1FEE70790089007A92046FEF736FD26
:1037A00000B1FEE72A4C2B4B6060A0602061606195
:1037B0000E900F901090129013900BA9204623604A
:1037C000E7600B950C950D961196FEF71DFC00B168
:1037D000FEE70790089007A92046FEF717FD00B105
:1037E000FEE71D4C1D4B6060A06020610C900E90A8
:1037F0000F901090129013900BA920462360E76061
:103800000B950D961196FEF7FFFB00B1FEE70790B2
:10381000089007A92046FEF7F9FC034600B3FEE72F
:10382000003802400010024000080240000402403C
:10383000000C024000000240600400200014004020
:103840009C010020004800403C0300200000014093
:10385000C00000200004014070020020000400406D
:1038600078480B954FF080420BA980E80C008360EC
:10387000C76003610C930D960E930F9310931196EE
:1038800012931393FEF7C0FB00B1FEE7002307A9D4
:103890006C4807930893FEF7B9FC00B1FEE76A4C49
:1038A0006A4BA060542764262061204684E8880083
:1038B000E660FEF775FB00B1FEE74FF4805307A901
:1038C00020460793FEF7A8F900B1FEE72046FEF771
:1038D00081FB024600B1FEE74FF060080C900D90AE
:1038E0000F900BA92046CDF82C80FEF707FC00B105
:1038F000FEE704220BA92046FEF700FC054600B1B6
:10390000FEE72046524C00F0CBFA524BA560204611
:1039100084E88800E6602561FEF742FB00B1FEE71F
:103920002046FEF757FB024600B1FEE70C900D90D3
:103930000F900BA92046CDF82C80FEF7DFFB054643
:1039400000B1FEE7204600F0ABFA4348434B8560E8
:1039500080E88800C6600561FEF722FB00B1FEE743
:103960003D48FEF737FB024600B1FEE760230C90AE
:103970000D900F900BA938480B93FEF7BFFB044640
:1039800000B1FEE73448364F00F08AFA354ABC6091
:10399000542387E80C0038464FF4FA63FB60FEF7C7
:1039A000FFFA00B1FEE720230C900BA938460B93D9
:1039B000FEF72CFC00B1FEE72B4E2C4B706001246F
:1039C000B0604FF6FF7930614FF002080C900E9016
:1039D0000F901090129013900BA930463360C6F8E8
:1039E0000C90CDF82C800D941194FEF70DFB00B1D6
:1039F000FEE70790089007A93046FEF707FC00B1E4
:103A0000FEE71B4D1B4B6860A86028610C900E9070
:103A10000F901090129013900BA928462B60C5F8B8
:103A20000C90CDF82C800D941194FEF7EDFA00B1B6
:103A3000FEE70790089007A92846FEF7E7FB044633
:103A4000D0B1FEE7D40300207C03002000400140F9
:103A5000DC01002000440140AC020020001C0040BA
:103A60000003002000100040FC000020000800407F
:103A700034020020000C004004211420FEF78AFFCD
:103A80004948FEF79BF83846FEF798F82146474824
:103A9000FEF7A2FB21464648FEF79EFB214645481D
:103AA000FEF79AFB04214148FEF796FB2146424867
:103AB000FEF790F821464148FEF78CF82146404831
:103AC000FEF788F821463F48FEF784F82146304645
:103AD000FEF780F821462846FEF77CF807223A498F
:103AE0003A483B4D3B4CFEF70BFD3B4E2946B6F9A1
:103AF0000020204600F002FB002122460846FFF786
:103B00000FF9B6F902202946204600F0F7FA2246BE
:103B100001210020FFF704F9B6F9042029462046C8
:103B200000F0ECFA224602210020FFF7F9F8B6F97E
:103B300006202946204600F0E1FA22460321002013
:103B4000FFF7EEF8254B2649D3ED007AFDEEE77A34
:103B5000204617EE902A00F0D1FA224600210A20D2
:103B6000FFF7DEF81F4B1E49D3ED007AFDEEE77A32
:103B7000204617EE902A00F0C1FA224601210A20C1
:103B8000FFF7CEF8184B1949D3ED007AFDEEE77A2E
:103B9000204617EE902A00F0B1FA224602210A20B0
:103BA000FFF7BEF8A1E700BF600400207C030020FF
:103BB000AC020020DC0100203C030020C0000020FB
:103BC00070020020D4030020100400209C0100207B
:103BD00044540008380400205604002078030020D4
:103BE00048540008BC000020000000204E5400088B
:103BF000FEE708B50320FDF7B1F9002211466FF08A
:103C00000B00FDF7BDF9002211466FF00A00FDF729
:103C1000B7F9002211466FF00900FDF7B1F9002253
:103C200011466FF00400FDF7ABF9002211466FF06A
:103C30000300FDF7A5F9002211466FF00100FDF722
:103C40009FF9002211464FF0FF30BDE80840FDF714
:103C500097B9000070B50368524A93428CB01BD1EB
:103C6000002302F59C320193516C4F4841F0010151
:103C70005164526C099302F001020192019A0A9375
:103C80004FF4206207920123022208920B9307A9A6
:103C9000FDF7C0FB0CB070BDB3F1804F22D1002402
:103CA00003F50E3302941A6C404842F001021A6484
:103CB0001B6C099403F001030293029B0A944FF4D6
:103CC00000430226012507A9079308960B95FDF7E7
:103CD000A1FB08230793089609940A940B9507A95A
:103CE0003348D5E7334A934214D102F50D3200230D
:103CF0000393116C41F002011164126C02F0020294
:103D00000392039A302207920222089209930A939F
:103D10000B92E4E7284A93420ED102F50C320023BD
:103D20000493116C41F004011164126C02F004025E
:103D30000492049AC022E6E7204A934216D1002357
:103D400002F50B320593116C184841F0080111641B
:103D5000126C099302F008020592059A0A93032255
:103D60000792022208920B9207A991E7144A934204
:103D700090D1002302F59A320693516C114841F01C
:103D800002015164526C099302F002020692069AF3
:103D90000A93C02207920323022208920B9307A9D9
:103DA00076E700BF00000140001002400000024022
:103DB000000402400004004000080040000C0040E5
:103DC00000040140000802407FB503682E4A934278
:103DD00015D100222D4B0192196C41F0100119648C
:103DE0001B6C03F01003019336201146019BFDF775
:103DF000C7F83620FDF7F8F807B05DF804FB244A51
:103E0000934211D10022214B0292196C41F0200102
:103E100019641B6C03F02003029337201146029BA8
:103E2000FDF7AEF83720E5E71A4A93420CD100239C
:103E30000393164B5A6C42F480325A645B6C03F461
:103E400080330393039BD7E7134A93420CD100239B
:103E500004930E4B5A6C42F400325A645B6C03F4C8
:103E600000330493049BC7E70C4A9342C4D1002358
:103E70000593064B1A6C42F080021A641B6C03F027
:103E800080030593059BB7E700100040003802400F
:103E9000001400400040014000440140001C00406C
:103EA0007FB50368184A93420FD160230193022320
:103EB000029300230393049314480323059301A959
:103EC000FDF7A8FA07B05DF804FB114A93420CD144
:103ED0004FF480730193022302930023039304930E
:103EE0000323059301A90B48EAE70B4A9342E9D162
:103EF0004023019302230293002303930493092395
:103F0000059301A90548DBE700400140001002408D
:103F10000044014000040240001C00400000024038
:103F200070B50268224B9A4286B006463ED1002503
:103F300003F5F83300951A6C1E481F4C42F480229A
:103F40001A641B6C03F480230093009B4FF44063BE
:103F5000019302230293012303930323049301A9F2
:103F600007230593FDF756FA144AA5604FF0006346
:103F700084E80C0020464FF48063E56023616561AE
:103F8000A561E56125626562FDF778F820B140F230
:103F90004A210B48FFF72CFE0022746327201146AC
:103FA000A663FCF7EDFF2720FDF71EF806B070BDF5
:103FB00000480040000402403C010020286002400C
:103FC000545400087047FEE7FEE7FEE7FEE770473F
:103FD0007047704708B5FCF7A3FFBDE80840FDF740
:103FE00032B800000148FDF75BB900BF3C0100207A
:103FF0000148FEF76FBB00BF9C0100200148FDF7A0
:10400000C8BE00BF000300200148FDF7C2BE00BFCC
:10401000600400200F49D1F8883043F47003C1F8E0
:1040200088300D4B1A68002042F001021A60986037
:104030001A6822F0847222F480321A60074A5A60A9
:104040001A6822F480221A60D8604FF000638B60F7
:10405000704700BF00ED00E000380240103000243F
:10406000DFF834D0002103E00C4B5B58435004319F
:104070000B480C4B42189A42F6D30B4A02E000233D
:1040800042F8043B094B9A42F9D3FFF7C3FF00F013
:1040900011F8FFF79DFA7047000002209C580008B5
:1040A000000000207400002074000020B8040020EC
:1040B000FEE7000070B50D4E0D4CA41BA4100025AA
:1040C000A54209D10B4E0C4C01F0ACF9A41BA41075
:1040D0000025A54205D170BD56F825309847013519
:1040E000EEE756F8253098470135F2E79458000876
:1040F0009458000894580008985800080EB400B569
:104100009CB04FF402711DABADF8141002900690F4
:104110006FF000410A48049107914FF6FF7153F880
:10412000042BADF816100068019302A900F066F8A0
:10413000029B00221A701CB05DF804EB03B07047BC
:10414000100000202DE9F0478E689E4282460C4602
:104150009146984635D88A8912F4906F31D02568F7
:1041600009696F1A6569022305EB450595FBF3F5AF
:1041700008F101033B449D4238BF1D46530531D52C
:10418000294600F039FB064650B90C23CAF8003026
:10419000A38943F04003A3814FF0FF30BDE8F087CF
:1041A0003A46216900F0B4FAA38923F4906343F0FE
:1041B0008003A381266165613E44ED1B2660A560F6
:1041C0004646464528BF464632464946206800F0E6
:1041D000AAFAA3689B1BA36023681E4426600020E4
:1041E000BDE8F0872A4600F065FB06460028E1D1CD
:1041F0002169504600F0B2FAC7E700002DE9F04F00
:104200009DB0804603938B891C060D4616460FD53C
:104210000B696BB9402100F0EFFA2860286128B9DA
:104220000C23C8F800304FF0FF30C5E040236B612D
:104230000023099320238DF8293030238DF82A306C
:104240004FF0010B37463C4614F8013B002B3CD1A4
:10425000B7EB060A0BD05346324629464046FFF7D5
:1042600071FF013000F0A380099B534409933B7810
:10427000002B00F09C8000234FF0FF320493079343
:10428000059206938DF853301A93052221785048F1
:10429000FBF79EFF671C049BD8B9D90644BF2022B8
:1042A0008DF853201A0744BF2B228DF85320227813
:1042B0002A2A16D0079A00210A20274601343B7883
:1042C000303B092B51D9C9B111E0252BC0D027466D
:1042D000B9E73F4A801A0BFA00F0184304903C46B5
:1042E000D3E7039A111D12680391002A01DB07929C
:1042F00004E0524243F00203079204933B782E2BD2
:104300000ED17B782A2B07F1010132D1039B1A1DB4
:104310001B680392002BB8BF4FF0FF3302370593A1
:104320002C4C397803222046FBF752FF38B140234A
:10433000001B03FA00F0049B034304930137397810
:1043400025488DF8281006227E1CFBF741FF002827
:1043500035D0224BFBB9039B073323F00703083307
:104360000393099B4B4409936CE700FB0232012144
:10437000A3E70023059318460A240F4601313A7833
:10438000303A092A03D9002BCAD00590C8E704FBAC
:1043900000200123F1E703AB00932A46104B04A948
:1043A0004046AFF30080B0F1FF3F8146D9D1AB89E1
:1043B0005B063FF538AF09981DB0BDE8F08F03AB41
:1043C00000932A46064B04A9404600F081F8EAE72C
:1043D000875400088D540008915400080000000024
:1043E000454100082DE9F04791461F468A680B6950
:1043F000DDF820809342B8BF1346C9F8003091F829
:10440000432006460C4612B10133C9F80030236838
:10441000990642BFD9F800300233C9F80030256848
:1044200015F0060507D104F1190AE368D9F8002050
:104430009B1A9D4229DB94F843302268003318BF51
:10444000012392062ED404F1430239463046C04778
:10445000013021D02368E568D9F8002003F0060375
:10446000042B08BFAD1AA36822690CBF25EAE575C5
:1044700000259342C4BF9B1AED184FF000091A346F
:104480004D451BD10020BDE8F08701235246394637
:104490003046C047013003D14FF0FF30BDE8F08710
:1044A0000135C2E7E1185A1C302081F8430022444C
:1044B00094F8451082F843100233C4E701232246E2
:1044C00039463046C0470130E6D009F10109D7E747
:1044D0002DE9F04317460A7E85B06E2A98460646B7
:1044E0000C460C9B01F1430E00F0BC801AD8632AE5
:1044F0002ED00AD8002A00F0C880582A00F08A80FE
:1045000004F1420584F842202AE0642A01D0692A95
:10451000F6D121681A6811F0800F23D0111D19609F
:10452000136827E0732A00F0B48008D86F2A2AD0D5
:10453000702AE5D10A6842F020020A6003E0752A79
:1045400021D0782ADCD1782284F845206E4964E0B5
:104550001A6801F14205111D1960136884F8423090
:104560000123A3E011F0400F02F104011960D7D03C
:10457000B2F90030002B03DA2D225B4284F843208D
:1045800062490A2217E02068196810F0800F03D0F2
:10459000081D18600B6806E010F0400F01F10400E0
:1045A0001860F7D00B8859496F2A14BF0A220822D5
:1045B000002084F843006568A560002DC0F29C804F
:1045C000206820F004002060002B3FD1002D40F037
:1045D00095807546082A0BD12368DA0708D5236928
:1045E00062689A42DEBF302305F8013C05F1FF35D1
:1045F000AEEB05032361CDF800803B4603AA2146BC
:104600003046FFF7EFFE013055D14FF0FF3005B0D7
:10461000BDE8F08381F845203C492268186812F013
:10462000800F00F104051D6001D0036802E055060B
:10463000FBD50388D00744BF42F0200222601BB99B
:10464000226822F0200222601022B1E77546B3FBF7
:10465000F2F002FB1033CB5C05F8013D0346002865
:10466000F5D1B7E708681A68496910F0800F04D0DF
:10467000101D18601368196007E010F0400F02F178
:10468000040018601368F6D0198000232361754672
:10469000B1E71A68111D1960156862680021284683
:1046A000FBF796FD08B1401B60606368236100233F
:1046B00084F843309FE723692A4639463046C0478D
:1046C0000130A2D023689B0707D5002504F1190902
:1046D000E368039A9B1A9D4205DBE068039B9842BE
:1046E000B8BF184693E701234A4639463046C047CB
:1046F00001308AD00135EBE7002BA7D10B7884F885
:10470000423004F1420565E7A954000898540008B6
:1047100010B5431E0A44914200D110BD11F8014B5F
:1047200003F8014FF7E7884210B501EB020303D805
:10473000421E99420CD110BD9842F9D28118D21A6A
:10474000D34200D110BD13F8014D01F8014DF7E738
:1047500011F8014B02F8014FEBE7000038B50546B0
:10476000002945D051F8043C0C1F002BB8BFE418B9
:1047700000F0D6F81F4A1368104633B9636014601E
:104780002846BDE8384000F0CCB8A3420CD92168D7
:104790006218934204BF1A685B68636004BF5218D2
:1047A00022600460ECE713465A680AB1A242FAD9C3
:1047B00019685818A0420BD1206801445818824249
:1047C0001960DDD1106852685A6001441960D7E75A
:1047D00002D90C232B60D3E7206821188A4204BF3A
:1047E00011685268626004BF091821605C60C7E705
:1047F00038BD00BF9C00002070B5CD1C25F003051E
:1048000008350C2D38BF0C25002D064601DBA942CA
:1048100003D90C233360002070BD00F081F8234AD7
:104820001468214691B9224C23681BB9304600F028
:1048300067F820602946304600F062F8431C26D114
:104840000C233360304600F06CF8E4E70B685B1B28
:104850001AD40B2B0FD90B60CD50CC18304600F07A
:1048600060F804F10B00231D20F00700C31A1BD0D1
:104870005A42E25070BD8C420DBF63684B68636062
:10488000136018BF0C46E9E70C464968CAE7C41C28
:1048900024F00304A04205D0211A304600F030F87D
:1048A0000130CDD02560D9E770BD00BF9C0000204D
:1048B000A0000020F8B5074614460E4621B911465F
:1048C000BDE8F840FFF798BF22B9FFF747FF25463C
:1048D0002846F8BD00F026F884420FD92146384614
:1048E000FFF78AFF05460028F2D031462246FFF73F
:1048F0000FFF31463846FFF731FFE9E73546E7E776
:1049000038B5064C002305460846236000F07CFDC0
:10491000431C02D1236803B12B6038BDB4040020CE
:104920007047704751F8040C0028A0F10400BCBF88
:104930000B58C0187047000010EE103A07B51C4A1B
:1049400023F00043934204DCDFED1A0A00F0A2F9E1
:1049500004E0B3F1FF4F04DB30EE400A03B05DF832
:1049600004FB684600F06AF800F00300012807D055
:1049700002280ED0A0B9DDED010A9DED000AE5E7A1
:10498000DDED010A9DED000A00F040FCB1EE400AA9
:10499000E4E7DDED010A9DED000A00F07BF9F5E7A3
:1049A0000120DDED010A9DED000A00F02FFCD5E7A6
:1049B000D80F493F0000000010EE103A07B51D4A1D
:1049C00023F00043934205DCDFED1B0A002000F0DA
:1049D0001DFC04E0B3F1FF4F04DB30EE400A03B0EE
:1049E0005DF804FB684600F029F800F00300012898
:1049F00008D002280DD0B0B90120DDED010A9DEDEF
:104A0000000AE4E7DDED010A9DED000A00F042F93D
:104A1000E5E70120DDED010A9DED000A00F0F6FB5F
:104A2000B1EE400ADBE7DDED010A9DED000A00F082
:104A300031F9F5E7D80F493F00000000F0B510EE5E
:104A4000106A864B26F000449C4287B0054605DC80
:104A5000002385ED000A4360002020E0804B9C424B
:104A600038DC002E9FED7F7A7F4B24F00F0418DD99
:104A70009C4270EE477A09BF9FED7C7A9FED7C7A6D
:104A800077EEC77A9FED7B7A77EEC76A77EEE67AA4
:104A9000C0ED006A77EEC77AC0ED017A012007B059
:104AA000F0BD9C4270EE077A09BF9FED707A9FEDD2
:104AB000707A77EE877A9FED6F7A77EE876A77EE76
:104AC000E67AC0ED006A77EE877AC0ED017A4FF0A2
:104AD000FF30E4E7684B9C4271DC00F0DFFB9FEDA8
:104AE000677AF6EE007AE0EE077AFDEEE77AB8EE46
:104AF000E76A17EE900ADFED5B7AB1EE467AA7EE31
:104B0000270A1F28DFED5A7A66EE277A70EE676A69
:104B100016EE903A1CDC471E594951F8271024F034
:104B2000FF028A4214D02B6095ED007A30EE470ADE
:104B3000002E30EE670A85ED010AB0DAB1EE477A51
:104B4000B1EE400A85ED007A85ED010A4042A6E704
:104B5000E415C3F3C752A21A082AE4DDDFED437A55
:104B6000F0EE406AE7EE276A30EE660AA7EE270A03
:104B7000DFED407A96EE270A76EEC05AF0EE407AE4
:104B800015EE903AC3F3C752A41A192C04DCC5EDF4
:104B9000005AB0EE660AC7E7DFED3A5AB0EE660A91
:104BA000A7EE250A76EEC07AE7EE257A9FED367AF3
:104BB000D6EE077A30EE677A85ED007AB4E7B4F185
:104BC000FF4F06DB70EE407AC0ED017AC0ED007A4F
:104BD00042E7E215863AA4EBC25307EE903ABDEEE7
:104BE000E77ADFED2A6AB8EEC77A77EEC77A8DEDFD
:104BF000037A67EEA67ABDEEE77AB8EEC77A77EE6B
:104C0000C77A8DED047A67EEA67AF5EE407AF1EE7A
:104C100010FACDED057A1ED1B5EE407AF1EE10FA1C
:104C200014BF022301231A4901910221009103A814
:104C3000294600F08DF8002EBFF631AFD5ED007A91
:104C4000F1EE677AC5ED007AD5ED017AF1EE677A7B
:104C5000C5ED017A7AE70323E5E700BFD80F493FA6
:104C6000E3CB1640800FC93FD00FC93F0044353712
:104C70004344353708A3852E800F494384F9223FEA
:104C8000BC54000800A3852E32318D2400008043DF
:104C90003C55000810EE103A23F00043B3F1485F92
:104CA000F7EE006A05DAFDEEC07A17EE902A002AC8
:104CB0003BD020EE007A9FED1E6ADFED1E7ADFED1D
:104CC0001E5A1E4AA7EE276A934260EE200AE7EEBC
:104CD000065A9FED1B6AA7EE256ADFED1A5AE7EE2A
:104CE000065A9FED196AA7EE256AF6EE005A26EEDF
:104CF000076A06DCD7EE060AD7EE250A36EEE00A8A
:104D00007047124A9342DABF03F17F4307EE903AAD
:104D1000F5EE027A76EEE76AD7EE060AD7EE257A46
:104D200077EEE07A36EEE70A7047B0EE660A704733
:104D3000F6740F314ED747AD7CF293B49999993EF2
:104D4000010DD037610BB6BAABAA2A3D0000483F2F
:104D50002DE9F04F2DED048BD7B08B46019364996C
:104D6000CB4B029053F821A0019B659E9FEDCC7A1E
:104D7000013BD01E082490FBF4F020EAE070451CB3
:104D8000C71AA2EBC5050AEB030E1AAC06EB870C9B
:104D9000002272450FDD0DF5847E0024544526DC8B
:104DA000019A029FDFEDBE7A22441AA901EB82022A
:104DB0004FF0000C15E0D7425DBF5CF8221007EE03
:104DC000901AF8EEE77AF0EE477AE4EC017A0132D5
:104DD000DFE7F7EC016A32ED017AE6EE877A0CF153
:104DE000010C9C45F5DDEEEC017A0134D6E706AA0C
:104DF00002EB8A020492DFEDA78A9FEDA79A06EBE9
:104E000080020392574656AA07F1804802EB8702B8
:104E100008F1FF3812ED140A4FEA880856AA02EB8F
:104E200008004C380022BC1A002C4ADC28460593A6
:104E300000F07EFAB0EE408AB4EE000A28EE000AD6
:104E400000F034FAF2EE007AA0EE678A002D059B9E
:104E5000FDEEC87A17EE909AF8EEE77A38EE678A98
:104E600044DD781E06AAC5F1080452F8206046FA0F
:104E700004F29144A240B61A06AA42F82060C5F195
:104E800007021641002E40DD002409F101092046E9
:104E9000A74275DC002D05DD012D00F08680022D76
:104EA00000F08D80022E30D1B7EE000A30EE488A35
:104EB00058B32846059300F03BFA059B38EE408A2C
:104EC00023E060EE287A06ACFDEEE77AF8EEE77AAA
:104ED000A7EEC90ABDEEC00A10EE101A30ED010AA5
:104EE00044F8221037EE800A01329CE705D17A1E81
:104EF00006A951F822603612C4E7F6EE007AB4EE45
:104F0000E78AF1EE10FA39DA0026B5EE408AF1EEC2
:104F100010FA40F08D807C1E20460022504555DA64
:104F2000002A64D101246FF0030000FB04F204990D
:104F30008A58002A50D056AA9044019A1AA93A4495
:104F4000781CA8F1480801EB82022744B8423FF7D9
:104F50005AAF0399029E51F82010059107EE901A5E
:104F6000F8EEE77A0024E2EC017ADFED4D7A96461E
:104F70009C4233DDE8EC017A0130E7E7022683E763
:104F800006AA52F8242048B92AB106A9C2F58072AF
:104F900041F8242001220134104679E706A9C2F124
:104FA000FF0241F824200246F5E77C1E06AA52F8CB
:104FB000242002F07F0206A941F8242072E77C1E1B
:104FC00006AA52F8242002F03F02F4E706A951F89D
:104FD000201001380A43A1E70134A6E7F6EC016A84
:104FE0003EED017A0134E6EE877AC1E7013C06AB7B
:104FF000083D53F82430002BF8D02846B7EE000ABD
:1050000000F096F9A30042AA04339FED227AD0184B
:105010002246002A46DA0DF1B80E0022A51A60D405
:1050200042A91E4FDFED1E7A01EB8505002050E0FE
:105030006842B0EE480A00F07BF99FED177AB4EEB3
:10504000C70AF1EE10FA19DBDFED127A60EE277A6B
:1050500006AAFDEEE77A7C1CF8EEE77A0835A7EEA3
:10506000C70AFDEEE77ABDEEC00A10EE103A42F82C
:10507000273017EE903A42F82430BEE7BDEEC00A62
:1050800006AA10EE103A3C4642F82730B5E700BFBA
:10509000805800080000803B0000804354580008FE
:1050A0000000000006A951F82210019107EE901AA5
:1050B000F8EEE77A013A67EE807A20EE070A60EDB3
:1050C000017AA6E7F7EC016AB5EC017AE6EE877A99
:1050D0000130504501DC9042F4DDEEEC017A013202
:1050E0009CE7649A032A43D8DFE802F0371D1D02CB
:1050F0002EAA13441A462046002855DC1A4620469C
:10510000012861DC5FED1A7A012C6DDCDDED2E6A81
:105110009DED2F7A002E6DD1CBED006A8BED017ADB
:10512000CBED027A24E02EAA1FED237A1344224607
:10513000002A2ADA7EB3F1EE477ACBED007ADDED74
:105140002E7A77EEC77A2FAA01239C4226DA0EB177
:10515000F1EE677ACBED017A0AE02EAA5FED307AA4
:105160001344002C0BDA0EB1F1EE677ACBED007A26
:1051700009F0070057B0BDEC048BBDE8F08F33EDAC
:10518000017A013C77EE877AEBE773ED017A013A19
:1051900037EE277ACCE7F0EE477ACEE7B2EC017A29
:1051A000013377EE877AD0E752ED016A52ED027A49
:1051B00037EEA67A013877EEC77A77EEA67A62EDF7
:1051C000017A02ED017A97E752ED016A52ED027A17
:1051D00037EEA67A013877EEC77A77EEA67A62EDD7
:1051E000017A02ED017A8BE733ED017A013C77EE2B
:1051F000877A89E7F1EE666AB1EE477ACBED006A0D
:105200008BED017AF1EE677A8AE700BF10EE103A73
:1052100023F00043B3F1485F04DAFDEEC07A17EEE5
:10522000903A5BB320EE007ADFED157A9FED156AB8
:10523000A7EE276ADFED147AE7EE067A9FED136A90
:10524000A7EE276ADFED127A60EE076AE7EE067ACC
:1052500030B99FED106AA7EE276AA6EE860A70475E
:1052600067EEE67AB6EE006AE0EE867AD7EE270AB7
:10527000DFED097AE6EEA70A30EE600A704700BF5C
:10528000D3C92E2F342FD7B21BEF3836010D50B9AA
:105290008988083CABAA2ABEABAA2A3E10EE103A77
:1052A00023F0004300EE103A7047000010EE103A71
:1052B00023F00041CA0D7F3A162A2ADC002A11DAAF
:1052C000DFED187A30EE270AB5EEC00AF1EE10FADB
:1052D00005DD002B23DA144A002918BF134600EE1F
:1052E000103A7047114911410B42FAD0DFED0D7AA7
:1052F00030EE270AB5EEC00AF1EE10FAEFDD002B12
:10530000BEBF4FF4000040FA02F29B1823EA0103EB
:10531000E5E7B1F1FF4FE4D330EE000A7047002318
:10532000DDE700BFCAF24971000080BFFFFF7F00C8
:1053300008B510EE102A32F000432DED028BF0EE8E
:10534000400A04D0B3F1FF4F06D370EE000ABDEC63
:10535000028BB0EE600A08BDB3F5000F1CD21F4BE4
:10536000DFED1F7A984260EE270A10DB10EE902ADC
:10537000C2F3C753193B0344FE2B0FDD9FED198A7F
:10538000B0EE480A00F034F860EE080ADFE7DFED1F
:10539000167A60EEA70ADAE7DB0DECE7002B06DDF4
:1053A00022F0FF4242EAC35300EE903ACFE713F1F6
:1053B000160F06DA4CF250339842DFDC9FED0A8A72
:1053C000DEE7193322F0FF4242EAC353DFED077AEA
:1053D00007EE103A67EE270AB9E700BFB03CFFFFBF
:1053E0000000004CCAF249716042A20D0000003377
:1053F00010EE103A10EE902A23F0004302F0004223
:10540000134300EE103A7047044B1968024609B97D
:1054100003491960186802441A607047A40000200C
:10542000B8040020F8B500BFF8BC08BC9E46704721
:0C543000F8B500BFF8BC08BC9E467047F1
:10543C00000610160006101625346400252B303596
:10544C006400252B303464002E2E5C5372635C7325
:10545C00746D3332663478785F68616C5F6D73702D
:10546C002E6300000000000000000001020304068F
:10547C000708090000000001020304232D302B2033
:10548C0000686C4C00656667454647003031323326
:10549C003435363738394142434445460030313291
:1054AC003334353637383961626364656600000021
:1054BC00000FC93F000F494000CB9640000FC94078
:1054CC000053FB4000CB164100ED2F41000F49412A
:1054DC000031624100537B41003A8A4100CB964136
:1054EC00005CA34100EDAF41007EBC41000FC941FF
:1054FC0000A0D5410031E24100C2EE410053FB4116
:10550C0000F20342003A0A420083104200CB1642DA
:10551C0000141D42005C234200A5294200ED2F42DD
:10552C0000363642007E3C4200C74242000F4942E0
:10553C00A2000000F9000000830000006E000000D3
:10554C004E0000004400000015000000290000007F
:10555C00FC0000002700000057000000D1000000F4
:10556C00F500000034000000DD000000C000000069
:10557C00DB000000620000009500000099000000B4
:10558C003C000000430000009000000041000000BF
:10559C00FE0000005100000063000000AB000000A2
:1055AC00DE000000BB000000C50000006100000030
:1055BC00B7000000240000006E0000003A0000005C
:1055CC00420000004D000000D2000000E00000008E
:1055DC0006000000490000002E000000EA00000058
:1055EC0009000000D1000000920000001C00000027
:1055FC00FE0000001D000000EB0000001C0000007D
:10560C00B100000029000000A70000003E000000CF
:10561C00E80000008200000035000000F5000000EA
:10562C002E000000BB0000004400000084000000BD
:10563C00E90000009C000000700000002600000043
:10564C00B40000005F0000007E000000410000007C
:10565C003900000091000000D60000003900000065
:10566C00830000005300000039000000F40000002B
:10567C009C000000840000005F0000008B00000014
:10568C00BD000000F9000000280000003B000000F5
:10569C001F000000F800000097000000FF00000051
:1056AC00DE00000005000000980000000F00000064
:1056BC00EF0000002F000000110000008B00000024
:1056CC005A0000000A0000006D0000001F000000DE
:1056DC006D000000360000007E000000CF000000CE
:1056EC0027000000CB00000009000000B7000000FC
:1056FC004F000000460000003F0000006600000064
:10570C009E0000005F000000EA0000002D00000079
:10571C007500000027000000BA000000C700000060
:10572C00EB000000E5000000F10000007B00000031
:10573C003D0000000700000039000000F7000000E9
:10574C008A0000005200000092000000EA000000F5
:10575C006B000000FB0000005F000000B1000000C7
:10576C001F0000008D0000005D000000080000001C
:10577C00560000000300000030000000460000004E
:10578C00FC0000007B0000006B000000AB00000080
:10579C00F0000000CF000000BC0000002000000062
:1057AC009A000000F4000000360000001D0000000C
:1057BC00A9000000E300000091000000610000005F
:1057CC005E000000E60000001B0000000800000066
:1057DC006500000099000000850000005F000000DB
:1057EC0014000000A0000000680000004000000051
:1057FC008D000000FF000000D800000080000000B9
:10580C004D00000073000000270000003100000074
:10581C000600000006000000150000005600000005
:10582C00CA00000073000000A8000000C9000000BE
:10583C0060000000E20000007B000000C0000000DF
:10584C008C0000006B0000000000C93F0000F03924
:10585C000000DA370000A2330000842E0000502B29
:10586C000000C2270000D0220000C41F0000C61B8D
:10587C0000004417040000000700000009000000AD
:08588C0058B3FF7F010000008A
:04589400B501000852
:045898009101000872
:10589C000000B4420000B442DB0FC93F0024F40006
:1058AC0014000020000000000000000000000000B8
:1058BC0000000000000000000000000000000000DC
:1058CC0000000000000000000000000000000000CC
:1058DC0000000000000000000000000000000000BC
:1058EC0000000000000000000000000000000000AC
:1058FC00000000000000000000000000000000009C
:04590C000000000097
:04000005080040614E
:00000001FF
