:020000040800F2
:1000000000000220351A0008C5190008C7190008A9
:10001000C9190008CB190008CD190008000000001C
:10002000000000000000000000000000CF190008E0
:10003000D119000800000000D3190008D5190008E4
:10004000851A0008851A0008851A0008851A000814
:10005000851A0008851A0008851A0008851A000804
:10006000E3190008851A0008851A0008851A000897
:10007000851A0008851A0008851A0008851A0008E4
:10008000851A0008851A0008851A0008851A0008D4
:10009000851A0008851A0008851A0008851A0008C4
:1000A000851A0008851A0008851A0008851A0008B4
:1000B000851A0008851A0008851A0008851A0008A4
:1000C000851A0008851A0008851A0008851A000894
:1000D000851A0008851A0008851A0008851A000884
:1000E000851A0008851A0008851A0008851A000874
:1000F000851A0008851A0008851A0008851A000864
:10010000851A0008851A0008851A0008851A000853
:10011000851A0008851A0008851A0008851A000843
:10012000851A0008851A0008851A0008851A000833
:10013000851A0008851A0008851A0008851A000823
:10014000851A0008851A0008851A0008851A000813
:10015000851A0008851A0008851A0008851A000803
:10016000851A0008851A0008851A0008851A0008F3
:10017000851A0008851A0008851A0008000000008A
:08018000851A0008851A000829
:1001900010B5054C237833B9044B13B10448AFF3C1
:1001A00000800123237010BD6800002000000000C3
:1001B0002823000808B5034B1BB103490348AFF3DC
:1001C000008008BD000000006C000020282300080B
:1001D00001F0FF01102A2BDB10F0070F08D010F8F8
:1001E000013B013A8B422DD010F0070F42B3F6D1FC
:1001F000F0B441EA012141EA014122F007047FF015
:1002000000070023F0E80256083C85EA010586EA6B
:10021000010685FA47F5A3FA87F586FA47F6A5FAA7
:1002200087F68EB9EED1F0BC01F0FF0102F00702B3
:1002300032B110F8013B013A83EA010313B1F8D15E
:100240000020704701387047002D06BF354603383F
:10025000073815F0010F07D1013015F4807F02BF78
:10026000013015F4C03F0130F0BC0138704700BFC9
:1002700053B94AB9002908BF00281CBF4FF0FF310D
:100280004FF0FF3000F07AB9ADF1080C6DE904CE03
:1002900000F006F8DDF804E0DDE9022304B0704761
:1002A0002DE9F0478C460D460446089E002B51D19F
:1002B0008A4217466DD9B2FA82FEBEF1000F0BD00A
:1002C000CEF1200C01FA0EF520FA0CFC02FA0EF722
:1002D0004CEA050C00FA0EF44FEA174A250CBCFB59
:1002E000FAF81FFA87F90AFB18CC45EA0C4508FB17
:1002F00009F3AB420AD9ED1908F1FF3280F02381EE
:10030000AB4240F22081A8F102083D44ED1AA4B2AC
:10031000B5FBFAF00AFB105544EA054400FB09F965
:10032000A14509D9E41900F1FF3380F00A81A14504
:1003300040F2078102383C44A4EB090440EA08403B
:100340000021002E61D024FA0EF400233460736083
:10035000BDE8F0878B4207D9002E54D0002186E8F3
:1003600021000846BDE8F087B3FA83F1002940F088
:100370008E80AB4202D3824200F2FA80841A65EB8F
:1003800003050120AC46002E3FD086E81010BDE8E2
:10039000F08712B90127B7FBF2F7B7FA87FEBEF173
:1003A000000F34D1EB1B3A0C1FFA87FC0121B3FB81
:1003B000F2F8250C02FB183345EA03450CFB08F361
:1003C000AB4207D9ED1908F1FF3002D2AB4200F27F
:1003D000D1808046ED1AA3B2B5FBF2F002FB1055B6
:1003E00043EA05440CFB00FCA44507D9E41900F1DD
:1003F000FF3302D2A44500F2B8801846A4EB0C04E7
:1004000040EA08409DE731463046BDE8F087CEF12E
:10041000200405FA0EF307FA0EF720FA04F83A0C56
:1004200025FA04F448EA0308B4FBF2F14FEA184550
:1004300002FB11441FFA87FC45EA044501FB0CF35B
:10044000AB4200FA0EF409D9ED1901F1FF3080F04A
:100450008A80AB4240F2878002393D44EB1A1FFA92
:1004600088F5B3FBF2F002FB103345EA034500FBCD
:100470000CF3AB4207D9ED1900F1FF386FD2AB4254
:100480006DD902383D44EB1A40EA01418FE7C1F1D2
:10049000200722FA07F88B4005FA01F448EA030323
:1004A00020FA07FE4FEA134CFD404EEA040EB5FB5E
:1004B000FCF94FEA1E440CFB19551FFA83F844EA75
:1004C000054509FB08F4AC4202FA01F200FA01FA10
:1004D00008D9ED1809F1FF3043D2AC4241D9A9F156
:1004E00002091D442D1B1FFA8EFEB5FBFCF00CFB10
:1004F00010554EEA054400FB08F8A04507D9E4185A
:1005000000F1FF3529D2A04527D902381C4440EA22
:100510000940A4EB0804A0FB02894C45C6464D46A1
:1005200015D312D056B1BAEB0E0364EB050404FAEE
:1005300007F7CB401F43CC40376074600021BDE813
:10054000F0871846F8E69046E0E6C245EAD2B8EBF6
:10055000020E69EB03050138E4E72846D7E7404679
:1005600091E78146BEE7014678E702383C4445E71B
:10057000084608E7A8F102083D442BE7704700BF92
:1005800010B5084B044618684FF47A73B0FBF3F0CB
:1005900000F094F8002221464FF0FF3000F04EF8B2
:1005A000002010BD0000002008B50B4B1A6842F473
:1005B00000721A601A6842F480621A601A6842F483
:1005C00080721A60032000F027F80020FFF7D8FFA0
:1005D00001F096F9002008BD003C0240024A136871
:1005E00001331360704700BF90000020014B186872
:1005F000704700BF9000002037B50190FFF7F6FF6D
:10060000019C631C054618BF0134FFF7EFFF401B38
:10061000A042FAD303B030BD074AD36823F4E063A5
:100620001B041B0C43F0BF63000243F4003300F4CF
:10063000E0600343D360704700ED00E0174B30B536
:10064000DC68C4F30224C4F10703251D042B28BF72
:100650000423062D4FF0010505FA03F303F1FF33E0
:100660008CBF033C00241940A14005FA04F4013C6E
:100670002240002842EA01024FEA0212AFBF00F115
:10068000604000F00F00064BD2B2A5BF00F56140FC
:10069000D2B21A5480F8002330BD00BF00ED00E054
:1006A00014ED00E04209012300F01F0003FA00F0FE
:1006B000014B43F82200704700E100E00138B0F13F
:1006C000807F0AD2064B074A5860F02182F8231037
:1006D0000020072298601A6070470120704700BF11
:1006E00010E000E000ED00E0044B1A6804280CBFA5
:1006F00042F0040222F004021A60704710E000E0A9
:10070000704708B5FFF7FCFF08BD00002DE9F04F6A
:1007100085B00B68DFF8AC81684ADFF8AC910193D3
:1007200000234FF0010E019C0EFA03FE0EEA0406B0
:10073000B64540F0AE804C6824F01007022F16D169
:100740004FEAD30A00EB8A0A03F0070BDAF82050CD
:100750004FEA8B0B4FF00F0C0CFA0BFC25EA0C0C3C
:100760000D6905FA0BF545EA0C05CAF820504FEA69
:10077000430A0325D0F800B005FA0AF5ED4304F06A
:10078000030C0BEA050B0CFA0AFC013F4CEA0B0CBC
:10079000012FC0F800C011D8876807EA050BCF68A1
:1007A00007FA0AFC4CEA0B078760476827EA0E0E37
:1007B000C4F300179F4047EA0E074760C7683D40F3
:1007C0008F6807FA0AF73D43C560E50061D54FF031
:1007D000000BCDF80CB0D8F84470394D47F4804781
:1007E000C8F84470D8F8447007F480470397039F13
:1007F00023F0030707F1804707F59C3703F0030C4C
:10080000D7F808A04FEA8C0C4FF00F0E0EFA0CFE32
:10081000A8422AEA0E0E43D005F58065A84241D0D1
:1008200005F58065A8423FD005F58065A8423DD01A
:1008300005F58065A8423BD048453BD005F50065ED
:10084000A84239D005F58065A84214BF08250725C0
:1008500005FA0CF545EA0E05BD601568F74314F47A
:10086000803F0CBF3D4035431560556814F4003F90
:100870000CBF3D4035435560956814F4801F0CBF94
:100880003D4035439560D568A40254BF3D40354393
:10089000D5600133102B7FF444AF05B0BDE8F08F75
:1008A0005D46D5E70125D3E70225D1E70325CFE74C
:1008B0000425CDE70525CBE70625C9E7003C014027
:1008C000000002400038024000140240036919424F
:1008D00014BF0120002070470AB1816170470904EC
:1008E000FBE7000008B5044B5969014202D058618A
:1008F00000F0D6FE08BD00BF003C0140F7B504463D
:1009000010B9012003B0F0BD0368D8073BD42368B9
:10091000990700F1848023681E0700F1C6802368D0
:100920005D072AD500230193AA4BAB4D1A6C42F008
:1009300080521A641B6C03F080530193019B2B6857
:1009400043F480732B60FFF751FE06462B68DA05EF
:1009500040F1CD80A3689F4D012B40F0CF802B6FDD
:1009600043F001032B67FFF741FE9A4D064641F223
:1009700088372B6F9B0740F1E280A269002A40F084
:10098000E5800020BEE7934B9A6802F00C02042A2F
:1009900007D09A6802F00C02082A0AD15B685A0252
:1009A00007D58C4B1B689B03B1D56368002BAED178
:1009B000A7E76368874DB3F5803F11D12B6843F4F7
:1009C00080332B60FFF712FE824D06462B689F0393
:1009D0009DD4FFF70BFE801B6428F7D9032091E715
:1009E000B3F5A02F04D12B6843F480232B60E5E7F7
:1009F0002A6822F480322A602A6822F480222A603F
:100A0000002BDFD1FFF7F2FD06462B6898037FF538
:100A10007EAFFFF7EBFD801B6428F6D9DEE76D4B58
:100A20009A6812F00C0F07D09A6802F00C02082A9C
:100A300012D15B6859020FD4664B1A68920703D52E
:100A4000E268012A7FF45DAF1A68216922F0F8029A
:100A500042EAC1021A605EE7E268604BB2B101226D
:100A60001A60FFF7C3FD5B4D06462B689B0707D551
:100A70002B68226923F0F80343EAC2032B604AE79C
:100A8000FFF7B4FD801B0228EFD9A7E71A60FFF734
:100A9000ADFD504D06462B689F077FF53CAFFFF735
:100AA000A5FD801B0228F6D998E762694C4B7AB104
:100AB00001221A60FFF79AFD464D06466B6F9807B4
:100AC0003FF52DAFFFF792FD801B0228F6D985E791
:100AD0001A60FFF78BFD3F4D06466B6F99077FF558
:100AE0001EAFFFF783FD801B0228F6D976E7FFF7DC
:100AF0007DFD801B02287FF629AF6FE7052B04D10F
:100B00002B6F43F004032B6729E72A6F22F00102C1
:100B10002A672A6F22F004022A67002B7FF423AF92
:100B2000FFF764FD41F2883706462B6F98077FF583
:100B300024AFFFF75BFD801BB842F6D94EE7FFF705
:100B400055FD801BB8427FF614AF47E7214DAB68D7
:100B500003F00C03082B3FF4D4AE224E0023022AEC
:100B600033602AD1FFF742FD07462B6899011ED456
:100B7000226AE3691343626A43EA8213E26A43EA40
:100B80000263A26A134C5208013A43EA02436B60C3
:100B900001233360FFF72AFD054623689A013FF5DC
:100BA000F0AEFFF723FD401B0228F6D916E7FFF74A
:100BB0001DFDC01B0228D8D910E7FFF717FD04461A
:100BC0002B689B017FF5DDAEFFF710FD001B0228AF
:100BD000F6D903E7003802400070004000004742A9
:100BE000800E474260004742134908B58B6803F006
:100BF0000C03042B03D0082B03D0104808BD104869
:100C000008BD4A684B68496813F4800314BF0C4858
:100C10000A48C1F3881118BF002302F03F02A1FB6C
:100C20000001FFF725FB044B5B68C3F3014301336D
:100C30005B00B0FBF3F008BD003802400024F40074
:100C400000127A002DE9F0410D46044610B901204A
:100C5000BDE8F081444B1A6802F00F028A4228D3A3
:100C600021688F072DD4C80740D43F4B1A6802F083
:100C70000F02954266D3226851076CD4130707D53B
:100C80003A4A2169936823F4604343EAC1039360BD
:100C9000FFF7AAFF354B364A9B68C3F30313D35CB7
:100CA000D840344B18600020FFF76AFC0020BDE8F4
:100CB000F081CAB21A701B6803F00F039942C6D1C3
:100CC000CEE72A4B11F0040F1EBF9A6842F4E0529F
:100CD0009A600E0742BF9A6842F460429A609A682E
:100CE000A06822F0F00202439A60BCE762681F4BE2
:100CF000012A1DD11B6813F4003FA8D01B4EB36816
:100D000023F003031343B360FFF770FC41F288380C
:100D10000746B368626803F00C03B3EB820FA4D0FC
:100D2000FFF764FCC01B4045F3D90320BDE8F08108
:100D3000911E01291B6802D813F0007FDDE713F034
:100D4000020FDAE7EAB21A701B6803F00F039D4244
:100D50007FF47DAF8FE70549E0688B6823F4E053AB
:100D600003438B608AE700BF003C0240003802402A
:100D70004423000800000020014B1868704700BFA2
:100D800000000020036A23F001030362036A426843
:100D900070B584690D6824F0730425438C6823F0D2
:100DA000020323430C4CA04209D004F58064A04206
:100DB00005D042604A6885614263036270BDCC68B9
:100DC0008E6923F0080323434C6922F440723443B4
:100DD00023F004032243ECE700000140036A23F4FC
:100DE00080730362036A426870B5C4690D6824F0B9
:100DF000730425438C6823F4007343EA04230E4CE8
:100E0000A04209D004F58064A04205D042604A683F
:100E1000C561C263036270BDCC688E6923F4006350
:100E200043EA04234C6922F44052344323F48063A0
:100E300042EA0412EAE700BF00000140036A23F41B
:100E40008053036230B5046A4368C2690D6822F4B6
:100E5000E64242EA05228D6824F4005444EA05344F
:100E6000094DA84209D005F58065A84205D0436028
:100E70004B68C2610364046230BD4D6923F4804352
:100E800043EA8513F3E700BF00000140704700000C
:100E90002E4A0368904212D0B0F1804F0FD0A2F5D5
:100EA0007C4290420BD002F58062904207D002F55E
:100EB0008062904203D002F5784290421DD14A6888
:100EC00023F070031343214A904204D1CA6823F4EB
:100ED0004073134328E0B0F1804FF7D01C4A904292
:100EE000F4D002F580629042F0D002F58062904228
:100EF000ECD002F578429042E8D0164A9042E5D014
:100F000002F580629042E1D002F580629042DDD02D
:100F1000A2F598329042D9D002F580629042D5D0A5
:100F200002F580629042D1D003608B68C3620B6887
:100F30008362064B984206D003F58063984202D044
:100F40000123436170470B690363F9E70000014027
:100F5000000400400040014010B50446A0B190F8E4
:100F6000393003F0FF021BB980F8382000F0F8FC9C
:100F7000022384F839302068211DFFF789FF0123FF
:100F800084F83930002010BD012010BD10B5044692
:100F9000A0B190F8393003F0FF021BB980F8382077
:100FA000FFF774FF022384F839302068211DFFF712
:100FB0006FFF012384F83930002010BD012010BDDF
:100FC000036A23F010030362036A426870B5846900
:100FD0000D6824F4E64444EA05258C6823F02003D8
:100FE00043EA04130D4CA04209D004F58064A042EA
:100FF00005D042604A6885618263036270BDCC6837
:101000008E6923F0800343EA04134C6922F44062A2
:10101000344323F0400342EA8402EAE7000001403F
:1010200038B590F83830012B04464FF0020025D037
:10103000012384F8383084F839000C2A18D8DFE806
:1010400002F0071717171E1717172F17171740004B
:101050002068FFF797FE236809699A6942F0080241
:101060009A619A6922F004029A619A690A439A6124
:101070000123002084F8393084F8380038BD206816
:10108000FFF79EFF236809699A6942F400629A613A
:101090009A6922F480629A619A6942EA0122E6E73B
:1010A0002068FFF79BFE23680969DA6942F00802AD
:1010B000DA61DA6922F00402DA61DA690A43DA6194
:1010C000D6E72068FFF7BAFE23680969DA6942F4B7
:1010D0000062DA61DA6922F48062DA61DA6942EA8E
:1010E0000122ECE7036A10B501248C4023EA0403D3
:1010F0000362036A8A401A43026210BD10B50446B7
:1011000001220068FFF7EEFF2368084A934203D0EC
:1011100002F58062934203D15A6C42F400425A6451
:101120001A6842F001021A60002010BD0000014060
:1011300038B51E4C0546C0F3C0024FF400412046AE
:10114000FFF7CAFBC5F3800220464FF40051FFF7BA
:10115000C3FBC5F3400220464FF40061FFF7BCFB20
:1011600005F001024FF400712046FFF7B5FBA4F52E
:1011700000640020FFF740FA01224FF400412046AE
:10118000FFF7AAFB0020FFF737FA00224FF40041D7
:101190002046FFF7A1FB0020FFF72EFA2046012290
:1011A0004FF40041BDE83840FFF796BB000C024009
:1011B00070B5394C394E0546C2094FF400412046FE
:1011C000FFF78AFBC5F3801220464FF40051FFF76A
:1011D00083FBC5F3401220464FF40061FFF77CFB10
:1011E000C5F300124FF400712046FFF775FB002095
:1011F000FFF702FA01224FF400413046FFF76CFB83
:101200000020FFF7F9F900224FF400413046FFF7C4
:1012100063FB0020FFF7F0F9304601224FF4004154
:10122000FFF75AFBC5F3C00220464FF40041FFF719
:1012300053FBC5F3800220464FF40051FFF74CFBEF
:10124000C5F3400220464FF40061FFF745FB05F06F
:1012500001024FF400712046FFF73EFB0020FFF72C
:10126000CBF901224FF400413046FFF735FB002057
:10127000FFF7C2F900224FF400413046FFF72CFB84
:101280000020FFF7B9F9304601224FF40041BDE8D4
:101290007040FFF721BB00BF000C02400004024079
:1012A00070B5C14BC14D98704026002482191C7046
:1012B0005E70DA70BE4B1870BE4B2246197028461D
:1012C0004FF40051FFF708FB6420FFF795F9032066
:1012D000FFF72EFF0520FFF78FF90320FFF728FF08
:1012E0000120FFF789F90320FFF722FF0120FFF714
:1012F00083F90220FFF71CFF0120FFF77DF928206A
:10130000FFF756FF0820FFF753FF0120FFF774F99E
:101310000120FFF74DFF0320FFF76EF90620FFF7CE
:1013200047FF0120FFF768F90C20FFF741FF01207C
:10133000FFF762F922464FF400512846FFF7CCFA36
:101340003046FFF735FF01224FF400512846FFF7E2
:10135000C3FA0720FFF72CFF0F20FFF729FF1F20FC
:10136000FFF726FF1F20FFF723FF1F20FFF720FFB7
:101370001F20FFF71DFF1F20FFF71AFF1F20FFF799
:1013800017FF22464FF400512846FFF7A5FA4820E0
:10139000FFF70EFF01224FF400512846FFF79CFA99
:1013A0001F20FFF705FF1F20FFF702FF1F20FFF799
:1013B000FFFE1F20FFF7FCFE1F20FFF7F9FE1F2096
:1013C000FFF7F6FE0F20FFF7F3FE0720FFF7F0FE12
:1013D00022464FF400512846FFF77EFA5020FFF7CF
:1013E000E7FE01224FF400512846FFF775FA1C2052
:1013F000FFF7DEFE1E20FFF7DBFE1F20FFF7D8FE03
:101400001F20FFF7D5FE1F20FFF7D2FE1F20FFF79A
:10141000CFFE1F20FFF7CCFE1F20FFF7C9FE22469C
:101420004FF400512846FFF757FA5820FFF7C0FE47
:1014300001224FF400512846FFF74EFA1F20FFF714
:10144000B7FE1F20FFF7B4FE1F20FFF7B1FE1F20DD
:10145000FFF7AEFE1F20FFF7ABFE1F20FFF7A8FE31
:101460001E20FFF7A5FE1C20FFF7A2FE22464FF428
:1014700000512846FFF730FA6020FFF799FE01225D
:101480004FF400512846FFF727FA1F20FFF790FE80
:101490001F20FFF78DFE1F20FFF78AFE2046FFF773
:1014A00087FE2046FFF784FE2046FFF781FE204698
:1014B000FFF77EFE2046FFF77BFE22464FF40051E9
:1014C0002846FFF709FA6820FFF772FE01224FF461
:1014D00000512846FFF700FA1F20FFF769FE1F2082
:1014E000FFF766FE1F20FFF763FE2046FFF760FE52
:1014F0002046FFF75DFE2046FFF75AFE1F20FFF74C
:1015000057FE1F20FFF754FE22464FF40051284695
:10151000FFF7E2F97020FFF74BFE01224FF4005174
:101520002846FFF7D9F92046FFF742FE2046FFF78D
:101530003FFE2046FFF73CFE2046FFF739FE2046DF
:10154000FFF736FE1F20FFF733FE1F20FFF730FEA8
:101550001F20FFF72DFE22464FF400512846FFF7CB
:10156000BBF97820FFF724FE01224FF400512846F2
:10157000FFF7B2F91F20FFF71BFE1F20FFF718FE31
:101580001F20FFF715FE1F20FFF712FE1F20FFF799
:101590000FFE1F20FFF70CFE1F20FFF709FE1F2084
:1015A000BDE87040FFF704BE960000200004024032
:1015B0009F0000209400002038B50F4B1C780F4B83
:1015C0001D7884428CBF044600248D428CBF0D469A
:1015D000002500224FF400510948FFF77DF9094B1F
:1015E000585D204460F07F00C0B2FFF7E1FD0020AD
:1015F000BDE83840FFF700B89F00002094000020AD
:10160000000402409600002010B5012204464FF469
:1016100000510548FFF760F92046FFF7C9FD00209B
:10162000BDE81040FEF7E8BF000402402DE9F0419C
:10163000194FDFF8688004460D46561C16F8013C29
:101640000BB9BDE8F0813B78A3421AD898F8003076
:10165000AB420BD800210846FFF7AEFF16F8010C8D
:10166000FFF7D2FF002501240136E7E70135EDB28F
:1016700029460020FFF7A0FF16F8010CFFF7C4FF72
:10168000F1E720462946FFF797FF013416F8010CD1
:10169000FFF7BAFFE4B2E7E79F00002094000020C4
:1016A00008B504210448FFF711F918B1034A13687B
:1016B0000133136008BD00BF00080240DC000020B9
:1016C00030B595B0274B002101911A6C42F0805241
:1016D0001A641B6C03F080530193019B224B02910F
:1016E0001A6842F480421A601B6803F48043029334
:1016F000029B012308934FF4803309934FF4800336
:10170000022504240F9308A8A8230E951094119382
:1017100012951394FFF7F2F800B1FEE70F2303933D
:101720004FF4A0530590069305214FF4805303A86E
:1017300004950793FFF786FA054600B1FEE7FFF729
:101740001BFB4FF47A73B0FBF3F0FEF7B7FF2046B4
:10175000FEF7CAFF2A4629464FF0FF30FEF76EFF1C
:1017600015B030BD003802400070004080B58CB02C
:101770000024FEF719FFFFF7A3FF574B01941A6BE4
:101780005648574E42F080021A631A6B02F08002EC
:101790000192019A02941A6B42F004021A631A6BC6
:1017A00002F004020292029A03941A6B42F00202BF
:1017B0001A631A6B02F002020392039A04941A6BE2
:1017C00042F008021A631B6B03F0080304932246DD
:1017D0004FF42041049BFFF77FF822464FF42B4142
:1017E0004048FFF779F801253F4B4048069305A98B
:1017F000042707950597FEF789FF4FF4204305A9B5
:1018000036480593069507940894FEF77FFF4FF43A
:101810002B4305A933480593069507940894FEF7D2
:1018200075FF4FF4807305A930480593079506941A
:10183000FEF76CFF2946224608202D4DFEF7FEFEDE
:101840000820FEF72FFFA8236B60284644F620638C
:101850002E60AC60EB602C61FFF77EFB00B1FEE711
:101860002846FFF793FB024600B1FEE7602306908F
:101870000790099005A928460593FFF7D1FB044678
:1018800000B1FEE7284600F083F839461420FFF740
:1018900007FD21462846FFF731FC40F2DC53736315
:1018A000144D154C114E2A681449204600F010F9C9
:1018B000002108462246FFF7B9FE4FF480713046FA
:1018C000FFF704F8064B18B940F20E625A63EAE7D4
:1018D00040F2DC52FAE700BF003802400004024048
:1018E00000480140000C02400000111000080240B6
:1018F000A0000020DC000020E000002040230008C1
:1019000008B50320FEF788FE002211466FF00B0099
:10191000FEF794FE002211466FF00A00FEF78EFEDD
:10192000002211466FF00900FEF788FE00221146E2
:101930006FF00400FEF782FE002211466FF00300F4
:10194000FEF77CFE002211466FF00100FEF776FEE6
:10195000002211464FF0FF30BDE80840FEF76EBE92
:101960000268094B9A4282B00BD100230193074BC6
:101970005A6C42F480225A645B6C03F48023019316
:10198000019B02B0704700BF004801400038024090
:101990007FB50268094B9A420DD14FF40073019351
:1019A0000223029300230393049301A90323044811
:1019B0000593FEF7ABFE07B05DF804FB004801405D
:1019C000000402407047FEE7FEE7FEE7FEE77047CF
:1019D0007047704708B5FEF701FEBDE80840FEF706
:1019E00090BE0420FEF77EBF0F49D1F8883043F443
:1019F0007003C1F888300D4B1A68002042F00102D4
:101A00001A6098601A6822F0847222F480321A6098
:101A1000074A5A601A6822F480221A60D8604FF090
:101A200000638B60704700BF00ED00E000380240AB
:101A300010300024DFF834D0002103E00C4B5B5859
:101A4000435004310B480C4B42189A42F6D30B4AD0
:101A500002E0002342F8043B094B9A42F9D3FFF716
:101A6000C3FF00F011F8FFF781FE7047000002206D
:101A70009823000800000020680000206800002073
:101A8000F8000020FEE7000070B50D4E0D4CA41BC1
:101A9000A4100025A54209D10B4E0C4C00F044FCCB
:101AA000A41BA4100025A54205D170BD56F8253011
:101AB00098470135EEE756F8253098470135F2E7AB
:101AC0009023000890230008902300089423000826
:101AD0000EB400B59CB04FF402711DABADF81410FC
:101AE000029006906FF000410A48049107914FF66A
:101AF000FF7153F8042BADF816100068019302A98A
:101B000000F066F8029B00221A701CB05DF804EB2E
:101B100003B07047040000202DE9F0478E689E4214
:101B200082460C469146984635D88A8912F4906FC1
:101B300031D0256809696F1A6569022305EB4505EF
:101B400095FBF3F508F101033B449D4238BF1D4668
:101B5000530531D5294600F039FB064650B90C2310
:101B6000CAF80030A38943F04003A3814FF0FF304F
:101B7000BDE8F0873A46216900F0B4FAA38923F45E
:101B8000906343F08003A381266165613E44ED1BB1
:101B90002660A5604646464528BF46463246494629
:101BA000206800F0AAFAA3689B1BA36023681E4468
:101BB00026600020BDE8F0872A4600F065FB064657
:101BC0000028E1D12169504600F0B2FAC7E70000D1
:101BD0002DE9F04F9DB0804603938B891C060D467E
:101BE00016460FD50B696BB9402100F0EFFA28605B
:101BF000286128B90C23C8F800304FF0FF30C5E049
:101C000040236B610023099320238DF82930302372
:101C10008DF82A304FF0010B37463C4614F8013B53
:101C2000002B3CD1B7EB060A0BD05346324629466F
:101C30004046FFF771FF013000F0A380099B534439
:101C400009933B78002B00F09C8000234FF0FF327B
:101C500004930793059206938DF853301A93052247
:101C600021785048FEF7B4FA671C049BD8B9D9060E
:101C700044BF20228DF853201A0744BF2B228DF831
:101C8000532022782A2A16D0079A00210A202746B4
:101C900001343B78303B092B51D9C9B111E0252BD8
:101CA000C0D02746B9E73F4A801A0BFA00F0184324
:101CB00004903C46D3E7039A111D12680391002A51
:101CC00001DB079204E0524243F0020307920493BF
:101CD0003B782E2B0ED17B782A2B07F1010132D1D4
:101CE000039B1A1D1B680392002BB8BF4FF0FF33F4
:101CF000023705932C4C397803222046FEF768FA08
:101D000038B14023001B03FA00F0049B0343049303
:101D10000137397825488DF8281006227E1CFEF7F9
:101D200057FA002835D0224BFBB9039B073323F029
:101D3000070308330393099B4B4409936CE700FBAB
:101D400002320121A3E70023059318460A240F4617
:101D500001313A78303A092A03D9002BCAD00590CC
:101D6000C8E704FB00200123F1E703AB00932A46F8
:101D7000104B04A94046AFF30080B0F1FF3F81460D
:101D8000D9D1AB895B063FF538AF09981DB0BDE8E6
:101D9000F08F03AB00932A46064B04A9404600F09F
:101DA00081F8EAE7542300085A2300085E2300085C
:101DB00000000000191B00082DE9F04791461F465E
:101DC0008A680B69DDF820809342B8BF1346C9F8D2
:101DD000003091F8432006460C4612B10133C9F891
:101DE00000302368990642BFD9F800300233C9F8A1
:101DF0000030256815F0060507D104F1190AE368DB
:101E0000D9F800209B1A9D4229DB94F843302268C0
:101E1000003318BF012392062ED404F14302394641
:101E20003046C047013021D02368E568D9F800204A
:101E300003F00603042B08BFAD1AA36822690CBF88
:101E400025EAE57500259342C4BF9B1AED184FF0B3
:101E500000091A344D451BD10020BDE8F08701234D
:101E6000524639463046C047013003D14FF0FF306B
:101E7000BDE8F0870135C2E7E1185A1C302081F82F
:101E80004300224494F8451082F843100233C4E71B
:101E90000123224639463046C0470130E6D009F1D9
:101EA0000109D7E72DE9F04317460A7E85B06E2A6F
:101EB000984606460C460C9B01F1430E00F0BC8090
:101EC0001AD8632A2ED00AD8002A00F0C880582ACF
:101ED00000F08A8004F1420584F842202AE0642A56
:101EE00001D0692AF6D121681A6811F0800F23D039
:101EF000111D1960136827E0732A00F0B48008D818
:101F00006F2A2AD0702AE5D10A6842F020020A60BE
:101F100003E0752A21D0782ADCD1782284F8452084
:101F20006E4964E01A6801F14205111D19601368D9
:101F300084F842300123A3E011F0400F02F10401C4
:101F40001960D7D0B2F90030002B03DA2D225B42A2
:101F500084F8432062490A2217E02068196810F0CB
:101F6000800F03D0081D18600B6806E010F0400FCA
:101F700001F104001860F7D00B8859496F2A14BF8B
:101F80000A220822002084F843006568A560002D1D
:101F9000C0F29C80206820F004002060002B3FD11C
:101FA000002D40F095807546082A0BD12368DA078A
:101FB00008D5236962689A42DEBF302305F8013CE8
:101FC00005F1FF35AEEB05032361CDF800803B46FC
:101FD00003AA21463046FFF7EFFE013055D14FF0FE
:101FE000FF3005B0BDE8F08381F845203C49226808
:101FF000186812F0800F00F104051D6001D003681D
:1020000002E05506FBD50388D00744BF42F020020A
:1020100022601BB9226822F0200222601022B1E760
:102020007546B3FBF2F002FB1033CB5C05F8013DC3
:1020300003460028F5D1B7E708681A68496910F027
:10204000800F04D0101D18601368196007E010F0AD
:10205000400F02F1040018601368F6D019800023C5
:1020600023617546B1E71A68111D19601568626829
:1020700000212846FEF7ACF808B1401B6060636899
:102080002361002384F843309FE723692A463946B9
:102090003046C0470130A2D023689B0707D50025F2
:1020A00004F11909E368039A9B1A9D4205DBE06875
:1020B000039B9842B8BF184693E701234A46394626
:1020C0003046C04701308AD00135EBE7002BA7D15D
:1020D0000B7884F8423004F1420565E77623000866
:1020E0006523000810B5431E0A44914200D110BD7B
:1020F00011F8014B03F8014FF7E7884210B501EBE7
:10210000020303D8421E99420CD110BD9842F9D265
:102110008118D21AD34200D110BD13F8014D01F835
:10212000014DF7E711F8014B02F8014FEBE7000012
:1021300038B50546002945D051F8043C0C1F002B4A
:10214000B8BFE41800F0D6F81F4A1368104633B938
:10215000636014602846BDE8384000F0CCB8A34264
:102160000CD921686218934204BF1A685B686360E7
:1021700004BF521822600460ECE713465A680AB1A3
:10218000A242FAD919685818A0420BD1206801441C
:10219000581882421960DDD1106852685A600144B3
:1021A0001960D7E702D90C232B60D3E720682118E8
:1021B0008A4204BF11685268626004BF0918216036
:1021C0005C60C7E738BD00BF8400002070B5CD1C3F
:1021D00025F0030508350C2D38BF0C25002D0646CB
:1021E00001DBA94203D90C233360002070BD00F04D
:1021F00081F8234A1468214691B9224C23681BB9FF
:10220000304600F067F820602946304600F062F85A
:10221000431C26D10C233360304600F06CF8E4E711
:102220000B685B1B1AD40B2B0FD90B60CD50CC184D
:10223000304600F060F804F10B00231D20F0070089
:10224000C31A1BD05A42E25070BD8C420DBF636866
:102250004B686360136018BF0C46E9E70C46496899
:10226000CAE7C41C24F00304A04205D0211A30465A
:1022700000F030F80130CDD02560D9E770BD00BF47
:102280008400002088000020F8B5074614460E465A
:1022900021B91146BDE8F840FFF798BF22B9FFF712
:1022A00047FF25462846F8BD00F026F884420FD99E
:1022B00021463846FFF78AFF05460028F2D031460E
:1022C0002246FFF70FFF31463846FFF731FFE9E7B7
:1022D0003546E7E738B5064C002305460846236037
:1022E00000F014F8431C02D1236803B12B6038BD01
:1022F000F40000207047704751F8040C0028A0F14A
:102300000400BCBF0B58C01870470000044B19688C
:10231000024609B903491960186802441A607047F7
:102320008C000020F8000020F8B500BFF8BC08BC05
:102330009E467047F8B500BFF8BC08BC9E46704783
:1023400025346400000000000000000001020304C6
:1023500006070809232D302B2000686C4C006566A9
:1023600067454647003031323334353637383941E6
:1023700042434445460030313233343536373839FC
:08238000616263646566000000
:0823880018DFFF7F01000000D7
:04239000B50100088B
:0423940091010008AB
:102398000024F400080000200000000000000000F5
:1023A8000000000000000000000000000000000025
:1023B8000000000000000000000000000000000015
:1023C8000000000000000000000000000000000005
:1023D80000000000000000000000000000000000F5
:1023E80000000000000000000000000000000000E5
:0823F8000000000000000000DD
:0400000508001A35A0
:00000001FF
